{
  "contractName": "Geng",
  "abi": [
    {
      "inputs": [],
      "stateMutability": "nonpayable",
      "type": "constructor"
    },
    {
      "anonymous": false,
      "inputs": [
        {
          "indexed": true,
          "internalType": "address",
          "name": "owner",
          "type": "address"
        },
        {
          "indexed": true,
          "internalType": "address",
          "name": "approved",
          "type": "address"
        },
        {
          "indexed": true,
          "internalType": "uint256",
          "name": "tokenId",
          "type": "uint256"
        }
      ],
      "name": "Approval",
      "type": "event"
    },
    {
      "anonymous": false,
      "inputs": [
        {
          "indexed": true,
          "internalType": "address",
          "name": "owner",
          "type": "address"
        },
        {
          "indexed": true,
          "internalType": "address",
          "name": "operator",
          "type": "address"
        },
        {
          "indexed": false,
          "internalType": "bool",
          "name": "approved",
          "type": "bool"
        }
      ],
      "name": "ApprovalForAll",
      "type": "event"
    },
    {
      "anonymous": false,
      "inputs": [
        {
          "indexed": false,
          "internalType": "uint256",
          "name": "tokenId",
          "type": "uint256"
        },
        {
          "indexed": false,
          "internalType": "address",
          "name": "owner",
          "type": "address"
        },
        {
          "indexed": false,
          "internalType": "string",
          "name": "geng",
          "type": "string"
        }
      ],
      "name": "GengCreated",
      "type": "event"
    },
    {
      "anonymous": false,
      "inputs": [
        {
          "indexed": false,
          "internalType": "address",
          "name": "account",
          "type": "address"
        }
      ],
      "name": "Paused",
      "type": "event"
    },
    {
      "anonymous": false,
      "inputs": [
        {
          "indexed": true,
          "internalType": "bytes32",
          "name": "role",
          "type": "bytes32"
        },
        {
          "indexed": true,
          "internalType": "bytes32",
          "name": "previousAdminRole",
          "type": "bytes32"
        },
        {
          "indexed": true,
          "internalType": "bytes32",
          "name": "newAdminRole",
          "type": "bytes32"
        }
      ],
      "name": "RoleAdminChanged",
      "type": "event"
    },
    {
      "anonymous": false,
      "inputs": [
        {
          "indexed": true,
          "internalType": "bytes32",
          "name": "role",
          "type": "bytes32"
        },
        {
          "indexed": true,
          "internalType": "address",
          "name": "account",
          "type": "address"
        },
        {
          "indexed": true,
          "internalType": "address",
          "name": "sender",
          "type": "address"
        }
      ],
      "name": "RoleGranted",
      "type": "event"
    },
    {
      "anonymous": false,
      "inputs": [
        {
          "indexed": true,
          "internalType": "bytes32",
          "name": "role",
          "type": "bytes32"
        },
        {
          "indexed": true,
          "internalType": "address",
          "name": "account",
          "type": "address"
        },
        {
          "indexed": true,
          "internalType": "address",
          "name": "sender",
          "type": "address"
        }
      ],
      "name": "RoleRevoked",
      "type": "event"
    },
    {
      "anonymous": false,
      "inputs": [
        {
          "indexed": true,
          "internalType": "address",
          "name": "from",
          "type": "address"
        },
        {
          "indexed": true,
          "internalType": "address",
          "name": "to",
          "type": "address"
        },
        {
          "indexed": true,
          "internalType": "uint256",
          "name": "tokenId",
          "type": "uint256"
        }
      ],
      "name": "Transfer",
      "type": "event"
    },
    {
      "anonymous": false,
      "inputs": [
        {
          "indexed": false,
          "internalType": "address",
          "name": "account",
          "type": "address"
        }
      ],
      "name": "Unpaused",
      "type": "event"
    },
    {
      "inputs": [],
      "name": "DEFAULT_ADMIN_ROLE",
      "outputs": [
        {
          "internalType": "bytes32",
          "name": "",
          "type": "bytes32"
        }
      ],
      "stateMutability": "view",
      "type": "function",
      "constant": true
    },
    {
      "inputs": [],
      "name": "MINTER_ROLE",
      "outputs": [
        {
          "internalType": "bytes32",
          "name": "",
          "type": "bytes32"
        }
      ],
      "stateMutability": "view",
      "type": "function",
      "constant": true
    },
    {
      "inputs": [],
      "name": "PAUSER_ROLE",
      "outputs": [
        {
          "internalType": "bytes32",
          "name": "",
          "type": "bytes32"
        }
      ],
      "stateMutability": "view",
      "type": "function",
      "constant": true
    },
    {
      "inputs": [
        {
          "internalType": "address",
          "name": "to",
          "type": "address"
        },
        {
          "internalType": "uint256",
          "name": "tokenId",
          "type": "uint256"
        }
      ],
      "name": "approve",
      "outputs": [],
      "stateMutability": "nonpayable",
      "type": "function"
    },
    {
      "inputs": [
        {
          "internalType": "address",
          "name": "owner",
          "type": "address"
        }
      ],
      "name": "balanceOf",
      "outputs": [
        {
          "internalType": "uint256",
          "name": "",
          "type": "uint256"
        }
      ],
      "stateMutability": "view",
      "type": "function",
      "constant": true
    },
    {
      "inputs": [
        {
          "internalType": "uint256",
          "name": "tokenId",
          "type": "uint256"
        }
      ],
      "name": "getApproved",
      "outputs": [
        {
          "internalType": "address",
          "name": "",
          "type": "address"
        }
      ],
      "stateMutability": "view",
      "type": "function",
      "constant": true
    },
    {
      "inputs": [
        {
          "internalType": "bytes32",
          "name": "role",
          "type": "bytes32"
        }
      ],
      "name": "getRoleAdmin",
      "outputs": [
        {
          "internalType": "bytes32",
          "name": "",
          "type": "bytes32"
        }
      ],
      "stateMutability": "view",
      "type": "function",
      "constant": true
    },
    {
      "inputs": [
        {
          "internalType": "bytes32",
          "name": "role",
          "type": "bytes32"
        },
        {
          "internalType": "uint256",
          "name": "index",
          "type": "uint256"
        }
      ],
      "name": "getRoleMember",
      "outputs": [
        {
          "internalType": "address",
          "name": "",
          "type": "address"
        }
      ],
      "stateMutability": "view",
      "type": "function",
      "constant": true
    },
    {
      "inputs": [
        {
          "internalType": "bytes32",
          "name": "role",
          "type": "bytes32"
        }
      ],
      "name": "getRoleMemberCount",
      "outputs": [
        {
          "internalType": "uint256",
          "name": "",
          "type": "uint256"
        }
      ],
      "stateMutability": "view",
      "type": "function",
      "constant": true
    },
    {
      "inputs": [
        {
          "internalType": "address",
          "name": "account",
          "type": "address"
        }
      ],
      "name": "grantMinter",
      "outputs": [],
      "stateMutability": "nonpayable",
      "type": "function"
    },
    {
      "inputs": [
        {
          "internalType": "address",
          "name": "account",
          "type": "address"
        }
      ],
      "name": "grantPauser",
      "outputs": [],
      "stateMutability": "nonpayable",
      "type": "function"
    },
    {
      "inputs": [
        {
          "internalType": "bytes32",
          "name": "role",
          "type": "bytes32"
        },
        {
          "internalType": "address",
          "name": "account",
          "type": "address"
        }
      ],
      "name": "grantRole",
      "outputs": [],
      "stateMutability": "nonpayable",
      "type": "function"
    },
    {
      "inputs": [
        {
          "internalType": "bytes32",
          "name": "role",
          "type": "bytes32"
        },
        {
          "internalType": "address",
          "name": "account",
          "type": "address"
        }
      ],
      "name": "hasRole",
      "outputs": [
        {
          "internalType": "bool",
          "name": "",
          "type": "bool"
        }
      ],
      "stateMutability": "view",
      "type": "function",
      "constant": true
    },
    {
      "inputs": [
        {
          "internalType": "address",
          "name": "owner",
          "type": "address"
        },
        {
          "internalType": "address",
          "name": "operator",
          "type": "address"
        }
      ],
      "name": "isApprovedForAll",
      "outputs": [
        {
          "internalType": "bool",
          "name": "",
          "type": "bool"
        }
      ],
      "stateMutability": "view",
      "type": "function",
      "constant": true
    },
    {
      "inputs": [],
      "name": "name",
      "outputs": [
        {
          "internalType": "string",
          "name": "",
          "type": "string"
        }
      ],
      "stateMutability": "view",
      "type": "function",
      "constant": true
    },
    {
      "inputs": [
        {
          "internalType": "uint256",
          "name": "tokenId",
          "type": "uint256"
        }
      ],
      "name": "ownerOf",
      "outputs": [
        {
          "internalType": "address",
          "name": "",
          "type": "address"
        }
      ],
      "stateMutability": "view",
      "type": "function",
      "constant": true
    },
    {
      "inputs": [],
      "name": "pause",
      "outputs": [],
      "stateMutability": "nonpayable",
      "type": "function"
    },
    {
      "inputs": [],
      "name": "paused",
      "outputs": [
        {
          "internalType": "bool",
          "name": "",
          "type": "bool"
        }
      ],
      "stateMutability": "view",
      "type": "function",
      "constant": true
    },
    {
      "inputs": [
        {
          "internalType": "bytes32",
          "name": "role",
          "type": "bytes32"
        },
        {
          "internalType": "address",
          "name": "account",
          "type": "address"
        }
      ],
      "name": "renounceRole",
      "outputs": [],
      "stateMutability": "nonpayable",
      "type": "function"
    },
    {
      "inputs": [
        {
          "internalType": "bytes32",
          "name": "role",
          "type": "bytes32"
        },
        {
          "internalType": "address",
          "name": "account",
          "type": "address"
        }
      ],
      "name": "revokeRole",
      "outputs": [],
      "stateMutability": "nonpayable",
      "type": "function"
    },
    {
      "inputs": [
        {
          "internalType": "address",
          "name": "from",
          "type": "address"
        },
        {
          "internalType": "address",
          "name": "to",
          "type": "address"
        },
        {
          "internalType": "uint256",
          "name": "tokenId",
          "type": "uint256"
        }
      ],
      "name": "safeTransferFrom",
      "outputs": [],
      "stateMutability": "nonpayable",
      "type": "function"
    },
    {
      "inputs": [
        {
          "internalType": "address",
          "name": "from",
          "type": "address"
        },
        {
          "internalType": "address",
          "name": "to",
          "type": "address"
        },
        {
          "internalType": "uint256",
          "name": "tokenId",
          "type": "uint256"
        },
        {
          "internalType": "bytes",
          "name": "_data",
          "type": "bytes"
        }
      ],
      "name": "safeTransferFrom",
      "outputs": [],
      "stateMutability": "nonpayable",
      "type": "function"
    },
    {
      "inputs": [
        {
          "internalType": "address",
          "name": "operator",
          "type": "address"
        },
        {
          "internalType": "bool",
          "name": "approved",
          "type": "bool"
        }
      ],
      "name": "setApprovalForAll",
      "outputs": [],
      "stateMutability": "nonpayable",
      "type": "function"
    },
    {
      "inputs": [],
      "name": "symbol",
      "outputs": [
        {
          "internalType": "string",
          "name": "",
          "type": "string"
        }
      ],
      "stateMutability": "view",
      "type": "function",
      "constant": true
    },
    {
      "inputs": [
        {
          "internalType": "uint256",
          "name": "index",
          "type": "uint256"
        }
      ],
      "name": "tokenByIndex",
      "outputs": [
        {
          "internalType": "uint256",
          "name": "",
          "type": "uint256"
        }
      ],
      "stateMutability": "view",
      "type": "function",
      "constant": true
    },
    {
      "inputs": [
        {
          "internalType": "address",
          "name": "owner",
          "type": "address"
        },
        {
          "internalType": "uint256",
          "name": "index",
          "type": "uint256"
        }
      ],
      "name": "tokenOfOwnerByIndex",
      "outputs": [
        {
          "internalType": "uint256",
          "name": "",
          "type": "uint256"
        }
      ],
      "stateMutability": "view",
      "type": "function",
      "constant": true
    },
    {
      "inputs": [],
      "name": "totalSupply",
      "outputs": [
        {
          "internalType": "uint256",
          "name": "",
          "type": "uint256"
        }
      ],
      "stateMutability": "view",
      "type": "function",
      "constant": true
    },
    {
      "inputs": [
        {
          "internalType": "address",
          "name": "from",
          "type": "address"
        },
        {
          "internalType": "address",
          "name": "to",
          "type": "address"
        },
        {
          "internalType": "uint256",
          "name": "tokenId",
          "type": "uint256"
        }
      ],
      "name": "transferFrom",
      "outputs": [],
      "stateMutability": "nonpayable",
      "type": "function"
    },
    {
      "inputs": [],
      "name": "unpause",
      "outputs": [],
      "stateMutability": "nonpayable",
      "type": "function"
    },
    {
      "inputs": [
        {
          "internalType": "uint256",
          "name": "tokenId",
          "type": "uint256"
        }
      ],
      "name": "tokenURI",
      "outputs": [
        {
          "internalType": "string",
          "name": "",
          "type": "string"
        }
      ],
      "stateMutability": "view",
      "type": "function",
      "constant": true
    },
    {
      "inputs": [
        {
          "internalType": "bytes4",
          "name": "interfaceId",
          "type": "bytes4"
        }
      ],
      "name": "supportsInterface",
      "outputs": [
        {
          "internalType": "bool",
          "name": "",
          "type": "bool"
        }
      ],
      "stateMutability": "view",
      "type": "function",
      "constant": true
    },
    {
      "inputs": [
        {
          "internalType": "address",
          "name": "to",
          "type": "address"
        },
        {
          "internalType": "string",
          "name": "geng",
          "type": "string"
        }
      ],
      "name": "safeMintGeng",
      "outputs": [
        {
          "internalType": "uint256",
          "name": "",
          "type": "uint256"
        }
      ],
      "stateMutability": "nonpayable",
      "type": "function"
    },
    {
      "inputs": [
        {
          "internalType": "string",
          "name": "geng",
          "type": "string"
        }
      ],
      "name": "checkGeng",
      "outputs": [
        {
          "internalType": "bool",
          "name": "",
          "type": "bool"
        }
      ],
      "stateMutability": "view",
      "type": "function",
      "constant": true
    },
    {
      "inputs": [
        {
          "internalType": "uint256",
          "name": "tokenId",
          "type": "uint256"
        }
      ],
      "name": "getGeng",
      "outputs": [
        {
          "internalType": "string",
          "name": "",
          "type": "string"
        }
      ],
      "stateMutability": "view",
      "type": "function",
      "constant": true
    },
    {
      "inputs": [],
      "name": "CloseMintTransfer",
      "outputs": [],
      "stateMutability": "nonpayable",
      "type": "function"
    },
    {
      "inputs": [
        {
          "internalType": "address",
          "name": "from",
          "type": "address"
        },
        {
          "internalType": "address",
          "name": "to",
          "type": "address"
        },
        {
          "internalType": "uint256",
          "name": "tokenId",
          "type": "uint256"
        }
      ],
      "name": "mintTransform",
      "outputs": [],
      "stateMutability": "nonpayable",
      "type": "function"
    },
    {
      "inputs": [
        {
          "internalType": "uint256",
          "name": "tokenId",
          "type": "uint256"
        }
      ],
      "name": "mintBurn",
      "outputs": [],
      "stateMutability": "nonpayable",
      "type": "function"
    }
  ],
  "bytecode": "0x60806040526001600f60006101000a81548160ff0219169083151502179055503480156200002c57600080fd5b506040518060400160405280600481526020017f47656e67000000000000000000000000000000000000000000000000000000008152506040518060400160405280600481526020017f47454e47000000000000000000000000000000000000000000000000000000008152508160009080519060200190620000b192919062000411565b508060019080519060200190620000ca92919062000411565b5050506000600d60006101000a81548160ff021916908315150217905550620000f8620000fe60201b60201c565b62000526565b620001136000801b336200017960201b60201c565b620001457f65d7a28e3265b37a6474929f336521b332c1681b933f6cb9f3376673440d862a336200017960201b60201c565b620001777f9f2df0fed2c77648de5860a4cc508cd0818c85b8b8a1ab4ceeef8d981c8956a6336200017960201b60201c565b565b620001908282620001c160201b620017e41760201c565b620001bc81600c6000858152602001908152602001600020620001d760201b620017f21790919060201c565b505050565b620001d382826200020f60201b60201c565b5050565b600062000207836000018373ffffffffffffffffffffffffffffffffffffffff1660001b6200030160201b60201c565b905092915050565b6200022182826200037b60201b60201c565b620002fd576001600b600084815260200190815260200160002060000160008373ffffffffffffffffffffffffffffffffffffffff1673ffffffffffffffffffffffffffffffffffffffff16815260200190815260200160002060006101000a81548160ff021916908315150217905550620002a2620003e660201b60201c565b73ffffffffffffffffffffffffffffffffffffffff168173ffffffffffffffffffffffffffffffffffffffff16837f2f8788117e7eff1d82e926ec794901d17c78024a50270940304540a733656f0d60405160405180910390a45b5050565b6000620003158383620003ee60201b60201c565b6200037057826000018290806001815401808255809150506001900390600052602060002001600090919091909150558260000180549050836001016000848152602001908152602001600020819055506001905062000375565b600090505b92915050565b6000600b600084815260200190815260200160002060000160008373ffffffffffffffffffffffffffffffffffffffff1673ffffffffffffffffffffffffffffffffffffffff16815260200190815260200160002060009054906101000a900460ff16905092915050565b600033905090565b600080836001016000848152602001908152602001600020541415905092915050565b8280546200041f90620004c1565b90600052602060002090601f0160209004810192826200044357600085556200048f565b82601f106200045e57805160ff19168380011785556200048f565b828001600101855582156200048f579182015b828111156200048e57825182559160200191906001019062000471565b5b5090506200049e9190620004a2565b5090565b5b80821115620004bd576000816000905550600101620004a3565b5090565b60006002820490506001821680620004da57607f821691505b60208210811415620004f157620004f0620004f7565b5b50919050565b7f4e487b7100000000000000000000000000000000000000000000000000000000600052602260045260246000fd5b6151d080620005366000396000f3fe608060405234801561001057600080fd5b50600436106102275760003560e01c80636352211e11610130578063a217fddf116100b8578063d53913931161007c578063d5391393146106aa578063d547741f146106c8578063dceb397f146106e4578063e63ab1e9146106ee578063e985e9c51461070c57610227565b8063a217fddf146105f4578063a22cb46514610612578063b88d4fde1461062e578063c87b56dd1461064a578063ca15c8731461067a57610227565b806388c14cfa116100ff57806388c14cfa146105165780638bcac74c146105465780639010d07c1461057657806391d14854146105a657806395d89b41146105d657610227565b80636352211e1461047c57806370a08231146104ac5780638456cb59146104dc57806385d4651c146104e657610227565b80632f2ff15d116101b35780633f4ba83a116101825780633f4ba83a146103ec57806342842e0e146103f65780634f6ccce71461041257806355e1184d146104425780635c975abb1461045e57610227565b80632f2ff15d146103685780632f745c59146103845780633066ef02146103b457806336568abe146103d057610227565b806309c1d95f116101fa57806309c1d95f146102c657806318160ddd146102e257806323b872dd14610300578063248a9ca31461031c578063261707fa1461034c57610227565b806301ffc9a71461022c57806306fdde031461025c578063081812fc1461027a578063095ea7b3146102aa575b600080fd5b61024660048036038101906102419190613d73565b61073c565b604051610253919061490a565b60405180910390f35b61026461074e565b6040516102719190614940565b60405180910390f35b610294600480360381019061028f9190613e06565b6107e0565b6040516102a191906148a3565b60405180910390f35b6102c460048036038101906102bf9190613c96565b610865565b005b6102e060048036038101906102db9190613ad7565b61097d565b005b6102ea6109e5565b6040516102f79190614c82565b60405180910390f35b61031a60048036038101906103159190613b3c565b6109f2565b005b61033660048036038101906103319190613cd2565b610a52565b6040516103439190614925565b60405180910390f35b61036660048036038101906103619190613ad7565b610a72565b005b610382600480360381019061037d9190613cfb565b610ada565b005b61039e60048036038101906103999190613c96565b610b0e565b6040516103ab9190614c82565b60405180910390f35b6103ce60048036038101906103c99190613b3c565b610bb3565b005b6103ea60048036038101906103e59190613cfb565b610c8b565b005b6103f4610cbf565b005b610410600480360381019061040b9190613b3c565b610cfc565b005b61042c60048036038101906104279190613e06565b610d1c565b6040516104399190614c82565b60405180910390f35b61045c60048036038101906104579190613e06565b610db3565b005b610466610e31565b604051610473919061490a565b60405180910390f35b61049660048036038101906104919190613e06565b610e48565b6040516104a391906148a3565b60405180910390f35b6104c660048036038101906104c19190613ad7565b610efa565b6040516104d39190614c82565b60405180910390f35b6104e4610fb2565b005b61050060048036038101906104fb9190613dc5565b610fef565b60405161050d919061490a565b60405180910390f35b610530600480360381019061052b9190613c42565b61103f565b60405161053d9190614c82565b60405180910390f35b610560600480360381019061055b9190613e06565b61120c565b60405161056d9190614940565b60405180910390f35b610590600480360381019061058b9190613d37565b6112f9565b60405161059d91906148a3565b60405180910390f35b6105c060048036038101906105bb9190613cfb565b611328565b6040516105cd919061490a565b60405180910390f35b6105de611393565b6040516105eb9190614940565b60405180910390f35b6105fc611425565b6040516106099190614925565b60405180910390f35b61062c60048036038101906106279190613c06565b61142c565b005b61064860048036038101906106439190613b8b565b6115ad565b005b610664600480360381019061065f9190613e06565b61160f565b6040516106719190614940565b60405180910390f35b610694600480360381019061068f9190613cd2565b611621565b6040516106a19190614c82565b60405180910390f35b6106b2611645565b6040516106bf9190614925565b60405180910390f35b6106e260048036038101906106dd9190613cfb565b611669565b005b6106ec61169d565b005b6106f661172c565b6040516107039190614925565b60405180910390f35b61072660048036038101906107219190613b00565b611750565b604051610733919061490a565b60405180910390f35b600061074782611822565b9050919050565b60606000805461075d90614fae565b80601f016020809104026020016040519081016040528092919081815260200182805461078990614fae565b80156107d65780601f106107ab576101008083540402835291602001916107d6565b820191906000526020600020905b8154815290600101906020018083116107b957829003601f168201915b5050505050905090565b60006107eb82611834565b61082a576040517f08c379a000000000000000000000000000000000000000000000000000000000815260040161082190614ba2565b60405180910390fd5b6004600083815260200190815260200160002060009054906101000a900473ffffffffffffffffffffffffffffffffffffffff169050919050565b600061087082610e48565b90508073ffffffffffffffffffffffffffffffffffffffff168373ffffffffffffffffffffffffffffffffffffffff1614156108e1576040517f08c379a00000000000000000000000000000000000000000000000000000000081526004016108d890614c02565b60405180910390fd5b8073ffffffffffffffffffffffffffffffffffffffff166109006118a0565b73ffffffffffffffffffffffffffffffffffffffff16148061092f575061092e816109296118a0565b611750565b5b61096e576040517f08c379a000000000000000000000000000000000000000000000000000000000815260040161096590614ae2565b60405180910390fd5b61097883836118a8565b505050565b6109a67f65d7a28e3265b37a6474929f336521b332c1681b933f6cb9f3376673440d862a610a52565b6109b7816109b26118a0565b611961565b6109e17f65d7a28e3265b37a6474929f336521b332c1681b933f6cb9f3376673440d862a836119fe565b5050565b6000600980549050905090565b610a036109fd6118a0565b82611a32565b610a42576040517f08c379a0000000000000000000000000000000000000000000000000000000008152600401610a3990614c22565b60405180910390fd5b610a4d838383611b10565b505050565b6000600b6000838152602001908152602001600020600101549050919050565b610a9b7f9f2df0fed2c77648de5860a4cc508cd0818c85b8b8a1ab4ceeef8d981c8956a6610a52565b610aac81610aa76118a0565b611961565b610ad67f9f2df0fed2c77648de5860a4cc508cd0818c85b8b8a1ab4ceeef8d981c8956a6836119fe565b5050565b610ae48282611d6c565b610b0981600c60008581526020019081526020016000206117f290919063ffffffff16565b505050565b6000610b1983610efa565b8210610b5a576040517f08c379a0000000000000000000000000000000000000000000000000000000008152600401610b51906149c2565b60405180910390fd5b600760008473ffffffffffffffffffffffffffffffffffffffff1673ffffffffffffffffffffffffffffffffffffffff168152602001908152602001600020600083815260200190815260200160002054905092915050565b610bbb610e31565b15610bfb576040517f08c379a0000000000000000000000000000000000000000000000000000000008152600401610bf290614aa2565b60405180910390fd5b610c257f9f2df0fed2c77648de5860a4cc508cd0818c85b8b8a1ab4ceeef8d981c8956a633611961565b60011515600f60009054906101000a900460ff16151514610c7b576040517f08c379a0000000000000000000000000000000000000000000000000000000008152600401610c7290614962565b60405180910390fd5b610c86838383611b10565b505050565b610c958282611d95565b610cba81600c6000858152602001908152602001600020611e1890919063ffffffff16565b505050565b610ce97f65d7a28e3265b37a6474929f336521b332c1681b933f6cb9f3376673440d862a33611328565b610cf257600080fd5b610cfa611e48565b565b610d17838383604051806020016040528060008152506115ad565b505050565b6000610d266109e5565b8210610d67576040517f08c379a0000000000000000000000000000000000000000000000000000000008152600401610d5e90614c42565b60405180910390fd5b60098281548110610da1577f4e487b7100000000000000000000000000000000000000000000000000000000600052603260045260246000fd5b90600052602060002001549050919050565b610dbb610e31565b15610dfb576040517f08c379a0000000000000000000000000000000000000000000000000000000008152600401610df290614aa2565b60405180910390fd5b610e257f9f2df0fed2c77648de5860a4cc508cd0818c85b8b8a1ab4ceeef8d981c8956a633611961565b610e2e81611eea565b50565b6000600d60009054906101000a900460ff16905090565b6000806002600084815260200190815260200160002060009054906101000a900473ffffffffffffffffffffffffffffffffffffffff169050600073ffffffffffffffffffffffffffffffffffffffff168173ffffffffffffffffffffffffffffffffffffffff161415610ef1576040517f08c379a0000000000000000000000000000000000000000000000000000000008152600401610ee890614b42565b60405180910390fd5b80915050919050565b60008073ffffffffffffffffffffffffffffffffffffffff168273ffffffffffffffffffffffffffffffffffffffff161415610f6b576040517f08c379a0000000000000000000000000000000000000000000000000000000008152600401610f6290614b22565b60405180910390fd5b600360008373ffffffffffffffffffffffffffffffffffffffff1673ffffffffffffffffffffffffffffffffffffffff168152602001908152602001600020549050919050565b610fdc7f65d7a28e3265b37a6474929f336521b332c1681b933f6cb9f3376673440d862a33611328565b610fe557600080fd5b610fed611f3e565b565b600080601183604051611002919061482e565b9081526020016040518091039020549050600081111561102657600191505061103a565b6000811161103857600091505061103a565b505b919050565b6000611049610e31565b15611089576040517f08c379a000000000000000000000000000000000000000000000000000000000815260040161108090614aa2565b60405180910390fd5b6110b37f9f2df0fed2c77648de5860a4cc508cd0818c85b8b8a1ab4ceeef8d981c8956a633611961565b6080825111156110f8576040517f08c379a00000000000000000000000000000000000000000000000000000000081526004016110ef90614a82565b60405180910390fd5b600060118360405161110a919061482e565b908152602001604051809103902054111561115a576040517f08c379a000000000000000000000000000000000000000000000000000000000815260040161115190614ac2565b60405180910390fd5b611164600e611fe1565b6000611170600e611ff7565b905061117c8482612005565b826010600083815260200190815260200160002090805190602001906111a39291906138a6565b50806011846040516111b5919061482e565b9081526020016040518091039020819055507f15e20bdb165e6b47692736969e89826f17ed96354755f60c2a7a48d23d9ef7768185856040516111fa93929190614c9d565b60405180910390a18091505092915050565b606061121782611834565b611256576040517f08c379a000000000000000000000000000000000000000000000000000000000815260040161124d90614b02565b60405180910390fd5b60106000838152602001908152602001600020805461127490614fae565b80601f01602080910402602001604051908101604052809291908181526020018280546112a090614fae565b80156112ed5780601f106112c2576101008083540402835291602001916112ed565b820191906000526020600020905b8154815290600101906020018083116112d057829003601f168201915b50505050509050919050565b600061132082600c600086815260200190815260200160002061202390919063ffffffff16565b905092915050565b6000600b600084815260200190815260200160002060000160008373ffffffffffffffffffffffffffffffffffffffff1673ffffffffffffffffffffffffffffffffffffffff16815260200190815260200160002060009054906101000a900460ff16905092915050565b6060600180546113a290614fae565b80601f01602080910402602001604051908101604052809291908181526020018280546113ce90614fae565b801561141b5780601f106113f05761010080835404028352916020019161141b565b820191906000526020600020905b8154815290600101906020018083116113fe57829003601f168201915b5050505050905090565b6000801b81565b6114346118a0565b73ffffffffffffffffffffffffffffffffffffffff168273ffffffffffffffffffffffffffffffffffffffff1614156114a2576040517f08c379a000000000000000000000000000000000000000000000000000000000815260040161149990614a42565b60405180910390fd5b80600560006114af6118a0565b73ffffffffffffffffffffffffffffffffffffffff1673ffffffffffffffffffffffffffffffffffffffff16815260200190815260200160002060008473ffffffffffffffffffffffffffffffffffffffff1673ffffffffffffffffffffffffffffffffffffffff16815260200190815260200160002060006101000a81548160ff0219169083151502179055508173ffffffffffffffffffffffffffffffffffffffff1661155c6118a0565b73ffffffffffffffffffffffffffffffffffffffff167f17307eab39ab6107e8899845ad3d59bd9653f200f220920489ca2b5937696c31836040516115a1919061490a565b60405180910390a35050565b6115be6115b86118a0565b83611a32565b6115fd576040517f08c379a00000000000000000000000000000000000000000000000000000000081526004016115f490614c22565b60405180910390fd5b6116098484848461203d565b50505050565b606061161a82612099565b9050919050565b600061163e600c60008481526020019081526020016000206121eb565b9050919050565b7f9f2df0fed2c77648de5860a4cc508cd0818c85b8b8a1ab4ceeef8d981c8956a681565b6116738282612200565b61169881600c6000858152602001908152602001600020611e1890919063ffffffff16565b505050565b6116a5610e31565b156116e5576040517f08c379a00000000000000000000000000000000000000000000000000000000081526004016116dc90614aa2565b60405180910390fd5b61170f7f9f2df0fed2c77648de5860a4cc508cd0818c85b8b8a1ab4ceeef8d981c8956a633611961565b6000600f60006101000a81548160ff021916908315150217905550565b7f65d7a28e3265b37a6474929f336521b332c1681b933f6cb9f3376673440d862a81565b6000600560008473ffffffffffffffffffffffffffffffffffffffff1673ffffffffffffffffffffffffffffffffffffffff16815260200190815260200160002060008373ffffffffffffffffffffffffffffffffffffffff1673ffffffffffffffffffffffffffffffffffffffff16815260200190815260200160002060009054906101000a900460ff16905092915050565b6117ee8282612229565b5050565b600061181a836000018373ffffffffffffffffffffffffffffffffffffffff1660001b61230a565b905092915050565b600061182d8261237a565b9050919050565b60008073ffffffffffffffffffffffffffffffffffffffff166002600084815260200190815260200160002060009054906101000a900473ffffffffffffffffffffffffffffffffffffffff1673ffffffffffffffffffffffffffffffffffffffff1614159050919050565b600033905090565b816004600083815260200190815260200160002060006101000a81548173ffffffffffffffffffffffffffffffffffffffff021916908373ffffffffffffffffffffffffffffffffffffffff160217905550808273ffffffffffffffffffffffffffffffffffffffff1661191b83610e48565b73ffffffffffffffffffffffffffffffffffffffff167f8c5be1e5ebec7d5bd14f71427d1e84f3dd0314c0f7b2291e5b200ac8c7c3b92560405160405180910390a45050565b61196b8282611328565b6119fa576119908173ffffffffffffffffffffffffffffffffffffffff1660146123f4565b61199e8360001c60206123f4565b6040516020016119af929190614869565b6040516020818303038152906040526040517f08c379a00000000000000000000000000000000000000000000000000000000081526004016119f19190614940565b60405180910390fd5b5050565b611a0882826117e4565b611a2d81600c60008581526020019081526020016000206117f290919063ffffffff16565b505050565b6000611a3d82611834565b611a7c576040517f08c379a0000000000000000000000000000000000000000000000000000000008152600401611a7390614a62565b60405180910390fd5b6000611a8783610e48565b90508073ffffffffffffffffffffffffffffffffffffffff168473ffffffffffffffffffffffffffffffffffffffff161480611af657508373ffffffffffffffffffffffffffffffffffffffff16611ade846107e0565b73ffffffffffffffffffffffffffffffffffffffff16145b80611b075750611b068185611750565b5b91505092915050565b8273ffffffffffffffffffffffffffffffffffffffff16611b3082610e48565b73ffffffffffffffffffffffffffffffffffffffff1614611b86576040517f08c379a0000000000000000000000000000000000000000000000000000000008152600401611b7d90614bc2565b60405180910390fd5b600073ffffffffffffffffffffffffffffffffffffffff168273ffffffffffffffffffffffffffffffffffffffff161415611bf6576040517f08c379a0000000000000000000000000000000000000000000000000000000008152600401611bed90614a22565b60405180910390fd5b611c018383836126ee565b611c0c6000826118a8565b6001600360008573ffffffffffffffffffffffffffffffffffffffff1673ffffffffffffffffffffffffffffffffffffffff1681526020019081526020016000206000828254611c5c9190614e90565b925050819055506001600360008473ffffffffffffffffffffffffffffffffffffffff1673ffffffffffffffffffffffffffffffffffffffff1681526020019081526020016000206000828254611cb39190614daf565b92505081905550816002600083815260200190815260200160002060006101000a81548173ffffffffffffffffffffffffffffffffffffffff021916908373ffffffffffffffffffffffffffffffffffffffff160217905550808273ffffffffffffffffffffffffffffffffffffffff168473ffffffffffffffffffffffffffffffffffffffff167fddf252ad1be2c89b69c2b068fc378daa952ba7f163c4a11628f55a4df523b3ef60405160405180910390a4505050565b611d7582610a52565b611d8681611d816118a0565b611961565b611d908383612229565b505050565b611d9d6118a0565b73ffffffffffffffffffffffffffffffffffffffff168173ffffffffffffffffffffffffffffffffffffffff1614611e0a576040517f08c379a0000000000000000000000000000000000000000000000000000000008152600401611e0190614c62565b60405180910390fd5b611e148282612746565b5050565b6000611e40836000018373ffffffffffffffffffffffffffffffffffffffff1660001b612828565b905092915050565b611e50610e31565b611e8f576040517f08c379a0000000000000000000000000000000000000000000000000000000008152600401611e86906149a2565b60405180910390fd5b6000600d60006101000a81548160ff0219169083151502179055507f5db9ee0a495bf2e6ff9c91a7834c1ba4fdd244a5e8aa4e537bd38aeae4b073aa611ed36118a0565b604051611ee091906148a3565b60405180910390a1565b611ef2610e31565b15611f32576040517f08c379a0000000000000000000000000000000000000000000000000000000008152600401611f2990614aa2565b60405180910390fd5b611f3b816129ae565b50565b611f46610e31565b15611f86576040517f08c379a0000000000000000000000000000000000000000000000000000000008152600401611f7d90614aa2565b60405180910390fd5b6001600d60006101000a81548160ff0219169083151502179055507f62e78cea01bee320cd4e420270b5ea74000d11b0c9f74754ebdbfc544b05a258611fca6118a0565b604051611fd791906148a3565b60405180910390a1565b6001816000016000828254019250508190555050565b600081600001549050919050565b61201f828260405180602001604052806000815250612a01565b5050565b60006120328360000183612a5c565b60001c905092915050565b612048848484611b10565b61205484848484612aad565b612093576040517f08c379a000000000000000000000000000000000000000000000000000000000815260040161208a906149e2565b60405180910390fd5b50505050565b60606120a482611834565b6120e3576040517f08c379a00000000000000000000000000000000000000000000000000000000081526004016120da90614b82565b60405180910390fd5b600060066000848152602001908152602001600020805461210390614fae565b80601f016020809104026020016040519081016040528092919081815260200182805461212f90614fae565b801561217c5780601f106121515761010080835404028352916020019161217c565b820191906000526020600020905b81548152906001019060200180831161215f57829003601f168201915b50505050509050600061218d612c44565b90506000815114156121a35781925050506121e6565b6000825111156121d85780826040516020016121c0929190614845565b604051602081830303815290604052925050506121e6565b6121e184612c5b565b925050505b919050565b60006121f982600001612d02565b9050919050565b61220982610a52565b61221a816122156118a0565b611961565b6122248383612746565b505050565b6122338282611328565b612306576001600b600084815260200190815260200160002060000160008373ffffffffffffffffffffffffffffffffffffffff1673ffffffffffffffffffffffffffffffffffffffff16815260200190815260200160002060006101000a81548160ff0219169083151502179055506122ab6118a0565b73ffffffffffffffffffffffffffffffffffffffff168173ffffffffffffffffffffffffffffffffffffffff16837f2f8788117e7eff1d82e926ec794901d17c78024a50270940304540a733656f0d60405160405180910390a45b5050565b60006123168383612d13565b61236f578260000182908060018154018082558091505060019003906000526020600020016000909190919091505582600001805490508360010160008481526020019081526020016000208190555060019050612374565b600090505b92915050565b60007f5a05180f000000000000000000000000000000000000000000000000000000007bffffffffffffffffffffffffffffffffffffffffffffffffffffffff1916827bffffffffffffffffffffffffffffffffffffffffffffffffffffffff191614806123ed57506123ec82612d36565b5b9050919050565b6060600060028360026124079190614e36565b6124119190614daf565b67ffffffffffffffff811115612450577f4e487b7100000000000000000000000000000000000000000000000000000000600052604160045260246000fd5b6040519080825280601f01601f1916602001820160405280156124825781602001600182028036833780820191505090505b5090507f3000000000000000000000000000000000000000000000000000000000000000816000815181106124e0577f4e487b7100000000000000000000000000000000000000000000000000000000600052603260045260246000fd5b60200101907effffffffffffffffffffffffffffffffffffffffffffffffffffffffffffff1916908160001a9053507f78000000000000000000000000000000000000000000000000000000000000008160018151811061256a577f4e487b7100000000000000000000000000000000000000000000000000000000600052603260045260246000fd5b60200101907effffffffffffffffffffffffffffffffffffffffffffffffffffffffffffff1916908160001a905350600060018460026125aa9190614e36565b6125b49190614daf565b90505b60018111156126a0577f3031323334353637383961626364656600000000000000000000000000000000600f86166010811061261c577f4e487b7100000000000000000000000000000000000000000000000000000000600052603260045260246000fd5b1a60f81b828281518110612659577f4e487b7100000000000000000000000000000000000000000000000000000000600052603260045260246000fd5b60200101907effffffffffffffffffffffffffffffffffffffffffffffffffffffffffffff1916908160001a905350600485901c94508061269990614f84565b90506125b7565b50600084146126e4576040517f08c379a00000000000000000000000000000000000000000000000000000000081526004016126db90614982565b60405180910390fd5b8091505092915050565b6126f6610e31565b15612736576040517f08c379a000000000000000000000000000000000000000000000000000000000815260040161272d90614aa2565b60405180910390fd5b612741838383612db0565b505050565b6127508282611328565b15612824576000600b600084815260200190815260200160002060000160008373ffffffffffffffffffffffffffffffffffffffff1673ffffffffffffffffffffffffffffffffffffffff16815260200190815260200160002060006101000a81548160ff0219169083151502179055506127c96118a0565b73ffffffffffffffffffffffffffffffffffffffff168173ffffffffffffffffffffffffffffffffffffffff16837ff6391f5c32d9c69d2a47ea670b442974b53935d1edc7fd64eb21e047a839171b60405160405180910390a45b5050565b600080836001016000848152602001908152602001600020549050600081146129a257600060018261285a9190614e90565b90506000600186600001805490506128729190614e90565b905081811461292d5760008660000182815481106128b9577f4e487b7100000000000000000000000000000000000000000000000000000000600052603260045260246000fd5b9060005260206000200154905080876000018481548110612903577f4e487b7100000000000000000000000000000000000000000000000000000000600052603260045260246000fd5b90600052602060002001819055508387600101600083815260200190815260200160002081905550505b85600001805480612967577f4e487b7100000000000000000000000000000000000000000000000000000000600052603160045260246000fd5b6001900381819060005260206000200160009055905585600101600086815260200190815260200160002060009055600193505050506129a8565b60009150505b92915050565b6129b781612ec4565b60006006600083815260200190815260200160002080546129d790614fae565b9050146129fe576006600082815260200190815260200160002060006129fd919061392c565b5b50565b612a0b8383612fd5565b612a186000848484612aad565b612a57576040517f08c379a0000000000000000000000000000000000000000000000000000000008152600401612a4e906149e2565b60405180910390fd5b505050565b6000826000018281548110612a9a577f4e487b7100000000000000000000000000000000000000000000000000000000600052603260045260246000fd5b9060005260206000200154905092915050565b6000612ace8473ffffffffffffffffffffffffffffffffffffffff166131a3565b15612c37578373ffffffffffffffffffffffffffffffffffffffff1663150b7a02612af76118a0565b8786866040518563ffffffff1660e01b8152600401612b1994939291906148be565b602060405180830381600087803b158015612b3357600080fd5b505af1925050508015612b6457506040513d601f19601f82011682018060405250810190612b619190613d9c565b60015b612be7573d8060008114612b94576040519150601f19603f3d011682016040523d82523d6000602084013e612b99565b606091505b50600081511415612bdf576040517f08c379a0000000000000000000000000000000000000000000000000000000008152600401612bd6906149e2565b60405180910390fd5b805181602001fd5b63150b7a0260e01b7bffffffffffffffffffffffffffffffffffffffffffffffffffffffff1916817bffffffffffffffffffffffffffffffffffffffffffffffffffffffff191614915050612c3c565b600190505b949350505050565b606060405180602001604052806000815250905090565b6060612c6682611834565b612ca5576040517f08c379a0000000000000000000000000000000000000000000000000000000008152600401612c9c90614be2565b60405180910390fd5b6000612caf612c44565b90506000815111612ccf5760405180602001604052806000815250612cfa565b80612cd9846131b6565b604051602001612cea929190614845565b6040516020818303038152906040525b915050919050565b600081600001805490509050919050565b600080836001016000848152602001908152602001600020541415905092915050565b60007f7965db0b000000000000000000000000000000000000000000000000000000007bffffffffffffffffffffffffffffffffffffffffffffffffffffffff1916827bffffffffffffffffffffffffffffffffffffffffffffffffffffffff19161480612da95750612da882613363565b5b9050919050565b612dbb8383836133dd565b600073ffffffffffffffffffffffffffffffffffffffff168373ffffffffffffffffffffffffffffffffffffffff161415612dfe57612df9816133e2565b612e3d565b8173ffffffffffffffffffffffffffffffffffffffff168373ffffffffffffffffffffffffffffffffffffffff1614612e3c57612e3b838261342b565b5b5b600073ffffffffffffffffffffffffffffffffffffffff168273ffffffffffffffffffffffffffffffffffffffff161415612e8057612e7b81613598565b612ebf565b8273ffffffffffffffffffffffffffffffffffffffff168273ffffffffffffffffffffffffffffffffffffffff1614612ebe57612ebd82826136db565b5b5b505050565b6000612ecf82610e48565b9050612edd816000846126ee565b612ee86000836118a8565b6001600360008373ffffffffffffffffffffffffffffffffffffffff1673ffffffffffffffffffffffffffffffffffffffff1681526020019081526020016000206000828254612f389190614e90565b925050819055506002600083815260200190815260200160002060006101000a81549073ffffffffffffffffffffffffffffffffffffffff021916905581600073ffffffffffffffffffffffffffffffffffffffff168273ffffffffffffffffffffffffffffffffffffffff167fddf252ad1be2c89b69c2b068fc378daa952ba7f163c4a11628f55a4df523b3ef60405160405180910390a45050565b600073ffffffffffffffffffffffffffffffffffffffff168273ffffffffffffffffffffffffffffffffffffffff161415613045576040517f08c379a000000000000000000000000000000000000000000000000000000000815260040161303c90614b62565b60405180910390fd5b61304e81611834565b1561308e576040517f08c379a000000000000000000000000000000000000000000000000000000000815260040161308590614a02565b60405180910390fd5b61309a600083836126ee565b6001600360008473ffffffffffffffffffffffffffffffffffffffff1673ffffffffffffffffffffffffffffffffffffffff16815260200190815260200160002060008282546130ea9190614daf565b92505081905550816002600083815260200190815260200160002060006101000a81548173ffffffffffffffffffffffffffffffffffffffff021916908373ffffffffffffffffffffffffffffffffffffffff160217905550808273ffffffffffffffffffffffffffffffffffffffff16600073ffffffffffffffffffffffffffffffffffffffff167fddf252ad1be2c89b69c2b068fc378daa952ba7f163c4a11628f55a4df523b3ef60405160405180910390a45050565b600080823b905060008111915050919050565b606060008214156131fe576040518060400160405280600181526020017f3000000000000000000000000000000000000000000000000000000000000000815250905061335e565b600082905060005b6000821461323057808061321990614fe0565b915050600a826132299190614e05565b9150613206565b60008167ffffffffffffffff811115613272577f4e487b7100000000000000000000000000000000000000000000000000000000600052604160045260246000fd5b6040519080825280601f01601f1916602001820160405280156132a45781602001600182028036833780820191505090505b5090505b60008514613357576001826132bd9190614e90565b9150600a856132cc9190615029565b60306132d89190614daf565b60f81b818381518110613314577f4e487b7100000000000000000000000000000000000000000000000000000000600052603260045260246000fd5b60200101907effffffffffffffffffffffffffffffffffffffffffffffffffffffffffffff1916908160001a905350600a856133509190614e05565b94506132a8565b8093505050505b919050565b60007f780e9d63000000000000000000000000000000000000000000000000000000007bffffffffffffffffffffffffffffffffffffffffffffffffffffffff1916827bffffffffffffffffffffffffffffffffffffffffffffffffffffffff191614806133d657506133d58261375a565b5b9050919050565b505050565b600980549050600a600083815260200190815260200160002081905550600981908060018154018082558091505060019003906000526020600020016000909190919091505550565b6000600161343884610efa565b6134429190614e90565b9050600060086000848152602001908152602001600020549050818114613527576000600760008673ffffffffffffffffffffffffffffffffffffffff1673ffffffffffffffffffffffffffffffffffffffff168152602001908152602001600020600084815260200190815260200160002054905080600760008773ffffffffffffffffffffffffffffffffffffffff1673ffffffffffffffffffffffffffffffffffffffff168152602001908152602001600020600084815260200190815260200160002081905550816008600083815260200190815260200160002081905550505b6008600084815260200190815260200160002060009055600760008573ffffffffffffffffffffffffffffffffffffffff1673ffffffffffffffffffffffffffffffffffffffff16815260200190815260200160002060008381526020019081526020016000206000905550505050565b600060016009805490506135ac9190614e90565b90506000600a6000848152602001908152602001600020549050600060098381548110613602577f4e487b7100000000000000000000000000000000000000000000000000000000600052603260045260246000fd5b90600052602060002001549050806009838154811061364a577f4e487b7100000000000000000000000000000000000000000000000000000000600052603260045260246000fd5b906000526020600020018190555081600a600083815260200190815260200160002081905550600a60008581526020019081526020016000206000905560098054806136bf577f4e487b7100000000000000000000000000000000000000000000000000000000600052603160045260246000fd5b6001900381819060005260206000200160009055905550505050565b60006136e683610efa565b905081600760008573ffffffffffffffffffffffffffffffffffffffff1673ffffffffffffffffffffffffffffffffffffffff168152602001908152602001600020600083815260200190815260200160002081905550806008600084815260200190815260200160002081905550505050565b60007f80ac58cd000000000000000000000000000000000000000000000000000000007bffffffffffffffffffffffffffffffffffffffffffffffffffffffff1916827bffffffffffffffffffffffffffffffffffffffffffffffffffffffff1916148061382557507f5b5e139f000000000000000000000000000000000000000000000000000000007bffffffffffffffffffffffffffffffffffffffffffffffffffffffff1916827bffffffffffffffffffffffffffffffffffffffffffffffffffffffff1916145b8061383557506138348261383c565b5b9050919050565b60007f01ffc9a7000000000000000000000000000000000000000000000000000000007bffffffffffffffffffffffffffffffffffffffffffffffffffffffff1916827bffffffffffffffffffffffffffffffffffffffffffffffffffffffff1916149050919050565b8280546138b290614fae565b90600052602060002090601f0160209004810192826138d4576000855561391b565b82601f106138ed57805160ff191683800117855561391b565b8280016001018555821561391b579182015b8281111561391a5782518255916020019190600101906138ff565b5b509050613928919061396c565b5090565b50805461393890614fae565b6000825580601f1061394a5750613969565b601f016020900490600052602060002090810190613968919061396c565b5b50565b5b8082111561398557600081600090555060010161396d565b5090565b600061399c61399784614d0c565b614cdb565b9050828152602081018484840111156139b457600080fd5b6139bf848285614f42565b509392505050565b60006139da6139d584614d3c565b614cdb565b9050828152602081018484840111156139f257600080fd5b6139fd848285614f42565b509392505050565b600081359050613a1481615127565b92915050565b600081359050613a298161513e565b92915050565b600081359050613a3e81615155565b92915050565b600081359050613a538161516c565b92915050565b600081519050613a688161516c565b92915050565b600082601f830112613a7f57600080fd5b8135613a8f848260208601613989565b91505092915050565b600082601f830112613aa957600080fd5b8135613ab98482602086016139c7565b91505092915050565b600081359050613ad181615183565b92915050565b600060208284031215613ae957600080fd5b6000613af784828501613a05565b91505092915050565b60008060408385031215613b1357600080fd5b6000613b2185828601613a05565b9250506020613b3285828601613a05565b9150509250929050565b600080600060608486031215613b5157600080fd5b6000613b5f86828701613a05565b9350506020613b7086828701613a05565b9250506040613b8186828701613ac2565b9150509250925092565b60008060008060808587031215613ba157600080fd5b6000613baf87828801613a05565b9450506020613bc087828801613a05565b9350506040613bd187828801613ac2565b925050606085013567ffffffffffffffff811115613bee57600080fd5b613bfa87828801613a6e565b91505092959194509250565b60008060408385031215613c1957600080fd5b6000613c2785828601613a05565b9250506020613c3885828601613a1a565b9150509250929050565b60008060408385031215613c5557600080fd5b6000613c6385828601613a05565b925050602083013567ffffffffffffffff811115613c8057600080fd5b613c8c85828601613a98565b9150509250929050565b60008060408385031215613ca957600080fd5b6000613cb785828601613a05565b9250506020613cc885828601613ac2565b9150509250929050565b600060208284031215613ce457600080fd5b6000613cf284828501613a2f565b91505092915050565b60008060408385031215613d0e57600080fd5b6000613d1c85828601613a2f565b9250506020613d2d85828601613a05565b9150509250929050565b60008060408385031215613d4a57600080fd5b6000613d5885828601613a2f565b9250506020613d6985828601613ac2565b9150509250929050565b600060208284031215613d8557600080fd5b6000613d9384828501613a44565b91505092915050565b600060208284031215613dae57600080fd5b6000613dbc84828501613a59565b91505092915050565b600060208284031215613dd757600080fd5b600082013567ffffffffffffffff811115613df157600080fd5b613dfd84828501613a98565b91505092915050565b600060208284031215613e1857600080fd5b6000613e2684828501613ac2565b91505092915050565b613e3881614ec4565b82525050565b613e4781614ed6565b82525050565b613e5681614ee2565b82525050565b6000613e6782614d6c565b613e718185614d82565b9350613e81818560208601614f51565b613e8a81615116565b840191505092915050565b6000613ea082614d77565b613eaa8185614d93565b9350613eba818560208601614f51565b613ec381615116565b840191505092915050565b6000613ed982614d77565b613ee38185614da4565b9350613ef3818560208601614f51565b80840191505092915050565b6000613f0c602183614d93565b91507f63616e2774207472616e73666572207768656e20666c616720697320636c6f7360008301527f65000000000000000000000000000000000000000000000000000000000000006020830152604082019050919050565b6000613f72602083614d93565b91507f537472696e67733a20686578206c656e67746820696e73756666696369656e746000830152602082019050919050565b6000613fb2601483614d93565b91507f5061757361626c653a206e6f74207061757365640000000000000000000000006000830152602082019050919050565b6000613ff2602b83614d93565b91507f455243373231456e756d657261626c653a206f776e657220696e646578206f7560008301527f74206f6620626f756e64730000000000000000000000000000000000000000006020830152604082019050919050565b6000614058603283614d93565b91507f4552433732313a207472616e7366657220746f206e6f6e20455243373231526560008301527f63656976657220696d706c656d656e74657200000000000000000000000000006020830152604082019050919050565b60006140be601c83614d93565b91507f4552433732313a20746f6b656e20616c7265616479206d696e746564000000006000830152602082019050919050565b60006140fe602483614d93565b91507f4552433732313a207472616e7366657220746f20746865207a65726f2061646460008301527f72657373000000000000000000000000000000000000000000000000000000006020830152604082019050919050565b6000614164601983614d93565b91507f4552433732313a20617070726f766520746f2063616c6c6572000000000000006000830152602082019050919050565b60006141a4602c83614d93565b91507f4552433732313a206f70657261746f7220717565727920666f72206e6f6e657860008301527f697374656e7420746f6b656e00000000000000000000000000000000000000006020830152604082019050919050565b600061420a601c83614d93565b91507f67656e67206f7665722062797465733332206c656e67746820313238000000006000830152602082019050919050565b600061424a601083614d93565b91507f5061757361626c653a20706175736564000000000000000000000000000000006000830152602082019050919050565b600061428a601f83614d93565b91507f746869732067656e6720616c7265616479206d696e7420696e20636861696e006000830152602082019050919050565b60006142ca603883614d93565b91507f4552433732313a20617070726f76652063616c6c6572206973206e6f74206f7760008301527f6e6572206e6f7220617070726f76656420666f7220616c6c00000000000000006020830152604082019050919050565b6000614330601183614d93565b91507f4e6f6e6578697374656e7420746f6b656e0000000000000000000000000000006000830152602082019050919050565b6000614370602a83614d93565b91507f4552433732313a2062616c616e636520717565727920666f7220746865207a6560008301527f726f2061646472657373000000000000000000000000000000000000000000006020830152604082019050919050565b60006143d6602983614d93565b91507f4552433732313a206f776e657220717565727920666f72206e6f6e657869737460008301527f656e7420746f6b656e00000000000000000000000000000000000000000000006020830152604082019050919050565b600061443c602083614d93565b91507f4552433732313a206d696e7420746f20746865207a65726f20616464726573736000830152602082019050919050565b600061447c603183614d93565b91507f45524337323155524953746f726167653a2055524920717565727920666f722060008301527f6e6f6e6578697374656e7420746f6b656e0000000000000000000000000000006020830152604082019050919050565b60006144e2602c83614d93565b91507f4552433732313a20617070726f76656420717565727920666f72206e6f6e657860008301527f697374656e7420746f6b656e00000000000000000000000000000000000000006020830152604082019050919050565b6000614548602983614d93565b91507f4552433732313a207472616e73666572206f6620746f6b656e2074686174206960008301527f73206e6f74206f776e00000000000000000000000000000000000000000000006020830152604082019050919050565b60006145ae602f83614d93565b91507f4552433732314d657461646174613a2055524920717565727920666f72206e6f60008301527f6e6578697374656e7420746f6b656e00000000000000000000000000000000006020830152604082019050919050565b6000614614602183614d93565b91507f4552433732313a20617070726f76616c20746f2063757272656e74206f776e6560008301527f72000000000000000000000000000000000000000000000000000000000000006020830152604082019050919050565b600061467a603183614d93565b91507f4552433732313a207472616e736665722063616c6c6572206973206e6f74206f60008301527f776e6572206e6f7220617070726f7665640000000000000000000000000000006020830152604082019050919050565b60006146e0602c83614d93565b91507f455243373231456e756d657261626c653a20676c6f62616c20696e646578206f60008301527f7574206f6620626f756e647300000000000000000000000000000000000000006020830152604082019050919050565b6000614746601783614da4565b91507f416363657373436f6e74726f6c3a206163636f756e74200000000000000000006000830152601782019050919050565b6000614786601183614da4565b91507f206973206d697373696e6720726f6c65200000000000000000000000000000006000830152601182019050919050565b60006147c6602f83614d93565b91507f416363657373436f6e74726f6c3a2063616e206f6e6c792072656e6f756e636560008301527f20726f6c657320666f722073656c6600000000000000000000000000000000006020830152604082019050919050565b61482881614f38565b82525050565b600061483a8284613ece565b915081905092915050565b60006148518285613ece565b915061485d8284613ece565b91508190509392505050565b600061487482614739565b91506148808285613ece565b915061488b82614779565b91506148978284613ece565b91508190509392505050565b60006020820190506148b86000830184613e2f565b92915050565b60006080820190506148d36000830187613e2f565b6148e06020830186613e2f565b6148ed604083018561481f565b81810360608301526148ff8184613e5c565b905095945050505050565b600060208201905061491f6000830184613e3e565b92915050565b600060208201905061493a6000830184613e4d565b92915050565b6000602082019050818103600083015261495a8184613e95565b905092915050565b6000602082019050818103600083015261497b81613eff565b9050919050565b6000602082019050818103600083015261499b81613f65565b9050919050565b600060208201905081810360008301526149bb81613fa5565b9050919050565b600060208201905081810360008301526149db81613fe5565b9050919050565b600060208201905081810360008301526149fb8161404b565b9050919050565b60006020820190508181036000830152614a1b816140b1565b9050919050565b60006020820190508181036000830152614a3b816140f1565b9050919050565b60006020820190508181036000830152614a5b81614157565b9050919050565b60006020820190508181036000830152614a7b81614197565b9050919050565b60006020820190508181036000830152614a9b816141fd565b9050919050565b60006020820190508181036000830152614abb8161423d565b9050919050565b60006020820190508181036000830152614adb8161427d565b9050919050565b60006020820190508181036000830152614afb816142bd565b9050919050565b60006020820190508181036000830152614b1b81614323565b9050919050565b60006020820190508181036000830152614b3b81614363565b9050919050565b60006020820190508181036000830152614b5b816143c9565b9050919050565b60006020820190508181036000830152614b7b8161442f565b9050919050565b60006020820190508181036000830152614b9b8161446f565b9050919050565b60006020820190508181036000830152614bbb816144d5565b9050919050565b60006020820190508181036000830152614bdb8161453b565b9050919050565b60006020820190508181036000830152614bfb816145a1565b9050919050565b60006020820190508181036000830152614c1b81614607565b9050919050565b60006020820190508181036000830152614c3b8161466d565b9050919050565b60006020820190508181036000830152614c5b816146d3565b9050919050565b60006020820190508181036000830152614c7b816147b9565b9050919050565b6000602082019050614c97600083018461481f565b92915050565b6000606082019050614cb2600083018661481f565b614cbf6020830185613e2f565b8181036040830152614cd18184613e95565b9050949350505050565b6000604051905081810181811067ffffffffffffffff82111715614d0257614d016150e7565b5b8060405250919050565b600067ffffffffffffffff821115614d2757614d266150e7565b5b601f19601f8301169050602081019050919050565b600067ffffffffffffffff821115614d5757614d566150e7565b5b601f19601f8301169050602081019050919050565b600081519050919050565b600081519050919050565b600082825260208201905092915050565b600082825260208201905092915050565b600081905092915050565b6000614dba82614f38565b9150614dc583614f38565b9250827fffffffffffffffffffffffffffffffffffffffffffffffffffffffffffffffff03821115614dfa57614df961505a565b5b828201905092915050565b6000614e1082614f38565b9150614e1b83614f38565b925082614e2b57614e2a615089565b5b828204905092915050565b6000614e4182614f38565b9150614e4c83614f38565b9250817fffffffffffffffffffffffffffffffffffffffffffffffffffffffffffffffff0483118215151615614e8557614e8461505a565b5b828202905092915050565b6000614e9b82614f38565b9150614ea683614f38565b925082821015614eb957614eb861505a565b5b828203905092915050565b6000614ecf82614f18565b9050919050565b60008115159050919050565b6000819050919050565b60007fffffffff0000000000000000000000000000000000000000000000000000000082169050919050565b600073ffffffffffffffffffffffffffffffffffffffff82169050919050565b6000819050919050565b82818337600083830152505050565b60005b83811015614f6f578082015181840152602081019050614f54565b83811115614f7e576000848401525b50505050565b6000614f8f82614f38565b91506000821415614fa357614fa261505a565b5b600182039050919050565b60006002820490506001821680614fc657607f821691505b60208210811415614fda57614fd96150b8565b5b50919050565b6000614feb82614f38565b91507fffffffffffffffffffffffffffffffffffffffffffffffffffffffffffffffff82141561501e5761501d61505a565b5b600182019050919050565b600061503482614f38565b915061503f83614f38565b92508261504f5761504e615089565b5b828206905092915050565b7f4e487b7100000000000000000000000000000000000000000000000000000000600052601160045260246000fd5b7f4e487b7100000000000000000000000000000000000000000000000000000000600052601260045260246000fd5b7f4e487b7100000000000000000000000000000000000000000000000000000000600052602260045260246000fd5b7f4e487b7100000000000000000000000000000000000000000000000000000000600052604160045260246000fd5b6000601f19601f8301169050919050565b61513081614ec4565b811461513b57600080fd5b50565b61514781614ed6565b811461515257600080fd5b50565b61515e81614ee2565b811461516957600080fd5b50565b61517581614eec565b811461518057600080fd5b50565b61518c81614f38565b811461519757600080fd5b5056fea264697066735822122038e9eea211e9185326d180d8689f040bd7f768e85a7ef27c1871448fdf3e0f6a64736f6c63430008000033",
  "immutableReferences": {},
  "source": "// SPDX-License-Identifier: MIT\npragma solidity ^0.8.0;\n\nimport \"@openzeppelin/contracts/token/ERC721/extensions/ERC721Enumerable.sol\";\nimport \"@openzeppelin/contracts/token/ERC721/extensions/ERC721URIStorage.sol\";\nimport \"@openzeppelin/contracts/utils/Counters.sol\";\nimport \"./base/SecurityBase.sol\";\n\ncontract Geng is ERC721URIStorage, ERC721Enumerable, SecurityBase\n{\n    using Counters for Counters.Counter;\n    Counters.Counter private _tokenIds;\n    bool private transferFlag = true;\n\n    mapping(uint256 => string) private _GengMap;\n    mapping(string => uint256) private _CheckGengMap;\n\n    event GengCreated(uint256 tokenId, address owner, string geng);\n\n    constructor() ERC721(\"Geng\", \"GENG\") {\n    }\n\n\n    function _beforeTokenTransfer(address from, address to, uint256 tokenId)\n        internal\n        whenNotPaused\n        override(ERC721, ERC721Enumerable)\n    {\n        super._beforeTokenTransfer(from, to, tokenId);\n    }\n\n    function _burn(uint256 tokenId) internal whenNotPaused override(ERC721, ERC721URIStorage) {\n        super._burn(tokenId);\n    }\n\n    function tokenURI(uint256 tokenId)\n        public\n        view\n        override(ERC721, ERC721URIStorage)\n        returns (string memory)\n    {\n        return super.tokenURI(tokenId);\n    }\n\n    function supportsInterface(bytes4 interfaceId)\n        public\n        view\n        override(ERC721, ERC721Enumerable, SecurityBase)\n        returns (bool)\n    {\n        return super.supportsInterface(interfaceId);\n    }\n    \n    function safeMintGeng(address to, string memory geng) public whenNotPaused onlyMinter returns (uint256) {\n        require(bytes(geng).length <= 128, \"geng over bytes32 length 128\");\n        require(_CheckGengMap[geng] <= 0, \"this geng already mint in chain\");\n        _tokenIds.increment();\n        uint256 tokenId = _tokenIds.current();\n        _safeMint(to, tokenId);\n        _GengMap[tokenId] = geng;\n        _CheckGengMap[geng] = tokenId;\n        emit GengCreated(tokenId, to, geng);\n        return tokenId;\n    }\n\n    function checkGeng(string memory geng) public view returns (bool) {\n        uint256 _tokenId = _CheckGengMap[geng];\n        if (_tokenId > 0){\n            return true;\n        }\n        if (_tokenId <= 0){\n            return false;\n        }\n    }\n\n    function getGeng(uint256 tokenId) public view returns (string memory) {\n        require(_exists(tokenId), \"Nonexistent token\");\n        return _GengMap[tokenId];\n    }\n\n    function CloseMintTransfer() public whenNotPaused onlyMinter {\n        transferFlag = false;\n    }\n\n    function mintTransform(address from, address to, uint256 tokenId) public whenNotPaused onlyMinter {\n        require(transferFlag == true, \"can't transfer when flag is close\");\n        _transfer(from, to, tokenId);\n    }\n\n    function mintBurn(uint256 tokenId) public whenNotPaused onlyMinter {\n        _burn(tokenId);\n    }\n}\n",
  "sourcePath": "/Users/fank/code/freedom/geng-contracts/contracts/Geng.sol",
  "compiler": {
    "name": "solc",
    "version": "0.8.0+commit.c7dfd78e.Emscripten.clang"
  },
  "schemaVersion": "3.4.3",
  "updatedAt": "2021-11-12T13:21:15.751Z",
  "networkType": "ethereum",
  "devdoc": {
    "kind": "dev",
    "methods": {
      "approve(address,uint256)": {
        "details": "See {IERC721-approve}."
      },
      "balanceOf(address)": {
        "details": "See {IERC721-balanceOf}."
      },
      "getApproved(uint256)": {
        "details": "See {IERC721-getApproved}."
      },
      "getRoleAdmin(bytes32)": {
        "details": "Returns the admin role that controls `role`. See {grantRole} and {revokeRole}. To change a role's admin, use {_setRoleAdmin}."
      },
      "getRoleMember(bytes32,uint256)": {
        "details": "Returns one of the accounts that have `role`. `index` must be a value between 0 and {getRoleMemberCount}, non-inclusive. Role bearers are not sorted in any particular way, and their ordering may change at any point. WARNING: When using {getRoleMember} and {getRoleMemberCount}, make sure you perform all queries on the same block. See the following https://forum.openzeppelin.com/t/iterating-over-elements-on-enumerableset-in-openzeppelin-contracts/2296[forum post] for more information."
      },
      "getRoleMemberCount(bytes32)": {
        "details": "Returns the number of accounts that have `role`. Can be used together with {getRoleMember} to enumerate all bearers of a role."
      },
      "grantRole(bytes32,address)": {
        "details": "Overload {grantRole} to track enumerable memberships"
      },
      "hasRole(bytes32,address)": {
        "details": "Returns `true` if `account` has been granted `role`."
      },
      "isApprovedForAll(address,address)": {
        "details": "See {IERC721-isApprovedForAll}."
      },
      "name()": {
        "details": "See {IERC721Metadata-name}."
      },
      "ownerOf(uint256)": {
        "details": "See {IERC721-ownerOf}."
      },
      "paused()": {
        "details": "Returns true if the contract is paused, and false otherwise."
      },
      "renounceRole(bytes32,address)": {
        "details": "Overload {renounceRole} to track enumerable memberships"
      },
      "revokeRole(bytes32,address)": {
        "details": "Overload {revokeRole} to track enumerable memberships"
      },
      "safeTransferFrom(address,address,uint256)": {
        "details": "See {IERC721-safeTransferFrom}."
      },
      "safeTransferFrom(address,address,uint256,bytes)": {
        "details": "See {IERC721-safeTransferFrom}."
      },
      "setApprovalForAll(address,bool)": {
        "details": "See {IERC721-setApprovalForAll}."
      },
      "symbol()": {
        "details": "See {IERC721Metadata-symbol}."
      },
      "tokenByIndex(uint256)": {
        "details": "See {IERC721Enumerable-tokenByIndex}."
      },
      "tokenOfOwnerByIndex(address,uint256)": {
        "details": "See {IERC721Enumerable-tokenOfOwnerByIndex}."
      },
      "totalSupply()": {
        "details": "See {IERC721Enumerable-totalSupply}."
      },
      "transferFrom(address,address,uint256)": {
        "details": "See {IERC721-transferFrom}."
      }
    },
    "version": 1
  },
  "userdoc": {
    "kind": "user",
    "methods": {},
    "version": 1
  }
}