{
  "contractName": "Geng",
  "abi": [
    {
      "inputs": [],
      "stateMutability": "nonpayable",
      "type": "constructor"
    },
    {
      "anonymous": false,
      "inputs": [
        {
          "indexed": true,
          "internalType": "address",
          "name": "owner",
          "type": "address"
        },
        {
          "indexed": true,
          "internalType": "address",
          "name": "approved",
          "type": "address"
        },
        {
          "indexed": true,
          "internalType": "uint256",
          "name": "tokenId",
          "type": "uint256"
        }
      ],
      "name": "Approval",
      "type": "event"
    },
    {
      "anonymous": false,
      "inputs": [
        {
          "indexed": true,
          "internalType": "address",
          "name": "owner",
          "type": "address"
        },
        {
          "indexed": true,
          "internalType": "address",
          "name": "operator",
          "type": "address"
        },
        {
          "indexed": false,
          "internalType": "bool",
          "name": "approved",
          "type": "bool"
        }
      ],
      "name": "ApprovalForAll",
      "type": "event"
    },
    {
      "anonymous": false,
      "inputs": [
        {
          "indexed": false,
          "internalType": "uint256",
          "name": "tokenId",
          "type": "uint256"
        },
        {
          "indexed": false,
          "internalType": "address",
          "name": "owner",
          "type": "address"
        },
        {
          "indexed": false,
          "internalType": "string",
          "name": "geng",
          "type": "string"
        }
      ],
      "name": "GengCreated",
      "type": "event"
    },
    {
      "anonymous": false,
      "inputs": [
        {
          "indexed": false,
          "internalType": "address",
          "name": "account",
          "type": "address"
        }
      ],
      "name": "Paused",
      "type": "event"
    },
    {
      "anonymous": false,
      "inputs": [
        {
          "indexed": true,
          "internalType": "bytes32",
          "name": "role",
          "type": "bytes32"
        },
        {
          "indexed": true,
          "internalType": "bytes32",
          "name": "previousAdminRole",
          "type": "bytes32"
        },
        {
          "indexed": true,
          "internalType": "bytes32",
          "name": "newAdminRole",
          "type": "bytes32"
        }
      ],
      "name": "RoleAdminChanged",
      "type": "event"
    },
    {
      "anonymous": false,
      "inputs": [
        {
          "indexed": true,
          "internalType": "bytes32",
          "name": "role",
          "type": "bytes32"
        },
        {
          "indexed": true,
          "internalType": "address",
          "name": "account",
          "type": "address"
        },
        {
          "indexed": true,
          "internalType": "address",
          "name": "sender",
          "type": "address"
        }
      ],
      "name": "RoleGranted",
      "type": "event"
    },
    {
      "anonymous": false,
      "inputs": [
        {
          "indexed": true,
          "internalType": "bytes32",
          "name": "role",
          "type": "bytes32"
        },
        {
          "indexed": true,
          "internalType": "address",
          "name": "account",
          "type": "address"
        },
        {
          "indexed": true,
          "internalType": "address",
          "name": "sender",
          "type": "address"
        }
      ],
      "name": "RoleRevoked",
      "type": "event"
    },
    {
      "anonymous": false,
      "inputs": [
        {
          "indexed": true,
          "internalType": "address",
          "name": "from",
          "type": "address"
        },
        {
          "indexed": true,
          "internalType": "address",
          "name": "to",
          "type": "address"
        },
        {
          "indexed": true,
          "internalType": "uint256",
          "name": "tokenId",
          "type": "uint256"
        }
      ],
      "name": "Transfer",
      "type": "event"
    },
    {
      "anonymous": false,
      "inputs": [
        {
          "indexed": false,
          "internalType": "address",
          "name": "account",
          "type": "address"
        }
      ],
      "name": "Unpaused",
      "type": "event"
    },
    {
      "inputs": [],
      "name": "DEFAULT_ADMIN_ROLE",
      "outputs": [
        {
          "internalType": "bytes32",
          "name": "",
          "type": "bytes32"
        }
      ],
      "stateMutability": "view",
      "type": "function",
      "constant": true
    },
    {
      "inputs": [],
      "name": "MINTER_ROLE",
      "outputs": [
        {
          "internalType": "bytes32",
          "name": "",
          "type": "bytes32"
        }
      ],
      "stateMutability": "view",
      "type": "function",
      "constant": true
    },
    {
      "inputs": [],
      "name": "PAUSER_ROLE",
      "outputs": [
        {
          "internalType": "bytes32",
          "name": "",
          "type": "bytes32"
        }
      ],
      "stateMutability": "view",
      "type": "function",
      "constant": true
    },
    {
      "inputs": [
        {
          "internalType": "address",
          "name": "to",
          "type": "address"
        },
        {
          "internalType": "uint256",
          "name": "tokenId",
          "type": "uint256"
        }
      ],
      "name": "approve",
      "outputs": [],
      "stateMutability": "nonpayable",
      "type": "function"
    },
    {
      "inputs": [
        {
          "internalType": "address",
          "name": "owner",
          "type": "address"
        }
      ],
      "name": "balanceOf",
      "outputs": [
        {
          "internalType": "uint256",
          "name": "",
          "type": "uint256"
        }
      ],
      "stateMutability": "view",
      "type": "function",
      "constant": true
    },
    {
      "inputs": [
        {
          "internalType": "uint256",
          "name": "tokenId",
          "type": "uint256"
        }
      ],
      "name": "getApproved",
      "outputs": [
        {
          "internalType": "address",
          "name": "",
          "type": "address"
        }
      ],
      "stateMutability": "view",
      "type": "function",
      "constant": true
    },
    {
      "inputs": [
        {
          "internalType": "bytes32",
          "name": "role",
          "type": "bytes32"
        }
      ],
      "name": "getRoleAdmin",
      "outputs": [
        {
          "internalType": "bytes32",
          "name": "",
          "type": "bytes32"
        }
      ],
      "stateMutability": "view",
      "type": "function",
      "constant": true
    },
    {
      "inputs": [
        {
          "internalType": "bytes32",
          "name": "role",
          "type": "bytes32"
        },
        {
          "internalType": "uint256",
          "name": "index",
          "type": "uint256"
        }
      ],
      "name": "getRoleMember",
      "outputs": [
        {
          "internalType": "address",
          "name": "",
          "type": "address"
        }
      ],
      "stateMutability": "view",
      "type": "function",
      "constant": true
    },
    {
      "inputs": [
        {
          "internalType": "bytes32",
          "name": "role",
          "type": "bytes32"
        }
      ],
      "name": "getRoleMemberCount",
      "outputs": [
        {
          "internalType": "uint256",
          "name": "",
          "type": "uint256"
        }
      ],
      "stateMutability": "view",
      "type": "function",
      "constant": true
    },
    {
      "inputs": [
        {
          "internalType": "address",
          "name": "account",
          "type": "address"
        }
      ],
      "name": "grantMinter",
      "outputs": [],
      "stateMutability": "nonpayable",
      "type": "function"
    },
    {
      "inputs": [
        {
          "internalType": "address",
          "name": "account",
          "type": "address"
        }
      ],
      "name": "grantPauser",
      "outputs": [],
      "stateMutability": "nonpayable",
      "type": "function"
    },
    {
      "inputs": [
        {
          "internalType": "bytes32",
          "name": "role",
          "type": "bytes32"
        },
        {
          "internalType": "address",
          "name": "account",
          "type": "address"
        }
      ],
      "name": "grantRole",
      "outputs": [],
      "stateMutability": "nonpayable",
      "type": "function"
    },
    {
      "inputs": [
        {
          "internalType": "bytes32",
          "name": "role",
          "type": "bytes32"
        },
        {
          "internalType": "address",
          "name": "account",
          "type": "address"
        }
      ],
      "name": "hasRole",
      "outputs": [
        {
          "internalType": "bool",
          "name": "",
          "type": "bool"
        }
      ],
      "stateMutability": "view",
      "type": "function",
      "constant": true
    },
    {
      "inputs": [
        {
          "internalType": "address",
          "name": "owner",
          "type": "address"
        },
        {
          "internalType": "address",
          "name": "operator",
          "type": "address"
        }
      ],
      "name": "isApprovedForAll",
      "outputs": [
        {
          "internalType": "bool",
          "name": "",
          "type": "bool"
        }
      ],
      "stateMutability": "view",
      "type": "function",
      "constant": true
    },
    {
      "inputs": [],
      "name": "name",
      "outputs": [
        {
          "internalType": "string",
          "name": "",
          "type": "string"
        }
      ],
      "stateMutability": "view",
      "type": "function",
      "constant": true
    },
    {
      "inputs": [
        {
          "internalType": "uint256",
          "name": "tokenId",
          "type": "uint256"
        }
      ],
      "name": "ownerOf",
      "outputs": [
        {
          "internalType": "address",
          "name": "",
          "type": "address"
        }
      ],
      "stateMutability": "view",
      "type": "function",
      "constant": true
    },
    {
      "inputs": [],
      "name": "pause",
      "outputs": [],
      "stateMutability": "nonpayable",
      "type": "function"
    },
    {
      "inputs": [],
      "name": "paused",
      "outputs": [
        {
          "internalType": "bool",
          "name": "",
          "type": "bool"
        }
      ],
      "stateMutability": "view",
      "type": "function",
      "constant": true
    },
    {
      "inputs": [
        {
          "internalType": "bytes32",
          "name": "role",
          "type": "bytes32"
        },
        {
          "internalType": "address",
          "name": "account",
          "type": "address"
        }
      ],
      "name": "renounceRole",
      "outputs": [],
      "stateMutability": "nonpayable",
      "type": "function"
    },
    {
      "inputs": [
        {
          "internalType": "bytes32",
          "name": "role",
          "type": "bytes32"
        },
        {
          "internalType": "address",
          "name": "account",
          "type": "address"
        }
      ],
      "name": "revokeRole",
      "outputs": [],
      "stateMutability": "nonpayable",
      "type": "function"
    },
    {
      "inputs": [
        {
          "internalType": "address",
          "name": "from",
          "type": "address"
        },
        {
          "internalType": "address",
          "name": "to",
          "type": "address"
        },
        {
          "internalType": "uint256",
          "name": "tokenId",
          "type": "uint256"
        }
      ],
      "name": "safeTransferFrom",
      "outputs": [],
      "stateMutability": "nonpayable",
      "type": "function"
    },
    {
      "inputs": [
        {
          "internalType": "address",
          "name": "from",
          "type": "address"
        },
        {
          "internalType": "address",
          "name": "to",
          "type": "address"
        },
        {
          "internalType": "uint256",
          "name": "tokenId",
          "type": "uint256"
        },
        {
          "internalType": "bytes",
          "name": "_data",
          "type": "bytes"
        }
      ],
      "name": "safeTransferFrom",
      "outputs": [],
      "stateMutability": "nonpayable",
      "type": "function"
    },
    {
      "inputs": [
        {
          "internalType": "address",
          "name": "operator",
          "type": "address"
        },
        {
          "internalType": "bool",
          "name": "approved",
          "type": "bool"
        }
      ],
      "name": "setApprovalForAll",
      "outputs": [],
      "stateMutability": "nonpayable",
      "type": "function"
    },
    {
      "inputs": [],
      "name": "symbol",
      "outputs": [
        {
          "internalType": "string",
          "name": "",
          "type": "string"
        }
      ],
      "stateMutability": "view",
      "type": "function",
      "constant": true
    },
    {
      "inputs": [
        {
          "internalType": "uint256",
          "name": "index",
          "type": "uint256"
        }
      ],
      "name": "tokenByIndex",
      "outputs": [
        {
          "internalType": "uint256",
          "name": "",
          "type": "uint256"
        }
      ],
      "stateMutability": "view",
      "type": "function",
      "constant": true
    },
    {
      "inputs": [
        {
          "internalType": "address",
          "name": "owner",
          "type": "address"
        },
        {
          "internalType": "uint256",
          "name": "index",
          "type": "uint256"
        }
      ],
      "name": "tokenOfOwnerByIndex",
      "outputs": [
        {
          "internalType": "uint256",
          "name": "",
          "type": "uint256"
        }
      ],
      "stateMutability": "view",
      "type": "function",
      "constant": true
    },
    {
      "inputs": [],
      "name": "totalSupply",
      "outputs": [
        {
          "internalType": "uint256",
          "name": "",
          "type": "uint256"
        }
      ],
      "stateMutability": "view",
      "type": "function",
      "constant": true
    },
    {
      "inputs": [
        {
          "internalType": "address",
          "name": "from",
          "type": "address"
        },
        {
          "internalType": "address",
          "name": "to",
          "type": "address"
        },
        {
          "internalType": "uint256",
          "name": "tokenId",
          "type": "uint256"
        }
      ],
      "name": "transferFrom",
      "outputs": [],
      "stateMutability": "nonpayable",
      "type": "function"
    },
    {
      "inputs": [],
      "name": "unpause",
      "outputs": [],
      "stateMutability": "nonpayable",
      "type": "function"
    },
    {
      "inputs": [
        {
          "internalType": "uint256",
          "name": "tokenId",
          "type": "uint256"
        }
      ],
      "name": "tokenURI",
      "outputs": [
        {
          "internalType": "string",
          "name": "",
          "type": "string"
        }
      ],
      "stateMutability": "view",
      "type": "function",
      "constant": true
    },
    {
      "inputs": [
        {
          "internalType": "bytes4",
          "name": "interfaceId",
          "type": "bytes4"
        }
      ],
      "name": "supportsInterface",
      "outputs": [
        {
          "internalType": "bool",
          "name": "",
          "type": "bool"
        }
      ],
      "stateMutability": "view",
      "type": "function",
      "constant": true
    },
    {
      "inputs": [
        {
          "internalType": "address",
          "name": "to",
          "type": "address"
        },
        {
          "internalType": "string",
          "name": "geng",
          "type": "string"
        }
      ],
      "name": "safeMintGeng",
      "outputs": [
        {
          "internalType": "uint256",
          "name": "",
          "type": "uint256"
        }
      ],
      "stateMutability": "nonpayable",
      "type": "function"
    },
    {
      "inputs": [
        {
          "internalType": "address",
          "name": "from",
          "type": "address"
        },
        {
          "internalType": "address",
          "name": "to",
          "type": "address"
        },
        {
          "internalType": "uint256",
          "name": "tokenId",
          "type": "uint256"
        }
      ],
      "name": "mintTransform",
      "outputs": [],
      "stateMutability": "nonpayable",
      "type": "function"
    },
    {
      "inputs": [
        {
          "internalType": "uint256",
          "name": "tokenId",
          "type": "uint256"
        }
      ],
      "name": "mintBurn",
      "outputs": [],
      "stateMutability": "nonpayable",
      "type": "function"
    }
  ],
  "bytecode": "0x60806040523480156200001157600080fd5b506040518060400160405280600481526020017f47656e67000000000000000000000000000000000000000000000000000000008152506040518060400160405280600481526020017f47454e4700000000000000000000000000000000000000000000000000000000815250816000908051906020019062000096929190620003f6565b508060019080519060200190620000af929190620003f6565b5050506000600d60006101000a81548160ff021916908315150217905550620000dd620000e360201b60201c565b6200050b565b620000f86000801b336200015e60201b60201c565b6200012a7f65d7a28e3265b37a6474929f336521b332c1681b933f6cb9f3376673440d862a336200015e60201b60201c565b6200015c7f9f2df0fed2c77648de5860a4cc508cd0818c85b8b8a1ab4ceeef8d981c8956a6336200015e60201b60201c565b565b620001758282620001a660201b620014fc1760201c565b620001a181600c6000858152602001908152602001600020620001bc60201b6200150a1790919060201c565b505050565b620001b88282620001f460201b60201c565b5050565b6000620001ec836000018373ffffffffffffffffffffffffffffffffffffffff1660001b620002e660201b60201c565b905092915050565b6200020682826200036060201b60201c565b620002e2576001600b600084815260200190815260200160002060000160008373ffffffffffffffffffffffffffffffffffffffff1673ffffffffffffffffffffffffffffffffffffffff16815260200190815260200160002060006101000a81548160ff02191690831515021790555062000287620003cb60201b60201c565b73ffffffffffffffffffffffffffffffffffffffff168173ffffffffffffffffffffffffffffffffffffffff16837f2f8788117e7eff1d82e926ec794901d17c78024a50270940304540a733656f0d60405160405180910390a45b5050565b6000620002fa8383620003d360201b60201c565b620003555782600001829080600181540180825580915050600190039060005260206000200160009091909190915055826000018054905083600101600084815260200190815260200160002081905550600190506200035a565b600090505b92915050565b6000600b600084815260200190815260200160002060000160008373ffffffffffffffffffffffffffffffffffffffff1673ffffffffffffffffffffffffffffffffffffffff16815260200190815260200160002060009054906101000a900460ff16905092915050565b600033905090565b600080836001016000848152602001908152602001600020541415905092915050565b8280546200040490620004a6565b90600052602060002090601f01602090048101928262000428576000855562000474565b82601f106200044357805160ff191683800117855562000474565b8280016001018555821562000474579182015b828111156200047357825182559160200191906001019062000456565b5b50905062000483919062000487565b5090565b5b80821115620004a257600081600090555060010162000488565b5090565b60006002820490506001821680620004bf57607f821691505b60208210811415620004d657620004d5620004dc565b5b50919050565b7f4e487b7100000000000000000000000000000000000000000000000000000000600052602260045260246000fd5b614d83806200051b6000396000f3fe608060405234801561001057600080fd5b50600436106102065760003560e01c80635c975abb1161011a578063a217fddf116100ad578063ca15c8731161007c578063ca15c873146105f9578063d539139314610629578063d547741f14610647578063e63ab1e914610663578063e985e9c51461068157610206565b8063a217fddf14610573578063a22cb46514610591578063b88d4fde146105ad578063c87b56dd146105c957610206565b806388c14cfa116100e957806388c14cfa146104c55780639010d07c146104f557806391d148541461052557806395d89b411461055557610206565b80635c975abb1461043d5780636352211e1461045b57806370a082311461048b5780638456cb59146104bb57610206565b8063261707fa1161019d57806336568abe1161016c57806336568abe146103af5780633f4ba83a146103cb57806342842e0e146103d55780634f6ccce7146103f157806355e1184d1461042157610206565b8063261707fa1461032b5780632f2ff15d146103475780632f745c59146103635780633066ef021461039357610206565b806309c1d95f116101d957806309c1d95f146102a557806318160ddd146102c157806323b872dd146102df578063248a9ca3146102fb57610206565b806301ffc9a71461020b57806306fdde031461023b578063081812fc14610259578063095ea7b314610289575b600080fd5b61022560048036038101906102209190613a8b565b6106b1565b604051610232919061453b565b60405180910390f35b6102436106c3565b6040516102509190614571565b60405180910390f35b610273600480360381019061026e9190613add565b610755565b60405161028091906144d4565b60405180910390f35b6102a3600480360381019061029e91906139ae565b6107da565b005b6102bf60048036038101906102ba91906137ef565b6108f2565b005b6102c961095a565b6040516102d69190614873565b60405180910390f35b6102f960048036038101906102f49190613854565b610967565b005b610315600480360381019061031091906139ea565b6109c7565b6040516103229190614556565b60405180910390f35b610345600480360381019061034091906137ef565b6109e7565b005b610361600480360381019061035c9190613a13565b610a4f565b005b61037d600480360381019061037891906139ae565b610a83565b60405161038a9190614873565b60405180910390f35b6103ad60048036038101906103a89190613854565b610b28565b005b6103c960048036038101906103c49190613a13565b610baa565b005b6103d3610bde565b005b6103ef60048036038101906103ea9190613854565b610c1b565b005b61040b60048036038101906104069190613add565b610c3b565b6040516104189190614873565b60405180910390f35b61043b60048036038101906104369190613add565b610cd2565b005b610445610d50565b604051610452919061453b565b60405180910390f35b61047560048036038101906104709190613add565b610d67565b60405161048291906144d4565b60405180910390f35b6104a560048036038101906104a091906137ef565b610e19565b6040516104b29190614873565b60405180910390f35b6104c3610ed1565b005b6104df60048036038101906104da919061395a565b610f0e565b6040516104ec9190614873565b60405180910390f35b61050f600480360381019061050a9190613a4f565b6110a0565b60405161051c91906144d4565b60405180910390f35b61053f600480360381019061053a9190613a13565b6110cf565b60405161054c919061453b565b60405180910390f35b61055d61113a565b60405161056a9190614571565b60405180910390f35b61057b6111cc565b6040516105889190614556565b60405180910390f35b6105ab60048036038101906105a6919061391e565b6111d3565b005b6105c760048036038101906105c291906138a3565b611354565b005b6105e360048036038101906105de9190613add565b6113b6565b6040516105f09190614571565b60405180910390f35b610613600480360381019061060e91906139ea565b6113c8565b6040516106209190614873565b60405180910390f35b6106316113ec565b60405161063e9190614556565b60405180910390f35b610661600480360381019061065c9190613a13565b611410565b005b61066b611444565b6040516106789190614556565b60405180910390f35b61069b60048036038101906106969190613818565b611468565b6040516106a8919061453b565b60405180910390f35b60006106bc8261153a565b9050919050565b6060600080546106d290614b61565b80601f01602080910402602001604051908101604052809291908181526020018280546106fe90614b61565b801561074b5780601f106107205761010080835404028352916020019161074b565b820191906000526020600020905b81548152906001019060200180831161072e57829003601f168201915b5050505050905090565b60006107608261154c565b61079f576040517f08c379a000000000000000000000000000000000000000000000000000000000815260040161079690614793565b60405180910390fd5b6004600083815260200190815260200160002060009054906101000a900473ffffffffffffffffffffffffffffffffffffffff169050919050565b60006107e582610d67565b90508073ffffffffffffffffffffffffffffffffffffffff168373ffffffffffffffffffffffffffffffffffffffff161415610856576040517f08c379a000000000000000000000000000000000000000000000000000000000815260040161084d906147f3565b60405180910390fd5b8073ffffffffffffffffffffffffffffffffffffffff166108756115b8565b73ffffffffffffffffffffffffffffffffffffffff1614806108a457506108a38161089e6115b8565b611468565b5b6108e3576040517f08c379a00000000000000000000000000000000000000000000000000000000081526004016108da906146f3565b60405180910390fd5b6108ed83836115c0565b505050565b61091b7f65d7a28e3265b37a6474929f336521b332c1681b933f6cb9f3376673440d862a6109c7565b61092c816109276115b8565b611679565b6109567f65d7a28e3265b37a6474929f336521b332c1681b933f6cb9f3376673440d862a83611716565b5050565b6000600980549050905090565b6109786109726115b8565b8261174a565b6109b7576040517f08c379a00000000000000000000000000000000000000000000000000000000081526004016109ae90614813565b60405180910390fd5b6109c2838383611828565b505050565b6000600b6000838152602001908152602001600020600101549050919050565b610a107f9f2df0fed2c77648de5860a4cc508cd0818c85b8b8a1ab4ceeef8d981c8956a66109c7565b610a2181610a1c6115b8565b611679565b610a4b7f9f2df0fed2c77648de5860a4cc508cd0818c85b8b8a1ab4ceeef8d981c8956a683611716565b5050565b610a598282611a84565b610a7e81600c600085815260200190815260200160002061150a90919063ffffffff16565b505050565b6000610a8e83610e19565b8210610acf576040517f08c379a0000000000000000000000000000000000000000000000000000000008152600401610ac6906145d3565b60405180910390fd5b600760008473ffffffffffffffffffffffffffffffffffffffff1673ffffffffffffffffffffffffffffffffffffffff168152602001908152602001600020600083815260200190815260200160002054905092915050565b610b30610d50565b15610b70576040517f08c379a0000000000000000000000000000000000000000000000000000000008152600401610b67906146b3565b60405180910390fd5b610b9a7f9f2df0fed2c77648de5860a4cc508cd0818c85b8b8a1ab4ceeef8d981c8956a633611679565b610ba5838383611828565b505050565b610bb48282611aad565b610bd981600c6000858152602001908152602001600020611b3090919063ffffffff16565b505050565b610c087f65d7a28e3265b37a6474929f336521b332c1681b933f6cb9f3376673440d862a336110cf565b610c1157600080fd5b610c19611b60565b565b610c3683838360405180602001604052806000815250611354565b505050565b6000610c4561095a565b8210610c86576040517f08c379a0000000000000000000000000000000000000000000000000000000008152600401610c7d90614833565b60405180910390fd5b60098281548110610cc0577f4e487b7100000000000000000000000000000000000000000000000000000000600052603260045260246000fd5b90600052602060002001549050919050565b610cda610d50565b15610d1a576040517f08c379a0000000000000000000000000000000000000000000000000000000008152600401610d11906146b3565b60405180910390fd5b610d447f9f2df0fed2c77648de5860a4cc508cd0818c85b8b8a1ab4ceeef8d981c8956a633611679565b610d4d81611c02565b50565b6000600d60009054906101000a900460ff16905090565b6000806002600084815260200190815260200160002060009054906101000a900473ffffffffffffffffffffffffffffffffffffffff169050600073ffffffffffffffffffffffffffffffffffffffff168173ffffffffffffffffffffffffffffffffffffffff161415610e10576040517f08c379a0000000000000000000000000000000000000000000000000000000008152600401610e0790614733565b60405180910390fd5b80915050919050565b60008073ffffffffffffffffffffffffffffffffffffffff168273ffffffffffffffffffffffffffffffffffffffff161415610e8a576040517f08c379a0000000000000000000000000000000000000000000000000000000008152600401610e8190614713565b60405180910390fd5b600360008373ffffffffffffffffffffffffffffffffffffffff1673ffffffffffffffffffffffffffffffffffffffff168152602001908152602001600020549050919050565b610efb7f65d7a28e3265b37a6474929f336521b332c1681b933f6cb9f3376673440d862a336110cf565b610f0457600080fd5b610f0c611c56565b565b6000610f18610d50565b15610f58576040517f08c379a0000000000000000000000000000000000000000000000000000000008152600401610f4f906146b3565b60405180910390fd5b610f827f9f2df0fed2c77648de5860a4cc508cd0818c85b8b8a1ab4ceeef8d981c8956a633611679565b608082511115610fc7576040517f08c379a0000000000000000000000000000000000000000000000000000000008152600401610fbe90614693565b60405180910390fd5b6000601083604051610fd9919061445f565b9081526020016040518091039020541115611029576040517f08c379a0000000000000000000000000000000000000000000000000000000008152600401611020906146d3565b60405180910390fd5b611033600e611cf9565b600061103f600e611d0f565b905061104b8482611d1d565b82600f600083815260200190815260200160002090805190602001906110729291906135be565b5080601084604051611084919061445f565b9081526020016040518091039020819055508091505092915050565b60006110c782600c6000868152602001908152602001600020611d3b90919063ffffffff16565b905092915050565b6000600b600084815260200190815260200160002060000160008373ffffffffffffffffffffffffffffffffffffffff1673ffffffffffffffffffffffffffffffffffffffff16815260200190815260200160002060009054906101000a900460ff16905092915050565b60606001805461114990614b61565b80601f016020809104026020016040519081016040528092919081815260200182805461117590614b61565b80156111c25780601f10611197576101008083540402835291602001916111c2565b820191906000526020600020905b8154815290600101906020018083116111a557829003601f168201915b5050505050905090565b6000801b81565b6111db6115b8565b73ffffffffffffffffffffffffffffffffffffffff168273ffffffffffffffffffffffffffffffffffffffff161415611249576040517f08c379a000000000000000000000000000000000000000000000000000000000815260040161124090614653565b60405180910390fd5b80600560006112566115b8565b73ffffffffffffffffffffffffffffffffffffffff1673ffffffffffffffffffffffffffffffffffffffff16815260200190815260200160002060008473ffffffffffffffffffffffffffffffffffffffff1673ffffffffffffffffffffffffffffffffffffffff16815260200190815260200160002060006101000a81548160ff0219169083151502179055508173ffffffffffffffffffffffffffffffffffffffff166113036115b8565b73ffffffffffffffffffffffffffffffffffffffff167f17307eab39ab6107e8899845ad3d59bd9653f200f220920489ca2b5937696c3183604051611348919061453b565b60405180910390a35050565b61136561135f6115b8565b8361174a565b6113a4576040517f08c379a000000000000000000000000000000000000000000000000000000000815260040161139b90614813565b60405180910390fd5b6113b084848484611d55565b50505050565b60606113c182611db1565b9050919050565b60006113e5600c6000848152602001908152602001600020611f03565b9050919050565b7f9f2df0fed2c77648de5860a4cc508cd0818c85b8b8a1ab4ceeef8d981c8956a681565b61141a8282611f18565b61143f81600c6000858152602001908152602001600020611b3090919063ffffffff16565b505050565b7f65d7a28e3265b37a6474929f336521b332c1681b933f6cb9f3376673440d862a81565b6000600560008473ffffffffffffffffffffffffffffffffffffffff1673ffffffffffffffffffffffffffffffffffffffff16815260200190815260200160002060008373ffffffffffffffffffffffffffffffffffffffff1673ffffffffffffffffffffffffffffffffffffffff16815260200190815260200160002060009054906101000a900460ff16905092915050565b6115068282611f41565b5050565b6000611532836000018373ffffffffffffffffffffffffffffffffffffffff1660001b612022565b905092915050565b600061154582612092565b9050919050565b60008073ffffffffffffffffffffffffffffffffffffffff166002600084815260200190815260200160002060009054906101000a900473ffffffffffffffffffffffffffffffffffffffff1673ffffffffffffffffffffffffffffffffffffffff1614159050919050565b600033905090565b816004600083815260200190815260200160002060006101000a81548173ffffffffffffffffffffffffffffffffffffffff021916908373ffffffffffffffffffffffffffffffffffffffff160217905550808273ffffffffffffffffffffffffffffffffffffffff1661163383610d67565b73ffffffffffffffffffffffffffffffffffffffff167f8c5be1e5ebec7d5bd14f71427d1e84f3dd0314c0f7b2291e5b200ac8c7c3b92560405160405180910390a45050565b61168382826110cf565b611712576116a88173ffffffffffffffffffffffffffffffffffffffff16601461210c565b6116b68360001c602061210c565b6040516020016116c792919061449a565b6040516020818303038152906040526040517f08c379a00000000000000000000000000000000000000000000000000000000081526004016117099190614571565b60405180910390fd5b5050565b61172082826114fc565b61174581600c600085815260200190815260200160002061150a90919063ffffffff16565b505050565b60006117558261154c565b611794576040517f08c379a000000000000000000000000000000000000000000000000000000000815260040161178b90614673565b60405180910390fd5b600061179f83610d67565b90508073ffffffffffffffffffffffffffffffffffffffff168473ffffffffffffffffffffffffffffffffffffffff16148061180e57508373ffffffffffffffffffffffffffffffffffffffff166117f684610755565b73ffffffffffffffffffffffffffffffffffffffff16145b8061181f575061181e8185611468565b5b91505092915050565b8273ffffffffffffffffffffffffffffffffffffffff1661184882610d67565b73ffffffffffffffffffffffffffffffffffffffff161461189e576040517f08c379a0000000000000000000000000000000000000000000000000000000008152600401611895906147b3565b60405180910390fd5b600073ffffffffffffffffffffffffffffffffffffffff168273ffffffffffffffffffffffffffffffffffffffff16141561190e576040517f08c379a000000000000000000000000000000000000000000000000000000000815260040161190590614633565b60405180910390fd5b611919838383612406565b6119246000826115c0565b6001600360008573ffffffffffffffffffffffffffffffffffffffff1673ffffffffffffffffffffffffffffffffffffffff16815260200190815260200160002060008282546119749190614a43565b925050819055506001600360008473ffffffffffffffffffffffffffffffffffffffff1673ffffffffffffffffffffffffffffffffffffffff16815260200190815260200160002060008282546119cb9190614962565b92505081905550816002600083815260200190815260200160002060006101000a81548173ffffffffffffffffffffffffffffffffffffffff021916908373ffffffffffffffffffffffffffffffffffffffff160217905550808273ffffffffffffffffffffffffffffffffffffffff168473ffffffffffffffffffffffffffffffffffffffff167fddf252ad1be2c89b69c2b068fc378daa952ba7f163c4a11628f55a4df523b3ef60405160405180910390a4505050565b611a8d826109c7565b611a9e81611a996115b8565b611679565b611aa88383611f41565b505050565b611ab56115b8565b73ffffffffffffffffffffffffffffffffffffffff168173ffffffffffffffffffffffffffffffffffffffff1614611b22576040517f08c379a0000000000000000000000000000000000000000000000000000000008152600401611b1990614853565b60405180910390fd5b611b2c828261245e565b5050565b6000611b58836000018373ffffffffffffffffffffffffffffffffffffffff1660001b612540565b905092915050565b611b68610d50565b611ba7576040517f08c379a0000000000000000000000000000000000000000000000000000000008152600401611b9e906145b3565b60405180910390fd5b6000600d60006101000a81548160ff0219169083151502179055507f5db9ee0a495bf2e6ff9c91a7834c1ba4fdd244a5e8aa4e537bd38aeae4b073aa611beb6115b8565b604051611bf891906144d4565b60405180910390a1565b611c0a610d50565b15611c4a576040517f08c379a0000000000000000000000000000000000000000000000000000000008152600401611c41906146b3565b60405180910390fd5b611c53816126c6565b50565b611c5e610d50565b15611c9e576040517f08c379a0000000000000000000000000000000000000000000000000000000008152600401611c95906146b3565b60405180910390fd5b6001600d60006101000a81548160ff0219169083151502179055507f62e78cea01bee320cd4e420270b5ea74000d11b0c9f74754ebdbfc544b05a258611ce26115b8565b604051611cef91906144d4565b60405180910390a1565b6001816000016000828254019250508190555050565b600081600001549050919050565b611d37828260405180602001604052806000815250612719565b5050565b6000611d4a8360000183612774565b60001c905092915050565b611d60848484611828565b611d6c848484846127c5565b611dab576040517f08c379a0000000000000000000000000000000000000000000000000000000008152600401611da2906145f3565b60405180910390fd5b50505050565b6060611dbc8261154c565b611dfb576040517f08c379a0000000000000000000000000000000000000000000000000000000008152600401611df290614773565b60405180910390fd5b6000600660008481526020019081526020016000208054611e1b90614b61565b80601f0160208091040260200160405190810160405280929190818152602001828054611e4790614b61565b8015611e945780601f10611e6957610100808354040283529160200191611e94565b820191906000526020600020905b815481529060010190602001808311611e7757829003601f168201915b505050505090506000611ea561295c565b9050600081511415611ebb578192505050611efe565b600082511115611ef0578082604051602001611ed8929190614476565b60405160208183030381529060405292505050611efe565b611ef984612973565b925050505b919050565b6000611f1182600001612a1a565b9050919050565b611f21826109c7565b611f3281611f2d6115b8565b611679565b611f3c838361245e565b505050565b611f4b82826110cf565b61201e576001600b600084815260200190815260200160002060000160008373ffffffffffffffffffffffffffffffffffffffff1673ffffffffffffffffffffffffffffffffffffffff16815260200190815260200160002060006101000a81548160ff021916908315150217905550611fc36115b8565b73ffffffffffffffffffffffffffffffffffffffff168173ffffffffffffffffffffffffffffffffffffffff16837f2f8788117e7eff1d82e926ec794901d17c78024a50270940304540a733656f0d60405160405180910390a45b5050565b600061202e8383612a2b565b61208757826000018290806001815401808255809150506001900390600052602060002001600090919091909150558260000180549050836001016000848152602001908152602001600020819055506001905061208c565b600090505b92915050565b60007f5a05180f000000000000000000000000000000000000000000000000000000007bffffffffffffffffffffffffffffffffffffffffffffffffffffffff1916827bffffffffffffffffffffffffffffffffffffffffffffffffffffffff19161480612105575061210482612a4e565b5b9050919050565b60606000600283600261211f91906149e9565b6121299190614962565b67ffffffffffffffff811115612168577f4e487b7100000000000000000000000000000000000000000000000000000000600052604160045260246000fd5b6040519080825280601f01601f19166020018201604052801561219a5781602001600182028036833780820191505090505b5090507f3000000000000000000000000000000000000000000000000000000000000000816000815181106121f8577f4e487b7100000000000000000000000000000000000000000000000000000000600052603260045260246000fd5b60200101907effffffffffffffffffffffffffffffffffffffffffffffffffffffffffffff1916908160001a9053507f780000000000000000000000000000000000000000000000000000000000000081600181518110612282577f4e487b7100000000000000000000000000000000000000000000000000000000600052603260045260246000fd5b60200101907effffffffffffffffffffffffffffffffffffffffffffffffffffffffffffff1916908160001a905350600060018460026122c291906149e9565b6122cc9190614962565b90505b60018111156123b8577f3031323334353637383961626364656600000000000000000000000000000000600f861660108110612334577f4e487b7100000000000000000000000000000000000000000000000000000000600052603260045260246000fd5b1a60f81b828281518110612371577f4e487b7100000000000000000000000000000000000000000000000000000000600052603260045260246000fd5b60200101907effffffffffffffffffffffffffffffffffffffffffffffffffffffffffffff1916908160001a905350600485901c9450806123b190614b37565b90506122cf565b50600084146123fc576040517f08c379a00000000000000000000000000000000000000000000000000000000081526004016123f390614593565b60405180910390fd5b8091505092915050565b61240e610d50565b1561244e576040517f08c379a0000000000000000000000000000000000000000000000000000000008152600401612445906146b3565b60405180910390fd5b612459838383612ac8565b505050565b61246882826110cf565b1561253c576000600b600084815260200190815260200160002060000160008373ffffffffffffffffffffffffffffffffffffffff1673ffffffffffffffffffffffffffffffffffffffff16815260200190815260200160002060006101000a81548160ff0219169083151502179055506124e16115b8565b73ffffffffffffffffffffffffffffffffffffffff168173ffffffffffffffffffffffffffffffffffffffff16837ff6391f5c32d9c69d2a47ea670b442974b53935d1edc7fd64eb21e047a839171b60405160405180910390a45b5050565b600080836001016000848152602001908152602001600020549050600081146126ba5760006001826125729190614a43565b905060006001866000018054905061258a9190614a43565b90508181146126455760008660000182815481106125d1577f4e487b7100000000000000000000000000000000000000000000000000000000600052603260045260246000fd5b906000526020600020015490508087600001848154811061261b577f4e487b7100000000000000000000000000000000000000000000000000000000600052603260045260246000fd5b90600052602060002001819055508387600101600083815260200190815260200160002081905550505b8560000180548061267f577f4e487b7100000000000000000000000000000000000000000000000000000000600052603160045260246000fd5b6001900381819060005260206000200160009055905585600101600086815260200190815260200160002060009055600193505050506126c0565b60009150505b92915050565b6126cf81612bdc565b60006006600083815260200190815260200160002080546126ef90614b61565b905014612716576006600082815260200190815260200160002060006127159190613644565b5b50565b6127238383612ced565b61273060008484846127c5565b61276f576040517f08c379a0000000000000000000000000000000000000000000000000000000008152600401612766906145f3565b60405180910390fd5b505050565b60008260000182815481106127b2577f4e487b7100000000000000000000000000000000000000000000000000000000600052603260045260246000fd5b9060005260206000200154905092915050565b60006127e68473ffffffffffffffffffffffffffffffffffffffff16612ebb565b1561294f578373ffffffffffffffffffffffffffffffffffffffff1663150b7a0261280f6115b8565b8786866040518563ffffffff1660e01b815260040161283194939291906144ef565b602060405180830381600087803b15801561284b57600080fd5b505af192505050801561287c57506040513d601f19601f820116820180604052508101906128799190613ab4565b60015b6128ff573d80600081146128ac576040519150601f19603f3d011682016040523d82523d6000602084013e6128b1565b606091505b506000815114156128f7576040517f08c379a00000000000000000000000000000000000000000000000000000000081526004016128ee906145f3565b60405180910390fd5b805181602001fd5b63150b7a0260e01b7bffffffffffffffffffffffffffffffffffffffffffffffffffffffff1916817bffffffffffffffffffffffffffffffffffffffffffffffffffffffff191614915050612954565b600190505b949350505050565b606060405180602001604052806000815250905090565b606061297e8261154c565b6129bd576040517f08c379a00000000000000000000000000000000000000000000000000000000081526004016129b4906147d3565b60405180910390fd5b60006129c761295c565b905060008151116129e75760405180602001604052806000815250612a12565b806129f184612ece565b604051602001612a02929190614476565b6040516020818303038152906040525b915050919050565b600081600001805490509050919050565b600080836001016000848152602001908152602001600020541415905092915050565b60007f7965db0b000000000000000000000000000000000000000000000000000000007bffffffffffffffffffffffffffffffffffffffffffffffffffffffff1916827bffffffffffffffffffffffffffffffffffffffffffffffffffffffff19161480612ac15750612ac08261307b565b5b9050919050565b612ad38383836130f5565b600073ffffffffffffffffffffffffffffffffffffffff168373ffffffffffffffffffffffffffffffffffffffff161415612b1657612b11816130fa565b612b55565b8173ffffffffffffffffffffffffffffffffffffffff168373ffffffffffffffffffffffffffffffffffffffff1614612b5457612b538382613143565b5b5b600073ffffffffffffffffffffffffffffffffffffffff168273ffffffffffffffffffffffffffffffffffffffff161415612b9857612b93816132b0565b612bd7565b8273ffffffffffffffffffffffffffffffffffffffff168273ffffffffffffffffffffffffffffffffffffffff1614612bd657612bd582826133f3565b5b5b505050565b6000612be782610d67565b9050612bf581600084612406565b612c006000836115c0565b6001600360008373ffffffffffffffffffffffffffffffffffffffff1673ffffffffffffffffffffffffffffffffffffffff1681526020019081526020016000206000828254612c509190614a43565b925050819055506002600083815260200190815260200160002060006101000a81549073ffffffffffffffffffffffffffffffffffffffff021916905581600073ffffffffffffffffffffffffffffffffffffffff168273ffffffffffffffffffffffffffffffffffffffff167fddf252ad1be2c89b69c2b068fc378daa952ba7f163c4a11628f55a4df523b3ef60405160405180910390a45050565b600073ffffffffffffffffffffffffffffffffffffffff168273ffffffffffffffffffffffffffffffffffffffff161415612d5d576040517f08c379a0000000000000000000000000000000000000000000000000000000008152600401612d5490614753565b60405180910390fd5b612d668161154c565b15612da6576040517f08c379a0000000000000000000000000000000000000000000000000000000008152600401612d9d90614613565b60405180910390fd5b612db260008383612406565b6001600360008473ffffffffffffffffffffffffffffffffffffffff1673ffffffffffffffffffffffffffffffffffffffff1681526020019081526020016000206000828254612e029190614962565b92505081905550816002600083815260200190815260200160002060006101000a81548173ffffffffffffffffffffffffffffffffffffffff021916908373ffffffffffffffffffffffffffffffffffffffff160217905550808273ffffffffffffffffffffffffffffffffffffffff16600073ffffffffffffffffffffffffffffffffffffffff167fddf252ad1be2c89b69c2b068fc378daa952ba7f163c4a11628f55a4df523b3ef60405160405180910390a45050565b600080823b905060008111915050919050565b60606000821415612f16576040518060400160405280600181526020017f30000000000000000000000000000000000000000000000000000000000000008152509050613076565b600082905060005b60008214612f48578080612f3190614b93565b915050600a82612f4191906149b8565b9150612f1e565b60008167ffffffffffffffff811115612f8a577f4e487b7100000000000000000000000000000000000000000000000000000000600052604160045260246000fd5b6040519080825280601f01601f191660200182016040528015612fbc5781602001600182028036833780820191505090505b5090505b6000851461306f57600182612fd59190614a43565b9150600a85612fe49190614bdc565b6030612ff09190614962565b60f81b81838151811061302c577f4e487b7100000000000000000000000000000000000000000000000000000000600052603260045260246000fd5b60200101907effffffffffffffffffffffffffffffffffffffffffffffffffffffffffffff1916908160001a905350600a8561306891906149b8565b9450612fc0565b8093505050505b919050565b60007f780e9d63000000000000000000000000000000000000000000000000000000007bffffffffffffffffffffffffffffffffffffffffffffffffffffffff1916827bffffffffffffffffffffffffffffffffffffffffffffffffffffffff191614806130ee57506130ed82613472565b5b9050919050565b505050565b600980549050600a600083815260200190815260200160002081905550600981908060018154018082558091505060019003906000526020600020016000909190919091505550565b6000600161315084610e19565b61315a9190614a43565b905060006008600084815260200190815260200160002054905081811461323f576000600760008673ffffffffffffffffffffffffffffffffffffffff1673ffffffffffffffffffffffffffffffffffffffff168152602001908152602001600020600084815260200190815260200160002054905080600760008773ffffffffffffffffffffffffffffffffffffffff1673ffffffffffffffffffffffffffffffffffffffff168152602001908152602001600020600084815260200190815260200160002081905550816008600083815260200190815260200160002081905550505b6008600084815260200190815260200160002060009055600760008573ffffffffffffffffffffffffffffffffffffffff1673ffffffffffffffffffffffffffffffffffffffff16815260200190815260200160002060008381526020019081526020016000206000905550505050565b600060016009805490506132c49190614a43565b90506000600a600084815260200190815260200160002054905060006009838154811061331a577f4e487b7100000000000000000000000000000000000000000000000000000000600052603260045260246000fd5b906000526020600020015490508060098381548110613362577f4e487b7100000000000000000000000000000000000000000000000000000000600052603260045260246000fd5b906000526020600020018190555081600a600083815260200190815260200160002081905550600a60008581526020019081526020016000206000905560098054806133d7577f4e487b7100000000000000000000000000000000000000000000000000000000600052603160045260246000fd5b6001900381819060005260206000200160009055905550505050565b60006133fe83610e19565b905081600760008573ffffffffffffffffffffffffffffffffffffffff1673ffffffffffffffffffffffffffffffffffffffff168152602001908152602001600020600083815260200190815260200160002081905550806008600084815260200190815260200160002081905550505050565b60007f80ac58cd000000000000000000000000000000000000000000000000000000007bffffffffffffffffffffffffffffffffffffffffffffffffffffffff1916827bffffffffffffffffffffffffffffffffffffffffffffffffffffffff1916148061353d57507f5b5e139f000000000000000000000000000000000000000000000000000000007bffffffffffffffffffffffffffffffffffffffffffffffffffffffff1916827bffffffffffffffffffffffffffffffffffffffffffffffffffffffff1916145b8061354d575061354c82613554565b5b9050919050565b60007f01ffc9a7000000000000000000000000000000000000000000000000000000007bffffffffffffffffffffffffffffffffffffffffffffffffffffffff1916827bffffffffffffffffffffffffffffffffffffffffffffffffffffffff1916149050919050565b8280546135ca90614b61565b90600052602060002090601f0160209004810192826135ec5760008555613633565b82601f1061360557805160ff1916838001178555613633565b82800160010185558215613633579182015b82811115613632578251825591602001919060010190613617565b5b5090506136409190613684565b5090565b50805461365090614b61565b6000825580601f106136625750613681565b601f0160209004906000526020600020908101906136809190613684565b5b50565b5b8082111561369d576000816000905550600101613685565b5090565b60006136b46136af846148bf565b61488e565b9050828152602081018484840111156136cc57600080fd5b6136d7848285614af5565b509392505050565b60006136f26136ed846148ef565b61488e565b90508281526020810184848401111561370a57600080fd5b613715848285614af5565b509392505050565b60008135905061372c81614cda565b92915050565b60008135905061374181614cf1565b92915050565b60008135905061375681614d08565b92915050565b60008135905061376b81614d1f565b92915050565b60008151905061378081614d1f565b92915050565b600082601f83011261379757600080fd5b81356137a78482602086016136a1565b91505092915050565b600082601f8301126137c157600080fd5b81356137d18482602086016136df565b91505092915050565b6000813590506137e981614d36565b92915050565b60006020828403121561380157600080fd5b600061380f8482850161371d565b91505092915050565b6000806040838503121561382b57600080fd5b60006138398582860161371d565b925050602061384a8582860161371d565b9150509250929050565b60008060006060848603121561386957600080fd5b60006138778682870161371d565b93505060206138888682870161371d565b9250506040613899868287016137da565b9150509250925092565b600080600080608085870312156138b957600080fd5b60006138c78782880161371d565b94505060206138d88782880161371d565b93505060406138e9878288016137da565b925050606085013567ffffffffffffffff81111561390657600080fd5b61391287828801613786565b91505092959194509250565b6000806040838503121561393157600080fd5b600061393f8582860161371d565b925050602061395085828601613732565b9150509250929050565b6000806040838503121561396d57600080fd5b600061397b8582860161371d565b925050602083013567ffffffffffffffff81111561399857600080fd5b6139a4858286016137b0565b9150509250929050565b600080604083850312156139c157600080fd5b60006139cf8582860161371d565b92505060206139e0858286016137da565b9150509250929050565b6000602082840312156139fc57600080fd5b6000613a0a84828501613747565b91505092915050565b60008060408385031215613a2657600080fd5b6000613a3485828601613747565b9250506020613a458582860161371d565b9150509250929050565b60008060408385031215613a6257600080fd5b6000613a7085828601613747565b9250506020613a81858286016137da565b9150509250929050565b600060208284031215613a9d57600080fd5b6000613aab8482850161375c565b91505092915050565b600060208284031215613ac657600080fd5b6000613ad484828501613771565b91505092915050565b600060208284031215613aef57600080fd5b6000613afd848285016137da565b91505092915050565b613b0f81614a77565b82525050565b613b1e81614a89565b82525050565b613b2d81614a95565b82525050565b6000613b3e8261491f565b613b488185614935565b9350613b58818560208601614b04565b613b6181614cc9565b840191505092915050565b6000613b778261492a565b613b818185614946565b9350613b91818560208601614b04565b613b9a81614cc9565b840191505092915050565b6000613bb08261492a565b613bba8185614957565b9350613bca818560208601614b04565b80840191505092915050565b6000613be3602083614946565b91507f537472696e67733a20686578206c656e67746820696e73756666696369656e746000830152602082019050919050565b6000613c23601483614946565b91507f5061757361626c653a206e6f74207061757365640000000000000000000000006000830152602082019050919050565b6000613c63602b83614946565b91507f455243373231456e756d657261626c653a206f776e657220696e646578206f7560008301527f74206f6620626f756e64730000000000000000000000000000000000000000006020830152604082019050919050565b6000613cc9603283614946565b91507f4552433732313a207472616e7366657220746f206e6f6e20455243373231526560008301527f63656976657220696d706c656d656e74657200000000000000000000000000006020830152604082019050919050565b6000613d2f601c83614946565b91507f4552433732313a20746f6b656e20616c7265616479206d696e746564000000006000830152602082019050919050565b6000613d6f602483614946565b91507f4552433732313a207472616e7366657220746f20746865207a65726f2061646460008301527f72657373000000000000000000000000000000000000000000000000000000006020830152604082019050919050565b6000613dd5601983614946565b91507f4552433732313a20617070726f766520746f2063616c6c6572000000000000006000830152602082019050919050565b6000613e15602c83614946565b91507f4552433732313a206f70657261746f7220717565727920666f72206e6f6e657860008301527f697374656e7420746f6b656e00000000000000000000000000000000000000006020830152604082019050919050565b6000613e7b601c83614946565b91507f67656e67206f7665722062797465733332206c656e67746820313238000000006000830152602082019050919050565b6000613ebb601083614946565b91507f5061757361626c653a20706175736564000000000000000000000000000000006000830152602082019050919050565b6000613efb601f83614946565b91507f746869732067656e6720616c7265616479206d696e7420696e20636861696e006000830152602082019050919050565b6000613f3b603883614946565b91507f4552433732313a20617070726f76652063616c6c6572206973206e6f74206f7760008301527f6e6572206e6f7220617070726f76656420666f7220616c6c00000000000000006020830152604082019050919050565b6000613fa1602a83614946565b91507f4552433732313a2062616c616e636520717565727920666f7220746865207a6560008301527f726f2061646472657373000000000000000000000000000000000000000000006020830152604082019050919050565b6000614007602983614946565b91507f4552433732313a206f776e657220717565727920666f72206e6f6e657869737460008301527f656e7420746f6b656e00000000000000000000000000000000000000000000006020830152604082019050919050565b600061406d602083614946565b91507f4552433732313a206d696e7420746f20746865207a65726f20616464726573736000830152602082019050919050565b60006140ad603183614946565b91507f45524337323155524953746f726167653a2055524920717565727920666f722060008301527f6e6f6e6578697374656e7420746f6b656e0000000000000000000000000000006020830152604082019050919050565b6000614113602c83614946565b91507f4552433732313a20617070726f76656420717565727920666f72206e6f6e657860008301527f697374656e7420746f6b656e00000000000000000000000000000000000000006020830152604082019050919050565b6000614179602983614946565b91507f4552433732313a207472616e73666572206f6620746f6b656e2074686174206960008301527f73206e6f74206f776e00000000000000000000000000000000000000000000006020830152604082019050919050565b60006141df602f83614946565b91507f4552433732314d657461646174613a2055524920717565727920666f72206e6f60008301527f6e6578697374656e7420746f6b656e00000000000000000000000000000000006020830152604082019050919050565b6000614245602183614946565b91507f4552433732313a20617070726f76616c20746f2063757272656e74206f776e6560008301527f72000000000000000000000000000000000000000000000000000000000000006020830152604082019050919050565b60006142ab603183614946565b91507f4552433732313a207472616e736665722063616c6c6572206973206e6f74206f60008301527f776e6572206e6f7220617070726f7665640000000000000000000000000000006020830152604082019050919050565b6000614311602c83614946565b91507f455243373231456e756d657261626c653a20676c6f62616c20696e646578206f60008301527f7574206f6620626f756e647300000000000000000000000000000000000000006020830152604082019050919050565b6000614377601783614957565b91507f416363657373436f6e74726f6c3a206163636f756e74200000000000000000006000830152601782019050919050565b60006143b7601183614957565b91507f206973206d697373696e6720726f6c65200000000000000000000000000000006000830152601182019050919050565b60006143f7602f83614946565b91507f416363657373436f6e74726f6c3a2063616e206f6e6c792072656e6f756e636560008301527f20726f6c657320666f722073656c6600000000000000000000000000000000006020830152604082019050919050565b61445981614aeb565b82525050565b600061446b8284613ba5565b915081905092915050565b60006144828285613ba5565b915061448e8284613ba5565b91508190509392505050565b60006144a58261436a565b91506144b18285613ba5565b91506144bc826143aa565b91506144c88284613ba5565b91508190509392505050565b60006020820190506144e96000830184613b06565b92915050565b60006080820190506145046000830187613b06565b6145116020830186613b06565b61451e6040830185614450565b81810360608301526145308184613b33565b905095945050505050565b60006020820190506145506000830184613b15565b92915050565b600060208201905061456b6000830184613b24565b92915050565b6000602082019050818103600083015261458b8184613b6c565b905092915050565b600060208201905081810360008301526145ac81613bd6565b9050919050565b600060208201905081810360008301526145cc81613c16565b9050919050565b600060208201905081810360008301526145ec81613c56565b9050919050565b6000602082019050818103600083015261460c81613cbc565b9050919050565b6000602082019050818103600083015261462c81613d22565b9050919050565b6000602082019050818103600083015261464c81613d62565b9050919050565b6000602082019050818103600083015261466c81613dc8565b9050919050565b6000602082019050818103600083015261468c81613e08565b9050919050565b600060208201905081810360008301526146ac81613e6e565b9050919050565b600060208201905081810360008301526146cc81613eae565b9050919050565b600060208201905081810360008301526146ec81613eee565b9050919050565b6000602082019050818103600083015261470c81613f2e565b9050919050565b6000602082019050818103600083015261472c81613f94565b9050919050565b6000602082019050818103600083015261474c81613ffa565b9050919050565b6000602082019050818103600083015261476c81614060565b9050919050565b6000602082019050818103600083015261478c816140a0565b9050919050565b600060208201905081810360008301526147ac81614106565b9050919050565b600060208201905081810360008301526147cc8161416c565b9050919050565b600060208201905081810360008301526147ec816141d2565b9050919050565b6000602082019050818103600083015261480c81614238565b9050919050565b6000602082019050818103600083015261482c8161429e565b9050919050565b6000602082019050818103600083015261484c81614304565b9050919050565b6000602082019050818103600083015261486c816143ea565b9050919050565b60006020820190506148886000830184614450565b92915050565b6000604051905081810181811067ffffffffffffffff821117156148b5576148b4614c9a565b5b8060405250919050565b600067ffffffffffffffff8211156148da576148d9614c9a565b5b601f19601f8301169050602081019050919050565b600067ffffffffffffffff82111561490a57614909614c9a565b5b601f19601f8301169050602081019050919050565b600081519050919050565b600081519050919050565b600082825260208201905092915050565b600082825260208201905092915050565b600081905092915050565b600061496d82614aeb565b915061497883614aeb565b9250827fffffffffffffffffffffffffffffffffffffffffffffffffffffffffffffffff038211156149ad576149ac614c0d565b5b828201905092915050565b60006149c382614aeb565b91506149ce83614aeb565b9250826149de576149dd614c3c565b5b828204905092915050565b60006149f482614aeb565b91506149ff83614aeb565b9250817fffffffffffffffffffffffffffffffffffffffffffffffffffffffffffffffff0483118215151615614a3857614a37614c0d565b5b828202905092915050565b6000614a4e82614aeb565b9150614a5983614aeb565b925082821015614a6c57614a6b614c0d565b5b828203905092915050565b6000614a8282614acb565b9050919050565b60008115159050919050565b6000819050919050565b60007fffffffff0000000000000000000000000000000000000000000000000000000082169050919050565b600073ffffffffffffffffffffffffffffffffffffffff82169050919050565b6000819050919050565b82818337600083830152505050565b60005b83811015614b22578082015181840152602081019050614b07565b83811115614b31576000848401525b50505050565b6000614b4282614aeb565b91506000821415614b5657614b55614c0d565b5b600182039050919050565b60006002820490506001821680614b7957607f821691505b60208210811415614b8d57614b8c614c6b565b5b50919050565b6000614b9e82614aeb565b91507fffffffffffffffffffffffffffffffffffffffffffffffffffffffffffffffff821415614bd157614bd0614c0d565b5b600182019050919050565b6000614be782614aeb565b9150614bf283614aeb565b925082614c0257614c01614c3c565b5b828206905092915050565b7f4e487b7100000000000000000000000000000000000000000000000000000000600052601160045260246000fd5b7f4e487b7100000000000000000000000000000000000000000000000000000000600052601260045260246000fd5b7f4e487b7100000000000000000000000000000000000000000000000000000000600052602260045260246000fd5b7f4e487b7100000000000000000000000000000000000000000000000000000000600052604160045260246000fd5b6000601f19601f8301169050919050565b614ce381614a77565b8114614cee57600080fd5b50565b614cfa81614a89565b8114614d0557600080fd5b50565b614d1181614a95565b8114614d1c57600080fd5b50565b614d2881614a9f565b8114614d3357600080fd5b50565b614d3f81614aeb565b8114614d4a57600080fd5b5056fea2646970667358221220c7ecc87b5c1f0ffa587901912df5462da572f5b70fc4fd6a8cb656affb64663e64736f6c63430008000033",
  "immutableReferences": {},
  "source": "// SPDX-License-Identifier: MIT\npragma solidity ^0.8.0;\n\nimport \"@openzeppelin/contracts/token/ERC721/extensions/ERC721Enumerable.sol\";\nimport \"@openzeppelin/contracts/token/ERC721/extensions/ERC721URIStorage.sol\";\nimport \"@openzeppelin/contracts/utils/Counters.sol\";\nimport \"./base/SecurityBase.sol\";\n\ncontract Geng is ERC721URIStorage, ERC721Enumerable, SecurityBase\n{\n    using Counters for Counters.Counter;\n    Counters.Counter private _tokenIds;\n\n    mapping(uint256 => string) private _GengMap;\n    mapping(string => uint256) private _CheckGengMap;\n\n    event GengCreated(uint256 tokenId, address owner, string geng);\n\n    constructor() ERC721(\"Geng\", \"GENG\") {\n    }\n\n\n    function _beforeTokenTransfer(address from, address to, uint256 tokenId)\n        internal\n        whenNotPaused\n        override(ERC721, ERC721Enumerable)\n    {\n        super._beforeTokenTransfer(from, to, tokenId);\n    }\n\n    function _burn(uint256 tokenId) internal whenNotPaused override(ERC721, ERC721URIStorage) {\n        super._burn(tokenId);\n    }\n\n    function tokenURI(uint256 tokenId)\n        public\n        view\n        override(ERC721, ERC721URIStorage)\n        returns (string memory)\n    {\n        return super.tokenURI(tokenId);\n    }\n\n    function supportsInterface(bytes4 interfaceId)\n        public\n        view\n        override(ERC721, ERC721Enumerable, SecurityBase)\n        returns (bool)\n    {\n        return super.supportsInterface(interfaceId);\n    }\n    \n    function safeMintGeng(address to, string memory geng) public whenNotPaused onlyMinter returns (uint256) {\n        require(bytes(geng).length <= 128, \"geng over bytes32 length 128\");\n        require(_CheckGengMap[geng] <= 0, \"this geng already mint in chain\");\n        _tokenIds.increment();\n        uint256 tokenId = _tokenIds.current();\n        _safeMint(to, tokenId);\n        _GengMap[tokenId] = geng;\n        _CheckGengMap[geng] = tokenId;\n        return tokenId;\n    }\n\n    function mintTransform(address from, address to, uint256 tokenId) public whenNotPaused onlyMinter {\n        _transfer(from, to, tokenId);\n    }\n\n    function mintBurn(uint256 tokenId) public whenNotPaused onlyMinter {\n        _burn(tokenId);\n    }\n}\n",
  "sourcePath": "/Users/fank/code/freedom/geng-contracts/contracts/Geng.sol",
  "compiler": {
    "name": "solc",
    "version": "0.8.0+commit.c7dfd78e.Emscripten.clang"
  },
  "schemaVersion": "3.4.3",
  "updatedAt": "2021-09-05T06:17:26.836Z",
  "networkType": "ethereum",
  "devdoc": {
    "kind": "dev",
    "methods": {
      "approve(address,uint256)": {
        "details": "See {IERC721-approve}."
      },
      "balanceOf(address)": {
        "details": "See {IERC721-balanceOf}."
      },
      "getApproved(uint256)": {
        "details": "See {IERC721-getApproved}."
      },
      "getRoleAdmin(bytes32)": {
        "details": "Returns the admin role that controls `role`. See {grantRole} and {revokeRole}. To change a role's admin, use {_setRoleAdmin}."
      },
      "getRoleMember(bytes32,uint256)": {
        "details": "Returns one of the accounts that have `role`. `index` must be a value between 0 and {getRoleMemberCount}, non-inclusive. Role bearers are not sorted in any particular way, and their ordering may change at any point. WARNING: When using {getRoleMember} and {getRoleMemberCount}, make sure you perform all queries on the same block. See the following https://forum.openzeppelin.com/t/iterating-over-elements-on-enumerableset-in-openzeppelin-contracts/2296[forum post] for more information."
      },
      "getRoleMemberCount(bytes32)": {
        "details": "Returns the number of accounts that have `role`. Can be used together with {getRoleMember} to enumerate all bearers of a role."
      },
      "grantRole(bytes32,address)": {
        "details": "Overload {grantRole} to track enumerable memberships"
      },
      "hasRole(bytes32,address)": {
        "details": "Returns `true` if `account` has been granted `role`."
      },
      "isApprovedForAll(address,address)": {
        "details": "See {IERC721-isApprovedForAll}."
      },
      "name()": {
        "details": "See {IERC721Metadata-name}."
      },
      "ownerOf(uint256)": {
        "details": "See {IERC721-ownerOf}."
      },
      "paused()": {
        "details": "Returns true if the contract is paused, and false otherwise."
      },
      "renounceRole(bytes32,address)": {
        "details": "Overload {renounceRole} to track enumerable memberships"
      },
      "revokeRole(bytes32,address)": {
        "details": "Overload {revokeRole} to track enumerable memberships"
      },
      "safeTransferFrom(address,address,uint256)": {
        "details": "See {IERC721-safeTransferFrom}."
      },
      "safeTransferFrom(address,address,uint256,bytes)": {
        "details": "See {IERC721-safeTransferFrom}."
      },
      "setApprovalForAll(address,bool)": {
        "details": "See {IERC721-setApprovalForAll}."
      },
      "symbol()": {
        "details": "See {IERC721Metadata-symbol}."
      },
      "tokenByIndex(uint256)": {
        "details": "See {IERC721Enumerable-tokenByIndex}."
      },
      "tokenOfOwnerByIndex(address,uint256)": {
        "details": "See {IERC721Enumerable-tokenOfOwnerByIndex}."
      },
      "totalSupply()": {
        "details": "See {IERC721Enumerable-totalSupply}."
      },
      "transferFrom(address,address,uint256)": {
        "details": "See {IERC721-transferFrom}."
      }
    },
    "version": 1
  },
  "userdoc": {
    "kind": "user",
    "methods": {},
    "version": 1
  }
}