{
  "contractName": "Geng",
  "abi": [
    {
      "inputs": [],
      "stateMutability": "nonpayable",
      "type": "constructor"
    },
    {
      "anonymous": false,
      "inputs": [
        {
          "indexed": true,
          "internalType": "address",
          "name": "owner",
          "type": "address"
        },
        {
          "indexed": true,
          "internalType": "address",
          "name": "approved",
          "type": "address"
        },
        {
          "indexed": true,
          "internalType": "uint256",
          "name": "tokenId",
          "type": "uint256"
        }
      ],
      "name": "Approval",
      "type": "event"
    },
    {
      "anonymous": false,
      "inputs": [
        {
          "indexed": true,
          "internalType": "address",
          "name": "owner",
          "type": "address"
        },
        {
          "indexed": true,
          "internalType": "address",
          "name": "operator",
          "type": "address"
        },
        {
          "indexed": false,
          "internalType": "bool",
          "name": "approved",
          "type": "bool"
        }
      ],
      "name": "ApprovalForAll",
      "type": "event"
    },
    {
      "anonymous": false,
      "inputs": [
        {
          "indexed": false,
          "internalType": "uint256",
          "name": "tokenId",
          "type": "uint256"
        },
        {
          "indexed": false,
          "internalType": "address",
          "name": "owner",
          "type": "address"
        },
        {
          "indexed": false,
          "internalType": "string",
          "name": "geng",
          "type": "string"
        }
      ],
      "name": "GengCreated",
      "type": "event"
    },
    {
      "anonymous": false,
      "inputs": [
        {
          "indexed": false,
          "internalType": "address",
          "name": "account",
          "type": "address"
        }
      ],
      "name": "Paused",
      "type": "event"
    },
    {
      "anonymous": false,
      "inputs": [
        {
          "indexed": true,
          "internalType": "bytes32",
          "name": "role",
          "type": "bytes32"
        },
        {
          "indexed": true,
          "internalType": "bytes32",
          "name": "previousAdminRole",
          "type": "bytes32"
        },
        {
          "indexed": true,
          "internalType": "bytes32",
          "name": "newAdminRole",
          "type": "bytes32"
        }
      ],
      "name": "RoleAdminChanged",
      "type": "event"
    },
    {
      "anonymous": false,
      "inputs": [
        {
          "indexed": true,
          "internalType": "bytes32",
          "name": "role",
          "type": "bytes32"
        },
        {
          "indexed": true,
          "internalType": "address",
          "name": "account",
          "type": "address"
        },
        {
          "indexed": true,
          "internalType": "address",
          "name": "sender",
          "type": "address"
        }
      ],
      "name": "RoleGranted",
      "type": "event"
    },
    {
      "anonymous": false,
      "inputs": [
        {
          "indexed": true,
          "internalType": "bytes32",
          "name": "role",
          "type": "bytes32"
        },
        {
          "indexed": true,
          "internalType": "address",
          "name": "account",
          "type": "address"
        },
        {
          "indexed": true,
          "internalType": "address",
          "name": "sender",
          "type": "address"
        }
      ],
      "name": "RoleRevoked",
      "type": "event"
    },
    {
      "anonymous": false,
      "inputs": [
        {
          "indexed": true,
          "internalType": "address",
          "name": "from",
          "type": "address"
        },
        {
          "indexed": true,
          "internalType": "address",
          "name": "to",
          "type": "address"
        },
        {
          "indexed": true,
          "internalType": "uint256",
          "name": "tokenId",
          "type": "uint256"
        }
      ],
      "name": "Transfer",
      "type": "event"
    },
    {
      "anonymous": false,
      "inputs": [
        {
          "indexed": false,
          "internalType": "address",
          "name": "account",
          "type": "address"
        }
      ],
      "name": "Unpaused",
      "type": "event"
    },
    {
      "inputs": [],
      "name": "DEFAULT_ADMIN_ROLE",
      "outputs": [
        {
          "internalType": "bytes32",
          "name": "",
          "type": "bytes32"
        }
      ],
      "stateMutability": "view",
      "type": "function",
      "constant": true
    },
    {
      "inputs": [],
      "name": "MINTER_ROLE",
      "outputs": [
        {
          "internalType": "bytes32",
          "name": "",
          "type": "bytes32"
        }
      ],
      "stateMutability": "view",
      "type": "function",
      "constant": true
    },
    {
      "inputs": [],
      "name": "PAUSER_ROLE",
      "outputs": [
        {
          "internalType": "bytes32",
          "name": "",
          "type": "bytes32"
        }
      ],
      "stateMutability": "view",
      "type": "function",
      "constant": true
    },
    {
      "inputs": [
        {
          "internalType": "address",
          "name": "to",
          "type": "address"
        },
        {
          "internalType": "uint256",
          "name": "tokenId",
          "type": "uint256"
        }
      ],
      "name": "approve",
      "outputs": [],
      "stateMutability": "nonpayable",
      "type": "function"
    },
    {
      "inputs": [
        {
          "internalType": "address",
          "name": "owner",
          "type": "address"
        }
      ],
      "name": "balanceOf",
      "outputs": [
        {
          "internalType": "uint256",
          "name": "",
          "type": "uint256"
        }
      ],
      "stateMutability": "view",
      "type": "function",
      "constant": true
    },
    {
      "inputs": [
        {
          "internalType": "uint256",
          "name": "tokenId",
          "type": "uint256"
        }
      ],
      "name": "getApproved",
      "outputs": [
        {
          "internalType": "address",
          "name": "",
          "type": "address"
        }
      ],
      "stateMutability": "view",
      "type": "function",
      "constant": true
    },
    {
      "inputs": [
        {
          "internalType": "bytes32",
          "name": "role",
          "type": "bytes32"
        }
      ],
      "name": "getRoleAdmin",
      "outputs": [
        {
          "internalType": "bytes32",
          "name": "",
          "type": "bytes32"
        }
      ],
      "stateMutability": "view",
      "type": "function",
      "constant": true
    },
    {
      "inputs": [
        {
          "internalType": "bytes32",
          "name": "role",
          "type": "bytes32"
        },
        {
          "internalType": "uint256",
          "name": "index",
          "type": "uint256"
        }
      ],
      "name": "getRoleMember",
      "outputs": [
        {
          "internalType": "address",
          "name": "",
          "type": "address"
        }
      ],
      "stateMutability": "view",
      "type": "function",
      "constant": true
    },
    {
      "inputs": [
        {
          "internalType": "bytes32",
          "name": "role",
          "type": "bytes32"
        }
      ],
      "name": "getRoleMemberCount",
      "outputs": [
        {
          "internalType": "uint256",
          "name": "",
          "type": "uint256"
        }
      ],
      "stateMutability": "view",
      "type": "function",
      "constant": true
    },
    {
      "inputs": [
        {
          "internalType": "address",
          "name": "account",
          "type": "address"
        }
      ],
      "name": "grantMinter",
      "outputs": [],
      "stateMutability": "nonpayable",
      "type": "function"
    },
    {
      "inputs": [
        {
          "internalType": "address",
          "name": "account",
          "type": "address"
        }
      ],
      "name": "grantPauser",
      "outputs": [],
      "stateMutability": "nonpayable",
      "type": "function"
    },
    {
      "inputs": [
        {
          "internalType": "bytes32",
          "name": "role",
          "type": "bytes32"
        },
        {
          "internalType": "address",
          "name": "account",
          "type": "address"
        }
      ],
      "name": "grantRole",
      "outputs": [],
      "stateMutability": "nonpayable",
      "type": "function"
    },
    {
      "inputs": [
        {
          "internalType": "bytes32",
          "name": "role",
          "type": "bytes32"
        },
        {
          "internalType": "address",
          "name": "account",
          "type": "address"
        }
      ],
      "name": "hasRole",
      "outputs": [
        {
          "internalType": "bool",
          "name": "",
          "type": "bool"
        }
      ],
      "stateMutability": "view",
      "type": "function",
      "constant": true
    },
    {
      "inputs": [
        {
          "internalType": "address",
          "name": "owner",
          "type": "address"
        },
        {
          "internalType": "address",
          "name": "operator",
          "type": "address"
        }
      ],
      "name": "isApprovedForAll",
      "outputs": [
        {
          "internalType": "bool",
          "name": "",
          "type": "bool"
        }
      ],
      "stateMutability": "view",
      "type": "function",
      "constant": true
    },
    {
      "inputs": [],
      "name": "name",
      "outputs": [
        {
          "internalType": "string",
          "name": "",
          "type": "string"
        }
      ],
      "stateMutability": "view",
      "type": "function",
      "constant": true
    },
    {
      "inputs": [
        {
          "internalType": "uint256",
          "name": "tokenId",
          "type": "uint256"
        }
      ],
      "name": "ownerOf",
      "outputs": [
        {
          "internalType": "address",
          "name": "",
          "type": "address"
        }
      ],
      "stateMutability": "view",
      "type": "function",
      "constant": true
    },
    {
      "inputs": [],
      "name": "pause",
      "outputs": [],
      "stateMutability": "nonpayable",
      "type": "function"
    },
    {
      "inputs": [],
      "name": "paused",
      "outputs": [
        {
          "internalType": "bool",
          "name": "",
          "type": "bool"
        }
      ],
      "stateMutability": "view",
      "type": "function",
      "constant": true
    },
    {
      "inputs": [
        {
          "internalType": "bytes32",
          "name": "role",
          "type": "bytes32"
        },
        {
          "internalType": "address",
          "name": "account",
          "type": "address"
        }
      ],
      "name": "renounceRole",
      "outputs": [],
      "stateMutability": "nonpayable",
      "type": "function"
    },
    {
      "inputs": [
        {
          "internalType": "bytes32",
          "name": "role",
          "type": "bytes32"
        },
        {
          "internalType": "address",
          "name": "account",
          "type": "address"
        }
      ],
      "name": "revokeRole",
      "outputs": [],
      "stateMutability": "nonpayable",
      "type": "function"
    },
    {
      "inputs": [
        {
          "internalType": "address",
          "name": "from",
          "type": "address"
        },
        {
          "internalType": "address",
          "name": "to",
          "type": "address"
        },
        {
          "internalType": "uint256",
          "name": "tokenId",
          "type": "uint256"
        }
      ],
      "name": "safeTransferFrom",
      "outputs": [],
      "stateMutability": "nonpayable",
      "type": "function"
    },
    {
      "inputs": [
        {
          "internalType": "address",
          "name": "from",
          "type": "address"
        },
        {
          "internalType": "address",
          "name": "to",
          "type": "address"
        },
        {
          "internalType": "uint256",
          "name": "tokenId",
          "type": "uint256"
        },
        {
          "internalType": "bytes",
          "name": "_data",
          "type": "bytes"
        }
      ],
      "name": "safeTransferFrom",
      "outputs": [],
      "stateMutability": "nonpayable",
      "type": "function"
    },
    {
      "inputs": [
        {
          "internalType": "address",
          "name": "operator",
          "type": "address"
        },
        {
          "internalType": "bool",
          "name": "approved",
          "type": "bool"
        }
      ],
      "name": "setApprovalForAll",
      "outputs": [],
      "stateMutability": "nonpayable",
      "type": "function"
    },
    {
      "inputs": [],
      "name": "symbol",
      "outputs": [
        {
          "internalType": "string",
          "name": "",
          "type": "string"
        }
      ],
      "stateMutability": "view",
      "type": "function",
      "constant": true
    },
    {
      "inputs": [
        {
          "internalType": "uint256",
          "name": "index",
          "type": "uint256"
        }
      ],
      "name": "tokenByIndex",
      "outputs": [
        {
          "internalType": "uint256",
          "name": "",
          "type": "uint256"
        }
      ],
      "stateMutability": "view",
      "type": "function",
      "constant": true
    },
    {
      "inputs": [
        {
          "internalType": "address",
          "name": "owner",
          "type": "address"
        },
        {
          "internalType": "uint256",
          "name": "index",
          "type": "uint256"
        }
      ],
      "name": "tokenOfOwnerByIndex",
      "outputs": [
        {
          "internalType": "uint256",
          "name": "",
          "type": "uint256"
        }
      ],
      "stateMutability": "view",
      "type": "function",
      "constant": true
    },
    {
      "inputs": [],
      "name": "totalSupply",
      "outputs": [
        {
          "internalType": "uint256",
          "name": "",
          "type": "uint256"
        }
      ],
      "stateMutability": "view",
      "type": "function",
      "constant": true
    },
    {
      "inputs": [
        {
          "internalType": "address",
          "name": "from",
          "type": "address"
        },
        {
          "internalType": "address",
          "name": "to",
          "type": "address"
        },
        {
          "internalType": "uint256",
          "name": "tokenId",
          "type": "uint256"
        }
      ],
      "name": "transferFrom",
      "outputs": [],
      "stateMutability": "nonpayable",
      "type": "function"
    },
    {
      "inputs": [],
      "name": "unpause",
      "outputs": [],
      "stateMutability": "nonpayable",
      "type": "function"
    },
    {
      "inputs": [
        {
          "internalType": "uint256",
          "name": "tokenId",
          "type": "uint256"
        }
      ],
      "name": "tokenURI",
      "outputs": [
        {
          "internalType": "string",
          "name": "",
          "type": "string"
        }
      ],
      "stateMutability": "view",
      "type": "function",
      "constant": true
    },
    {
      "inputs": [
        {
          "internalType": "bytes4",
          "name": "interfaceId",
          "type": "bytes4"
        }
      ],
      "name": "supportsInterface",
      "outputs": [
        {
          "internalType": "bool",
          "name": "",
          "type": "bool"
        }
      ],
      "stateMutability": "view",
      "type": "function",
      "constant": true
    },
    {
      "inputs": [
        {
          "internalType": "address",
          "name": "to",
          "type": "address"
        },
        {
          "internalType": "string",
          "name": "geng",
          "type": "string"
        }
      ],
      "name": "safeMintGeng",
      "outputs": [
        {
          "internalType": "uint256",
          "name": "",
          "type": "uint256"
        }
      ],
      "stateMutability": "nonpayable",
      "type": "function"
    },
    {
      "inputs": [
        {
          "internalType": "address",
          "name": "from",
          "type": "address"
        },
        {
          "internalType": "address",
          "name": "to",
          "type": "address"
        },
        {
          "internalType": "uint256",
          "name": "tokenId",
          "type": "uint256"
        }
      ],
      "name": "mintTransform",
      "outputs": [],
      "stateMutability": "nonpayable",
      "type": "function"
    }
  ],
  "bytecode": "0x60806040523480156200001157600080fd5b506040518060400160405280600481526020017f47656e67000000000000000000000000000000000000000000000000000000008152506040518060400160405280600481526020017f47454e4700000000000000000000000000000000000000000000000000000000815250816000908051906020019062000096929190620003f6565b508060019080519060200190620000af929190620003f6565b5050506000600d60006101000a81548160ff021916908315150217905550620000dd620000e360201b60201c565b6200050b565b620000f86000801b336200015e60201b60201c565b6200012a7f65d7a28e3265b37a6474929f336521b332c1681b933f6cb9f3376673440d862a336200015e60201b60201c565b6200015c7f9f2df0fed2c77648de5860a4cc508cd0818c85b8b8a1ab4ceeef8d981c8956a6336200015e60201b60201c565b565b620001758282620001a660201b620013d21760201c565b620001a181600c6000858152602001908152602001600020620001bc60201b620013e01790919060201c565b505050565b620001b88282620001f460201b60201c565b5050565b6000620001ec836000018373ffffffffffffffffffffffffffffffffffffffff1660001b620002e660201b60201c565b905092915050565b6200020682826200036060201b60201c565b620002e2576001600b600084815260200190815260200160002060000160008373ffffffffffffffffffffffffffffffffffffffff1673ffffffffffffffffffffffffffffffffffffffff16815260200190815260200160002060006101000a81548160ff02191690831515021790555062000287620003cb60201b60201c565b73ffffffffffffffffffffffffffffffffffffffff168173ffffffffffffffffffffffffffffffffffffffff16837f2f8788117e7eff1d82e926ec794901d17c78024a50270940304540a733656f0d60405160405180910390a45b5050565b6000620002fa8383620003d360201b60201c565b620003555782600001829080600181540180825580915050600190039060005260206000200160009091909190915055826000018054905083600101600084815260200190815260200160002081905550600190506200035a565b600090505b92915050565b6000600b600084815260200190815260200160002060000160008373ffffffffffffffffffffffffffffffffffffffff1673ffffffffffffffffffffffffffffffffffffffff16815260200190815260200160002060009054906101000a900460ff16905092915050565b600033905090565b600080836001016000848152602001908152602001600020541415905092915050565b8280546200040490620004a6565b90600052602060002090601f01602090048101928262000428576000855562000474565b82601f106200044357805160ff191683800117855562000474565b8280016001018555821562000474579182015b828111156200047357825182559160200191906001019062000456565b5b50905062000483919062000487565b5090565b5b80821115620004a257600081600090555060010162000488565b5090565b60006002820490506001821680620004bf57607f821691505b60208210811415620004d657620004d5620004dc565b5b50919050565b7f4e487b7100000000000000000000000000000000000000000000000000000000600052602260045260246000fd5b6149ea806200051b6000396000f3fe608060405234801561001057600080fd5b50600436106101fb5760003560e01c80635c975abb1161011a578063a217fddf116100ad578063ca15c8731161007c578063ca15c873146105d2578063d539139314610602578063d547741f14610620578063e63ab1e91461063c578063e985e9c51461065a576101fb565b8063a217fddf1461054c578063a22cb4651461056a578063b88d4fde14610586578063c87b56dd146105a2576101fb565b806388c14cfa116100e957806388c14cfa1461049e5780639010d07c146104ce57806391d14854146104fe57806395d89b411461052e576101fb565b80635c975abb146104165780636352211e1461043457806370a08231146104645780638456cb5914610494576101fb565b8063261707fa1161019257806336568abe1161016157806336568abe146103a45780633f4ba83a146103c057806342842e0e146103ca5780634f6ccce7146103e6576101fb565b8063261707fa146103205780632f2ff15d1461033c5780632f745c59146103585780633066ef0214610388576101fb565b806309c1d95f116101ce57806309c1d95f1461029a57806318160ddd146102b657806323b872dd146102d4578063248a9ca3146102f0576101fb565b806301ffc9a71461020057806306fdde0314610230578063081812fc1461024e578063095ea7b31461027e575b600080fd5b61021a60048036038101906102159190613769565b61068a565b60405161022791906141c2565b60405180910390f35b61023861069c565b60405161024591906141f8565b60405180910390f35b610268600480360381019061026391906137bb565b61072e565b604051610275919061415b565b60405180910390f35b6102986004803603810190610293919061368c565b6107b3565b005b6102b460048036038101906102af91906134cd565b6108cb565b005b6102be610933565b6040516102cb91906144da565b60405180910390f35b6102ee60048036038101906102e99190613532565b610940565b005b61030a600480360381019061030591906136c8565b6109a0565b60405161031791906141dd565b60405180910390f35b61033a600480360381019061033591906134cd565b6109c0565b005b610356600480360381019061035191906136f1565b610a28565b005b610372600480360381019061036d919061368c565b610a5c565b60405161037f91906144da565b60405180910390f35b6103a2600480360381019061039d9190613532565b610b01565b005b6103be60048036038101906103b991906136f1565b610b83565b005b6103c8610bb7565b005b6103e460048036038101906103df9190613532565b610bf4565b005b61040060048036038101906103fb91906137bb565b610c14565b60405161040d91906144da565b60405180910390f35b61041e610cab565b60405161042b91906141c2565b60405180910390f35b61044e600480360381019061044991906137bb565b610cc2565b60405161045b919061415b565b60405180910390f35b61047e600480360381019061047991906134cd565b610d74565b60405161048b91906144da565b60405180910390f35b61049c610e2c565b005b6104b860048036038101906104b39190613638565b610e69565b6040516104c591906144da565b60405180910390f35b6104e860048036038101906104e3919061372d565b610f76565b6040516104f5919061415b565b60405180910390f35b610518600480360381019061051391906136f1565b610fa5565b60405161052591906141c2565b60405180910390f35b610536611010565b60405161054391906141f8565b60405180910390f35b6105546110a2565b60405161056191906141dd565b60405180910390f35b610584600480360381019061057f91906135fc565b6110a9565b005b6105a0600480360381019061059b9190613581565b61122a565b005b6105bc60048036038101906105b791906137bb565b61128c565b6040516105c991906141f8565b60405180910390f35b6105ec60048036038101906105e791906136c8565b61129e565b6040516105f991906144da565b60405180910390f35b61060a6112c2565b60405161061791906141dd565b60405180910390f35b61063a600480360381019061063591906136f1565b6112e6565b005b61064461131a565b60405161065191906141dd565b60405180910390f35b610674600480360381019061066f91906134f6565b61133e565b60405161068191906141c2565b60405180910390f35b600061069582611410565b9050919050565b6060600080546106ab906147c8565b80601f01602080910402602001604051908101604052809291908181526020018280546106d7906147c8565b80156107245780601f106106f957610100808354040283529160200191610724565b820191906000526020600020905b81548152906001019060200180831161070757829003601f168201915b5050505050905090565b600061073982611422565b610778576040517f08c379a000000000000000000000000000000000000000000000000000000000815260040161076f906143fa565b60405180910390fd5b6004600083815260200190815260200160002060009054906101000a900473ffffffffffffffffffffffffffffffffffffffff169050919050565b60006107be82610cc2565b90508073ffffffffffffffffffffffffffffffffffffffff168373ffffffffffffffffffffffffffffffffffffffff16141561082f576040517f08c379a00000000000000000000000000000000000000000000000000000000081526004016108269061445a565b60405180910390fd5b8073ffffffffffffffffffffffffffffffffffffffff1661084e61148e565b73ffffffffffffffffffffffffffffffffffffffff16148061087d575061087c8161087761148e565b61133e565b5b6108bc576040517f08c379a00000000000000000000000000000000000000000000000000000000081526004016108b39061435a565b60405180910390fd5b6108c68383611496565b505050565b6108f47f65d7a28e3265b37a6474929f336521b332c1681b933f6cb9f3376673440d862a6109a0565b6109058161090061148e565b61154f565b61092f7f65d7a28e3265b37a6474929f336521b332c1681b933f6cb9f3376673440d862a836115ec565b5050565b6000600980549050905090565b61095161094b61148e565b82611620565b610990576040517f08c379a00000000000000000000000000000000000000000000000000000000081526004016109879061447a565b60405180910390fd5b61099b8383836116fe565b505050565b6000600b6000838152602001908152602001600020600101549050919050565b6109e97f9f2df0fed2c77648de5860a4cc508cd0818c85b8b8a1ab4ceeef8d981c8956a66109a0565b6109fa816109f561148e565b61154f565b610a247f9f2df0fed2c77648de5860a4cc508cd0818c85b8b8a1ab4ceeef8d981c8956a6836115ec565b5050565b610a32828261195a565b610a5781600c60008581526020019081526020016000206113e090919063ffffffff16565b505050565b6000610a6783610d74565b8210610aa8576040517f08c379a0000000000000000000000000000000000000000000000000000000008152600401610a9f9061425a565b60405180910390fd5b600760008473ffffffffffffffffffffffffffffffffffffffff1673ffffffffffffffffffffffffffffffffffffffff168152602001908152602001600020600083815260200190815260200160002054905092915050565b610b09610cab565b15610b49576040517f08c379a0000000000000000000000000000000000000000000000000000000008152600401610b409061433a565b60405180910390fd5b610b737f9f2df0fed2c77648de5860a4cc508cd0818c85b8b8a1ab4ceeef8d981c8956a63361154f565b610b7e8383836116fe565b505050565b610b8d8282611983565b610bb281600c6000858152602001908152602001600020611a0690919063ffffffff16565b505050565b610be17f65d7a28e3265b37a6474929f336521b332c1681b933f6cb9f3376673440d862a33610fa5565b610bea57600080fd5b610bf2611a36565b565b610c0f8383836040518060200160405280600081525061122a565b505050565b6000610c1e610933565b8210610c5f576040517f08c379a0000000000000000000000000000000000000000000000000000000008152600401610c569061449a565b60405180910390fd5b60098281548110610c99577f4e487b7100000000000000000000000000000000000000000000000000000000600052603260045260246000fd5b90600052602060002001549050919050565b6000600d60009054906101000a900460ff16905090565b6000806002600084815260200190815260200160002060009054906101000a900473ffffffffffffffffffffffffffffffffffffffff169050600073ffffffffffffffffffffffffffffffffffffffff168173ffffffffffffffffffffffffffffffffffffffff161415610d6b576040517f08c379a0000000000000000000000000000000000000000000000000000000008152600401610d629061439a565b60405180910390fd5b80915050919050565b60008073ffffffffffffffffffffffffffffffffffffffff168273ffffffffffffffffffffffffffffffffffffffff161415610de5576040517f08c379a0000000000000000000000000000000000000000000000000000000008152600401610ddc9061437a565b60405180910390fd5b600360008373ffffffffffffffffffffffffffffffffffffffff1673ffffffffffffffffffffffffffffffffffffffff168152602001908152602001600020549050919050565b610e567f65d7a28e3265b37a6474929f336521b332c1681b933f6cb9f3376673440d862a33610fa5565b610e5f57600080fd5b610e67611ad8565b565b6000610e73610cab565b15610eb3576040517f08c379a0000000000000000000000000000000000000000000000000000000008152600401610eaa9061433a565b60405180910390fd5b610edd7f9f2df0fed2c77648de5860a4cc508cd0818c85b8b8a1ab4ceeef8d981c8956a63361154f565b608082511115610f22576040517f08c379a0000000000000000000000000000000000000000000000000000000008152600401610f199061431a565b60405180910390fd5b610f2c600e611b7b565b6000610f38600e611b91565b9050610f448482611b9f565b82600f60008381526020019081526020016000209080519060200190610f6b9291906132dc565b508091505092915050565b6000610f9d82600c6000868152602001908152602001600020611bbd90919063ffffffff16565b905092915050565b6000600b600084815260200190815260200160002060000160008373ffffffffffffffffffffffffffffffffffffffff1673ffffffffffffffffffffffffffffffffffffffff16815260200190815260200160002060009054906101000a900460ff16905092915050565b60606001805461101f906147c8565b80601f016020809104026020016040519081016040528092919081815260200182805461104b906147c8565b80156110985780601f1061106d57610100808354040283529160200191611098565b820191906000526020600020905b81548152906001019060200180831161107b57829003601f168201915b5050505050905090565b6000801b81565b6110b161148e565b73ffffffffffffffffffffffffffffffffffffffff168273ffffffffffffffffffffffffffffffffffffffff16141561111f576040517f08c379a0000000000000000000000000000000000000000000000000000000008152600401611116906142da565b60405180910390fd5b806005600061112c61148e565b73ffffffffffffffffffffffffffffffffffffffff1673ffffffffffffffffffffffffffffffffffffffff16815260200190815260200160002060008473ffffffffffffffffffffffffffffffffffffffff1673ffffffffffffffffffffffffffffffffffffffff16815260200190815260200160002060006101000a81548160ff0219169083151502179055508173ffffffffffffffffffffffffffffffffffffffff166111d961148e565b73ffffffffffffffffffffffffffffffffffffffff167f17307eab39ab6107e8899845ad3d59bd9653f200f220920489ca2b5937696c318360405161121e91906141c2565b60405180910390a35050565b61123b61123561148e565b83611620565b61127a576040517f08c379a00000000000000000000000000000000000000000000000000000000081526004016112719061447a565b60405180910390fd5b61128684848484611bd7565b50505050565b606061129782611c33565b9050919050565b60006112bb600c6000848152602001908152602001600020611d85565b9050919050565b7f9f2df0fed2c77648de5860a4cc508cd0818c85b8b8a1ab4ceeef8d981c8956a681565b6112f08282611d9a565b61131581600c6000858152602001908152602001600020611a0690919063ffffffff16565b505050565b7f65d7a28e3265b37a6474929f336521b332c1681b933f6cb9f3376673440d862a81565b6000600560008473ffffffffffffffffffffffffffffffffffffffff1673ffffffffffffffffffffffffffffffffffffffff16815260200190815260200160002060008373ffffffffffffffffffffffffffffffffffffffff1673ffffffffffffffffffffffffffffffffffffffff16815260200190815260200160002060009054906101000a900460ff16905092915050565b6113dc8282611dc3565b5050565b6000611408836000018373ffffffffffffffffffffffffffffffffffffffff1660001b611ea4565b905092915050565b600061141b82611f14565b9050919050565b60008073ffffffffffffffffffffffffffffffffffffffff166002600084815260200190815260200160002060009054906101000a900473ffffffffffffffffffffffffffffffffffffffff1673ffffffffffffffffffffffffffffffffffffffff1614159050919050565b600033905090565b816004600083815260200190815260200160002060006101000a81548173ffffffffffffffffffffffffffffffffffffffff021916908373ffffffffffffffffffffffffffffffffffffffff160217905550808273ffffffffffffffffffffffffffffffffffffffff1661150983610cc2565b73ffffffffffffffffffffffffffffffffffffffff167f8c5be1e5ebec7d5bd14f71427d1e84f3dd0314c0f7b2291e5b200ac8c7c3b92560405160405180910390a45050565b6115598282610fa5565b6115e85761157e8173ffffffffffffffffffffffffffffffffffffffff166014611f8e565b61158c8360001c6020611f8e565b60405160200161159d929190614121565b6040516020818303038152906040526040517f08c379a00000000000000000000000000000000000000000000000000000000081526004016115df91906141f8565b60405180910390fd5b5050565b6115f682826113d2565b61161b81600c60008581526020019081526020016000206113e090919063ffffffff16565b505050565b600061162b82611422565b61166a576040517f08c379a0000000000000000000000000000000000000000000000000000000008152600401611661906142fa565b60405180910390fd5b600061167583610cc2565b90508073ffffffffffffffffffffffffffffffffffffffff168473ffffffffffffffffffffffffffffffffffffffff1614806116e457508373ffffffffffffffffffffffffffffffffffffffff166116cc8461072e565b73ffffffffffffffffffffffffffffffffffffffff16145b806116f557506116f4818561133e565b5b91505092915050565b8273ffffffffffffffffffffffffffffffffffffffff1661171e82610cc2565b73ffffffffffffffffffffffffffffffffffffffff1614611774576040517f08c379a000000000000000000000000000000000000000000000000000000000815260040161176b9061441a565b60405180910390fd5b600073ffffffffffffffffffffffffffffffffffffffff168273ffffffffffffffffffffffffffffffffffffffff1614156117e4576040517f08c379a00000000000000000000000000000000000000000000000000000000081526004016117db906142ba565b60405180910390fd5b6117ef838383612288565b6117fa600082611496565b6001600360008573ffffffffffffffffffffffffffffffffffffffff1673ffffffffffffffffffffffffffffffffffffffff168152602001908152602001600020600082825461184a91906146aa565b925050819055506001600360008473ffffffffffffffffffffffffffffffffffffffff1673ffffffffffffffffffffffffffffffffffffffff16815260200190815260200160002060008282546118a191906145c9565b92505081905550816002600083815260200190815260200160002060006101000a81548173ffffffffffffffffffffffffffffffffffffffff021916908373ffffffffffffffffffffffffffffffffffffffff160217905550808273ffffffffffffffffffffffffffffffffffffffff168473ffffffffffffffffffffffffffffffffffffffff167fddf252ad1be2c89b69c2b068fc378daa952ba7f163c4a11628f55a4df523b3ef60405160405180910390a4505050565b611963826109a0565b6119748161196f61148e565b61154f565b61197e8383611dc3565b505050565b61198b61148e565b73ffffffffffffffffffffffffffffffffffffffff168173ffffffffffffffffffffffffffffffffffffffff16146119f8576040517f08c379a00000000000000000000000000000000000000000000000000000000081526004016119ef906144ba565b60405180910390fd5b611a0282826122e0565b5050565b6000611a2e836000018373ffffffffffffffffffffffffffffffffffffffff1660001b6123c2565b905092915050565b611a3e610cab565b611a7d576040517f08c379a0000000000000000000000000000000000000000000000000000000008152600401611a749061423a565b60405180910390fd5b6000600d60006101000a81548160ff0219169083151502179055507f5db9ee0a495bf2e6ff9c91a7834c1ba4fdd244a5e8aa4e537bd38aeae4b073aa611ac161148e565b604051611ace919061415b565b60405180910390a1565b611ae0610cab565b15611b20576040517f08c379a0000000000000000000000000000000000000000000000000000000008152600401611b179061433a565b60405180910390fd5b6001600d60006101000a81548160ff0219169083151502179055507f62e78cea01bee320cd4e420270b5ea74000d11b0c9f74754ebdbfc544b05a258611b6461148e565b604051611b71919061415b565b60405180910390a1565b6001816000016000828254019250508190555050565b600081600001549050919050565b611bb9828260405180602001604052806000815250612548565b5050565b6000611bcc83600001836125a3565b60001c905092915050565b611be28484846116fe565b611bee848484846125f4565b611c2d576040517f08c379a0000000000000000000000000000000000000000000000000000000008152600401611c249061427a565b60405180910390fd5b50505050565b6060611c3e82611422565b611c7d576040517f08c379a0000000000000000000000000000000000000000000000000000000008152600401611c74906143da565b60405180910390fd5b6000600660008481526020019081526020016000208054611c9d906147c8565b80601f0160208091040260200160405190810160405280929190818152602001828054611cc9906147c8565b8015611d165780601f10611ceb57610100808354040283529160200191611d16565b820191906000526020600020905b815481529060010190602001808311611cf957829003601f168201915b505050505090506000611d2761278b565b9050600081511415611d3d578192505050611d80565b600082511115611d72578082604051602001611d5a9291906140fd565b60405160208183030381529060405292505050611d80565b611d7b846127a2565b925050505b919050565b6000611d9382600001612849565b9050919050565b611da3826109a0565b611db481611daf61148e565b61154f565b611dbe83836122e0565b505050565b611dcd8282610fa5565b611ea0576001600b600084815260200190815260200160002060000160008373ffffffffffffffffffffffffffffffffffffffff1673ffffffffffffffffffffffffffffffffffffffff16815260200190815260200160002060006101000a81548160ff021916908315150217905550611e4561148e565b73ffffffffffffffffffffffffffffffffffffffff168173ffffffffffffffffffffffffffffffffffffffff16837f2f8788117e7eff1d82e926ec794901d17c78024a50270940304540a733656f0d60405160405180910390a45b5050565b6000611eb0838361285a565b611f09578260000182908060018154018082558091505060019003906000526020600020016000909190919091505582600001805490508360010160008481526020019081526020016000208190555060019050611f0e565b600090505b92915050565b60007f5a05180f000000000000000000000000000000000000000000000000000000007bffffffffffffffffffffffffffffffffffffffffffffffffffffffff1916827bffffffffffffffffffffffffffffffffffffffffffffffffffffffff19161480611f875750611f868261287d565b5b9050919050565b606060006002836002611fa19190614650565b611fab91906145c9565b67ffffffffffffffff811115611fea577f4e487b7100000000000000000000000000000000000000000000000000000000600052604160045260246000fd5b6040519080825280601f01601f19166020018201604052801561201c5781602001600182028036833780820191505090505b5090507f30000000000000000000000000000000000000000000000000000000000000008160008151811061207a577f4e487b7100000000000000000000000000000000000000000000000000000000600052603260045260246000fd5b60200101907effffffffffffffffffffffffffffffffffffffffffffffffffffffffffffff1916908160001a9053507f780000000000000000000000000000000000000000000000000000000000000081600181518110612104577f4e487b7100000000000000000000000000000000000000000000000000000000600052603260045260246000fd5b60200101907effffffffffffffffffffffffffffffffffffffffffffffffffffffffffffff1916908160001a905350600060018460026121449190614650565b61214e91906145c9565b90505b600181111561223a577f3031323334353637383961626364656600000000000000000000000000000000600f8616601081106121b6577f4e487b7100000000000000000000000000000000000000000000000000000000600052603260045260246000fd5b1a60f81b8282815181106121f3577f4e487b7100000000000000000000000000000000000000000000000000000000600052603260045260246000fd5b60200101907effffffffffffffffffffffffffffffffffffffffffffffffffffffffffffff1916908160001a905350600485901c9450806122339061479e565b9050612151565b506000841461227e576040517f08c379a00000000000000000000000000000000000000000000000000000000081526004016122759061421a565b60405180910390fd5b8091505092915050565b612290610cab565b156122d0576040517f08c379a00000000000000000000000000000000000000000000000000000000081526004016122c79061433a565b60405180910390fd5b6122db8383836128f7565b505050565b6122ea8282610fa5565b156123be576000600b600084815260200190815260200160002060000160008373ffffffffffffffffffffffffffffffffffffffff1673ffffffffffffffffffffffffffffffffffffffff16815260200190815260200160002060006101000a81548160ff02191690831515021790555061236361148e565b73ffffffffffffffffffffffffffffffffffffffff168173ffffffffffffffffffffffffffffffffffffffff16837ff6391f5c32d9c69d2a47ea670b442974b53935d1edc7fd64eb21e047a839171b60405160405180910390a45b5050565b6000808360010160008481526020019081526020016000205490506000811461253c5760006001826123f491906146aa565b905060006001866000018054905061240c91906146aa565b90508181146124c7576000866000018281548110612453577f4e487b7100000000000000000000000000000000000000000000000000000000600052603260045260246000fd5b906000526020600020015490508087600001848154811061249d577f4e487b7100000000000000000000000000000000000000000000000000000000600052603260045260246000fd5b90600052602060002001819055508387600101600083815260200190815260200160002081905550505b85600001805480612501577f4e487b7100000000000000000000000000000000000000000000000000000000600052603160045260246000fd5b600190038181906000526020600020016000905590558560010160008681526020019081526020016000206000905560019350505050612542565b60009150505b92915050565b6125528383612a0b565b61255f60008484846125f4565b61259e576040517f08c379a00000000000000000000000000000000000000000000000000000000081526004016125959061427a565b60405180910390fd5b505050565b60008260000182815481106125e1577f4e487b7100000000000000000000000000000000000000000000000000000000600052603260045260246000fd5b9060005260206000200154905092915050565b60006126158473ffffffffffffffffffffffffffffffffffffffff16612bd9565b1561277e578373ffffffffffffffffffffffffffffffffffffffff1663150b7a0261263e61148e565b8786866040518563ffffffff1660e01b81526004016126609493929190614176565b602060405180830381600087803b15801561267a57600080fd5b505af19250505080156126ab57506040513d601f19601f820116820180604052508101906126a89190613792565b60015b61272e573d80600081146126db576040519150601f19603f3d011682016040523d82523d6000602084013e6126e0565b606091505b50600081511415612726576040517f08c379a000000000000000000000000000000000000000000000000000000000815260040161271d9061427a565b60405180910390fd5b805181602001fd5b63150b7a0260e01b7bffffffffffffffffffffffffffffffffffffffffffffffffffffffff1916817bffffffffffffffffffffffffffffffffffffffffffffffffffffffff191614915050612783565b600190505b949350505050565b606060405180602001604052806000815250905090565b60606127ad82611422565b6127ec576040517f08c379a00000000000000000000000000000000000000000000000000000000081526004016127e39061443a565b60405180910390fd5b60006127f661278b565b905060008151116128165760405180602001604052806000815250612841565b8061282084612bec565b6040516020016128319291906140fd565b6040516020818303038152906040525b915050919050565b600081600001805490509050919050565b600080836001016000848152602001908152602001600020541415905092915050565b60007f7965db0b000000000000000000000000000000000000000000000000000000007bffffffffffffffffffffffffffffffffffffffffffffffffffffffff1916827bffffffffffffffffffffffffffffffffffffffffffffffffffffffff191614806128f057506128ef82612d99565b5b9050919050565b612902838383612e13565b600073ffffffffffffffffffffffffffffffffffffffff168373ffffffffffffffffffffffffffffffffffffffff1614156129455761294081612e18565b612984565b8173ffffffffffffffffffffffffffffffffffffffff168373ffffffffffffffffffffffffffffffffffffffff1614612983576129828382612e61565b5b5b600073ffffffffffffffffffffffffffffffffffffffff168273ffffffffffffffffffffffffffffffffffffffff1614156129c7576129c281612fce565b612a06565b8273ffffffffffffffffffffffffffffffffffffffff168273ffffffffffffffffffffffffffffffffffffffff1614612a0557612a048282613111565b5b5b505050565b600073ffffffffffffffffffffffffffffffffffffffff168273ffffffffffffffffffffffffffffffffffffffff161415612a7b576040517f08c379a0000000000000000000000000000000000000000000000000000000008152600401612a72906143ba565b60405180910390fd5b612a8481611422565b15612ac4576040517f08c379a0000000000000000000000000000000000000000000000000000000008152600401612abb9061429a565b60405180910390fd5b612ad060008383612288565b6001600360008473ffffffffffffffffffffffffffffffffffffffff1673ffffffffffffffffffffffffffffffffffffffff1681526020019081526020016000206000828254612b2091906145c9565b92505081905550816002600083815260200190815260200160002060006101000a81548173ffffffffffffffffffffffffffffffffffffffff021916908373ffffffffffffffffffffffffffffffffffffffff160217905550808273ffffffffffffffffffffffffffffffffffffffff16600073ffffffffffffffffffffffffffffffffffffffff167fddf252ad1be2c89b69c2b068fc378daa952ba7f163c4a11628f55a4df523b3ef60405160405180910390a45050565b600080823b905060008111915050919050565b60606000821415612c34576040518060400160405280600181526020017f30000000000000000000000000000000000000000000000000000000000000008152509050612d94565b600082905060005b60008214612c66578080612c4f906147fa565b915050600a82612c5f919061461f565b9150612c3c565b60008167ffffffffffffffff811115612ca8577f4e487b7100000000000000000000000000000000000000000000000000000000600052604160045260246000fd5b6040519080825280601f01601f191660200182016040528015612cda5781602001600182028036833780820191505090505b5090505b60008514612d8d57600182612cf391906146aa565b9150600a85612d029190614843565b6030612d0e91906145c9565b60f81b818381518110612d4a577f4e487b7100000000000000000000000000000000000000000000000000000000600052603260045260246000fd5b60200101907effffffffffffffffffffffffffffffffffffffffffffffffffffffffffffff1916908160001a905350600a85612d86919061461f565b9450612cde565b8093505050505b919050565b60007f780e9d63000000000000000000000000000000000000000000000000000000007bffffffffffffffffffffffffffffffffffffffffffffffffffffffff1916827bffffffffffffffffffffffffffffffffffffffffffffffffffffffff19161480612e0c5750612e0b82613190565b5b9050919050565b505050565b600980549050600a600083815260200190815260200160002081905550600981908060018154018082558091505060019003906000526020600020016000909190919091505550565b60006001612e6e84610d74565b612e7891906146aa565b9050600060086000848152602001908152602001600020549050818114612f5d576000600760008673ffffffffffffffffffffffffffffffffffffffff1673ffffffffffffffffffffffffffffffffffffffff168152602001908152602001600020600084815260200190815260200160002054905080600760008773ffffffffffffffffffffffffffffffffffffffff1673ffffffffffffffffffffffffffffffffffffffff168152602001908152602001600020600084815260200190815260200160002081905550816008600083815260200190815260200160002081905550505b6008600084815260200190815260200160002060009055600760008573ffffffffffffffffffffffffffffffffffffffff1673ffffffffffffffffffffffffffffffffffffffff16815260200190815260200160002060008381526020019081526020016000206000905550505050565b60006001600980549050612fe291906146aa565b90506000600a6000848152602001908152602001600020549050600060098381548110613038577f4e487b7100000000000000000000000000000000000000000000000000000000600052603260045260246000fd5b906000526020600020015490508060098381548110613080577f4e487b7100000000000000000000000000000000000000000000000000000000600052603260045260246000fd5b906000526020600020018190555081600a600083815260200190815260200160002081905550600a60008581526020019081526020016000206000905560098054806130f5577f4e487b7100000000000000000000000000000000000000000000000000000000600052603160045260246000fd5b6001900381819060005260206000200160009055905550505050565b600061311c83610d74565b905081600760008573ffffffffffffffffffffffffffffffffffffffff1673ffffffffffffffffffffffffffffffffffffffff168152602001908152602001600020600083815260200190815260200160002081905550806008600084815260200190815260200160002081905550505050565b60007f80ac58cd000000000000000000000000000000000000000000000000000000007bffffffffffffffffffffffffffffffffffffffffffffffffffffffff1916827bffffffffffffffffffffffffffffffffffffffffffffffffffffffff1916148061325b57507f5b5e139f000000000000000000000000000000000000000000000000000000007bffffffffffffffffffffffffffffffffffffffffffffffffffffffff1916827bffffffffffffffffffffffffffffffffffffffffffffffffffffffff1916145b8061326b575061326a82613272565b5b9050919050565b60007f01ffc9a7000000000000000000000000000000000000000000000000000000007bffffffffffffffffffffffffffffffffffffffffffffffffffffffff1916827bffffffffffffffffffffffffffffffffffffffffffffffffffffffff1916149050919050565b8280546132e8906147c8565b90600052602060002090601f01602090048101928261330a5760008555613351565b82601f1061332357805160ff1916838001178555613351565b82800160010185558215613351579182015b82811115613350578251825591602001919060010190613335565b5b50905061335e9190613362565b5090565b5b8082111561337b576000816000905550600101613363565b5090565b600061339261338d84614526565b6144f5565b9050828152602081018484840111156133aa57600080fd5b6133b584828561475c565b509392505050565b60006133d06133cb84614556565b6144f5565b9050828152602081018484840111156133e857600080fd5b6133f384828561475c565b509392505050565b60008135905061340a81614941565b92915050565b60008135905061341f81614958565b92915050565b6000813590506134348161496f565b92915050565b60008135905061344981614986565b92915050565b60008151905061345e81614986565b92915050565b600082601f83011261347557600080fd5b813561348584826020860161337f565b91505092915050565b600082601f83011261349f57600080fd5b81356134af8482602086016133bd565b91505092915050565b6000813590506134c78161499d565b92915050565b6000602082840312156134df57600080fd5b60006134ed848285016133fb565b91505092915050565b6000806040838503121561350957600080fd5b6000613517858286016133fb565b9250506020613528858286016133fb565b9150509250929050565b60008060006060848603121561354757600080fd5b6000613555868287016133fb565b9350506020613566868287016133fb565b9250506040613577868287016134b8565b9150509250925092565b6000806000806080858703121561359757600080fd5b60006135a5878288016133fb565b94505060206135b6878288016133fb565b93505060406135c7878288016134b8565b925050606085013567ffffffffffffffff8111156135e457600080fd5b6135f087828801613464565b91505092959194509250565b6000806040838503121561360f57600080fd5b600061361d858286016133fb565b925050602061362e85828601613410565b9150509250929050565b6000806040838503121561364b57600080fd5b6000613659858286016133fb565b925050602083013567ffffffffffffffff81111561367657600080fd5b6136828582860161348e565b9150509250929050565b6000806040838503121561369f57600080fd5b60006136ad858286016133fb565b92505060206136be858286016134b8565b9150509250929050565b6000602082840312156136da57600080fd5b60006136e884828501613425565b91505092915050565b6000806040838503121561370457600080fd5b600061371285828601613425565b9250506020613723858286016133fb565b9150509250929050565b6000806040838503121561374057600080fd5b600061374e85828601613425565b925050602061375f858286016134b8565b9150509250929050565b60006020828403121561377b57600080fd5b60006137898482850161343a565b91505092915050565b6000602082840312156137a457600080fd5b60006137b28482850161344f565b91505092915050565b6000602082840312156137cd57600080fd5b60006137db848285016134b8565b91505092915050565b6137ed816146de565b82525050565b6137fc816146f0565b82525050565b61380b816146fc565b82525050565b600061381c82614586565b613826818561459c565b935061383681856020860161476b565b61383f81614930565b840191505092915050565b600061385582614591565b61385f81856145ad565b935061386f81856020860161476b565b61387881614930565b840191505092915050565b600061388e82614591565b61389881856145be565b93506138a881856020860161476b565b80840191505092915050565b60006138c16020836145ad565b91507f537472696e67733a20686578206c656e67746820696e73756666696369656e746000830152602082019050919050565b60006139016014836145ad565b91507f5061757361626c653a206e6f74207061757365640000000000000000000000006000830152602082019050919050565b6000613941602b836145ad565b91507f455243373231456e756d657261626c653a206f776e657220696e646578206f7560008301527f74206f6620626f756e64730000000000000000000000000000000000000000006020830152604082019050919050565b60006139a76032836145ad565b91507f4552433732313a207472616e7366657220746f206e6f6e20455243373231526560008301527f63656976657220696d706c656d656e74657200000000000000000000000000006020830152604082019050919050565b6000613a0d601c836145ad565b91507f4552433732313a20746f6b656e20616c7265616479206d696e746564000000006000830152602082019050919050565b6000613a4d6024836145ad565b91507f4552433732313a207472616e7366657220746f20746865207a65726f2061646460008301527f72657373000000000000000000000000000000000000000000000000000000006020830152604082019050919050565b6000613ab36019836145ad565b91507f4552433732313a20617070726f766520746f2063616c6c6572000000000000006000830152602082019050919050565b6000613af3602c836145ad565b91507f4552433732313a206f70657261746f7220717565727920666f72206e6f6e657860008301527f697374656e7420746f6b656e00000000000000000000000000000000000000006020830152604082019050919050565b6000613b59601c836145ad565b91507f67656e67206f7665722062797465733332206c656e67746820313238000000006000830152602082019050919050565b6000613b996010836145ad565b91507f5061757361626c653a20706175736564000000000000000000000000000000006000830152602082019050919050565b6000613bd96038836145ad565b91507f4552433732313a20617070726f76652063616c6c6572206973206e6f74206f7760008301527f6e6572206e6f7220617070726f76656420666f7220616c6c00000000000000006020830152604082019050919050565b6000613c3f602a836145ad565b91507f4552433732313a2062616c616e636520717565727920666f7220746865207a6560008301527f726f2061646472657373000000000000000000000000000000000000000000006020830152604082019050919050565b6000613ca56029836145ad565b91507f4552433732313a206f776e657220717565727920666f72206e6f6e657869737460008301527f656e7420746f6b656e00000000000000000000000000000000000000000000006020830152604082019050919050565b6000613d0b6020836145ad565b91507f4552433732313a206d696e7420746f20746865207a65726f20616464726573736000830152602082019050919050565b6000613d4b6031836145ad565b91507f45524337323155524953746f726167653a2055524920717565727920666f722060008301527f6e6f6e6578697374656e7420746f6b656e0000000000000000000000000000006020830152604082019050919050565b6000613db1602c836145ad565b91507f4552433732313a20617070726f76656420717565727920666f72206e6f6e657860008301527f697374656e7420746f6b656e00000000000000000000000000000000000000006020830152604082019050919050565b6000613e176029836145ad565b91507f4552433732313a207472616e73666572206f6620746f6b656e2074686174206960008301527f73206e6f74206f776e00000000000000000000000000000000000000000000006020830152604082019050919050565b6000613e7d602f836145ad565b91507f4552433732314d657461646174613a2055524920717565727920666f72206e6f60008301527f6e6578697374656e7420746f6b656e00000000000000000000000000000000006020830152604082019050919050565b6000613ee36021836145ad565b91507f4552433732313a20617070726f76616c20746f2063757272656e74206f776e6560008301527f72000000000000000000000000000000000000000000000000000000000000006020830152604082019050919050565b6000613f496031836145ad565b91507f4552433732313a207472616e736665722063616c6c6572206973206e6f74206f60008301527f776e6572206e6f7220617070726f7665640000000000000000000000000000006020830152604082019050919050565b6000613faf602c836145ad565b91507f455243373231456e756d657261626c653a20676c6f62616c20696e646578206f60008301527f7574206f6620626f756e647300000000000000000000000000000000000000006020830152604082019050919050565b60006140156017836145be565b91507f416363657373436f6e74726f6c3a206163636f756e74200000000000000000006000830152601782019050919050565b60006140556011836145be565b91507f206973206d697373696e6720726f6c65200000000000000000000000000000006000830152601182019050919050565b6000614095602f836145ad565b91507f416363657373436f6e74726f6c3a2063616e206f6e6c792072656e6f756e636560008301527f20726f6c657320666f722073656c6600000000000000000000000000000000006020830152604082019050919050565b6140f781614752565b82525050565b60006141098285613883565b91506141158284613883565b91508190509392505050565b600061412c82614008565b91506141388285613883565b915061414382614048565b915061414f8284613883565b91508190509392505050565b600060208201905061417060008301846137e4565b92915050565b600060808201905061418b60008301876137e4565b61419860208301866137e4565b6141a560408301856140ee565b81810360608301526141b78184613811565b905095945050505050565b60006020820190506141d760008301846137f3565b92915050565b60006020820190506141f26000830184613802565b92915050565b60006020820190508181036000830152614212818461384a565b905092915050565b60006020820190508181036000830152614233816138b4565b9050919050565b60006020820190508181036000830152614253816138f4565b9050919050565b6000602082019050818103600083015261427381613934565b9050919050565b600060208201905081810360008301526142938161399a565b9050919050565b600060208201905081810360008301526142b381613a00565b9050919050565b600060208201905081810360008301526142d381613a40565b9050919050565b600060208201905081810360008301526142f381613aa6565b9050919050565b6000602082019050818103600083015261431381613ae6565b9050919050565b6000602082019050818103600083015261433381613b4c565b9050919050565b6000602082019050818103600083015261435381613b8c565b9050919050565b6000602082019050818103600083015261437381613bcc565b9050919050565b6000602082019050818103600083015261439381613c32565b9050919050565b600060208201905081810360008301526143b381613c98565b9050919050565b600060208201905081810360008301526143d381613cfe565b9050919050565b600060208201905081810360008301526143f381613d3e565b9050919050565b6000602082019050818103600083015261441381613da4565b9050919050565b6000602082019050818103600083015261443381613e0a565b9050919050565b6000602082019050818103600083015261445381613e70565b9050919050565b6000602082019050818103600083015261447381613ed6565b9050919050565b6000602082019050818103600083015261449381613f3c565b9050919050565b600060208201905081810360008301526144b381613fa2565b9050919050565b600060208201905081810360008301526144d381614088565b9050919050565b60006020820190506144ef60008301846140ee565b92915050565b6000604051905081810181811067ffffffffffffffff8211171561451c5761451b614901565b5b8060405250919050565b600067ffffffffffffffff82111561454157614540614901565b5b601f19601f8301169050602081019050919050565b600067ffffffffffffffff82111561457157614570614901565b5b601f19601f8301169050602081019050919050565b600081519050919050565b600081519050919050565b600082825260208201905092915050565b600082825260208201905092915050565b600081905092915050565b60006145d482614752565b91506145df83614752565b9250827fffffffffffffffffffffffffffffffffffffffffffffffffffffffffffffffff0382111561461457614613614874565b5b828201905092915050565b600061462a82614752565b915061463583614752565b925082614645576146446148a3565b5b828204905092915050565b600061465b82614752565b915061466683614752565b9250817fffffffffffffffffffffffffffffffffffffffffffffffffffffffffffffffff048311821515161561469f5761469e614874565b5b828202905092915050565b60006146b582614752565b91506146c083614752565b9250828210156146d3576146d2614874565b5b828203905092915050565b60006146e982614732565b9050919050565b60008115159050919050565b6000819050919050565b60007fffffffff0000000000000000000000000000000000000000000000000000000082169050919050565b600073ffffffffffffffffffffffffffffffffffffffff82169050919050565b6000819050919050565b82818337600083830152505050565b60005b8381101561478957808201518184015260208101905061476e565b83811115614798576000848401525b50505050565b60006147a982614752565b915060008214156147bd576147bc614874565b5b600182039050919050565b600060028204905060018216806147e057607f821691505b602082108114156147f4576147f36148d2565b5b50919050565b600061480582614752565b91507fffffffffffffffffffffffffffffffffffffffffffffffffffffffffffffffff82141561483857614837614874565b5b600182019050919050565b600061484e82614752565b915061485983614752565b925082614869576148686148a3565b5b828206905092915050565b7f4e487b7100000000000000000000000000000000000000000000000000000000600052601160045260246000fd5b7f4e487b7100000000000000000000000000000000000000000000000000000000600052601260045260246000fd5b7f4e487b7100000000000000000000000000000000000000000000000000000000600052602260045260246000fd5b7f4e487b7100000000000000000000000000000000000000000000000000000000600052604160045260246000fd5b6000601f19601f8301169050919050565b61494a816146de565b811461495557600080fd5b50565b614961816146f0565b811461496c57600080fd5b50565b614978816146fc565b811461498357600080fd5b50565b61498f81614706565b811461499a57600080fd5b50565b6149a681614752565b81146149b157600080fd5b5056fea264697066735822122077d91cfd16bd005fe0070d277b832b123d665cbf23b4fa1da2a51ae9ffb5984964736f6c63430008000033",
  "immutableReferences": {},
  "source": "// SPDX-License-Identifier: MIT\npragma solidity ^0.8.0;\n\nimport \"@openzeppelin/contracts/token/ERC721/extensions/ERC721Enumerable.sol\";\nimport \"@openzeppelin/contracts/token/ERC721/extensions/ERC721URIStorage.sol\";\nimport \"@openzeppelin/contracts/utils/Counters.sol\";\nimport \"./base/SecurityBase.sol\";\n\ncontract Geng is ERC721URIStorage, ERC721Enumerable, SecurityBase\n{\n    using Counters for Counters.Counter;\n    Counters.Counter private _tokenIds;\n\n    mapping(uint256 => string) private _GengMap;\n\n    event GengCreated(uint256 tokenId, address owner, string geng);\n\n    constructor() ERC721(\"Geng\", \"GENG\") {\n    }\n\n\n    function _beforeTokenTransfer(address from, address to, uint256 tokenId)\n        internal\n        whenNotPaused\n        override(ERC721, ERC721Enumerable)\n    {\n        super._beforeTokenTransfer(from, to, tokenId);\n    }\n\n    function _burn(uint256 tokenId) internal whenNotPaused override(ERC721, ERC721URIStorage) {\n        super._burn(tokenId);\n    }\n\n    function tokenURI(uint256 tokenId)\n        public\n        view\n        override(ERC721, ERC721URIStorage)\n        returns (string memory)\n    {\n        return super.tokenURI(tokenId);\n    }\n\n    function supportsInterface(bytes4 interfaceId)\n        public\n        view\n        override(ERC721, ERC721Enumerable, SecurityBase)\n        returns (bool)\n    {\n        return super.supportsInterface(interfaceId);\n    }\n    \n    function safeMintGeng(address to, string memory geng) public whenNotPaused onlyMinter returns (uint256) {\n        require(bytes(geng).length <= 128, \"geng over bytes32 length 128\");\n        _tokenIds.increment();\n        uint256 tokenId = _tokenIds.current();\n        _safeMint(to, tokenId);\n        _GengMap[tokenId] = geng;\n        return tokenId;\n    }\n\n    function mintTransform(address from, address to, uint256 tokenId) public whenNotPaused onlyMinter {\n        _transfer(from, to, tokenId);\n    }\n}\n",
  "sourcePath": "/Users/fank/code/freedom/geng-contracts/contracts/Geng.sol",
  "compiler": {
    "name": "solc",
    "version": "0.8.0+commit.c7dfd78e.Emscripten.clang"
  },
  "schemaVersion": "3.4.3",
  "updatedAt": "2021-09-04T16:22:34.724Z",
  "networkType": "ethereum",
  "devdoc": {
    "kind": "dev",
    "methods": {
      "approve(address,uint256)": {
        "details": "See {IERC721-approve}."
      },
      "balanceOf(address)": {
        "details": "See {IERC721-balanceOf}."
      },
      "getApproved(uint256)": {
        "details": "See {IERC721-getApproved}."
      },
      "getRoleAdmin(bytes32)": {
        "details": "Returns the admin role that controls `role`. See {grantRole} and {revokeRole}. To change a role's admin, use {_setRoleAdmin}."
      },
      "getRoleMember(bytes32,uint256)": {
        "details": "Returns one of the accounts that have `role`. `index` must be a value between 0 and {getRoleMemberCount}, non-inclusive. Role bearers are not sorted in any particular way, and their ordering may change at any point. WARNING: When using {getRoleMember} and {getRoleMemberCount}, make sure you perform all queries on the same block. See the following https://forum.openzeppelin.com/t/iterating-over-elements-on-enumerableset-in-openzeppelin-contracts/2296[forum post] for more information."
      },
      "getRoleMemberCount(bytes32)": {
        "details": "Returns the number of accounts that have `role`. Can be used together with {getRoleMember} to enumerate all bearers of a role."
      },
      "grantRole(bytes32,address)": {
        "details": "Overload {grantRole} to track enumerable memberships"
      },
      "hasRole(bytes32,address)": {
        "details": "Returns `true` if `account` has been granted `role`."
      },
      "isApprovedForAll(address,address)": {
        "details": "See {IERC721-isApprovedForAll}."
      },
      "name()": {
        "details": "See {IERC721Metadata-name}."
      },
      "ownerOf(uint256)": {
        "details": "See {IERC721-ownerOf}."
      },
      "paused()": {
        "details": "Returns true if the contract is paused, and false otherwise."
      },
      "renounceRole(bytes32,address)": {
        "details": "Overload {renounceRole} to track enumerable memberships"
      },
      "revokeRole(bytes32,address)": {
        "details": "Overload {revokeRole} to track enumerable memberships"
      },
      "safeTransferFrom(address,address,uint256)": {
        "details": "See {IERC721-safeTransferFrom}."
      },
      "safeTransferFrom(address,address,uint256,bytes)": {
        "details": "See {IERC721-safeTransferFrom}."
      },
      "setApprovalForAll(address,bool)": {
        "details": "See {IERC721-setApprovalForAll}."
      },
      "symbol()": {
        "details": "See {IERC721Metadata-symbol}."
      },
      "tokenByIndex(uint256)": {
        "details": "See {IERC721Enumerable-tokenByIndex}."
      },
      "tokenOfOwnerByIndex(address,uint256)": {
        "details": "See {IERC721Enumerable-tokenOfOwnerByIndex}."
      },
      "totalSupply()": {
        "details": "See {IERC721Enumerable-totalSupply}."
      },
      "transferFrom(address,address,uint256)": {
        "details": "See {IERC721-transferFrom}."
      }
    },
    "version": 1
  },
  "userdoc": {
    "kind": "user",
    "methods": {},
    "version": 1
  }
}