{
  "contractName": "SecurityBase",
  "abi": [
    {
      "inputs": [],
      "stateMutability": "nonpayable",
      "type": "constructor"
    },
    {
      "anonymous": false,
      "inputs": [
        {
          "indexed": false,
          "internalType": "address",
          "name": "account",
          "type": "address"
        }
      ],
      "name": "Paused",
      "type": "event"
    },
    {
      "anonymous": false,
      "inputs": [
        {
          "indexed": true,
          "internalType": "bytes32",
          "name": "role",
          "type": "bytes32"
        },
        {
          "indexed": true,
          "internalType": "bytes32",
          "name": "previousAdminRole",
          "type": "bytes32"
        },
        {
          "indexed": true,
          "internalType": "bytes32",
          "name": "newAdminRole",
          "type": "bytes32"
        }
      ],
      "name": "RoleAdminChanged",
      "type": "event"
    },
    {
      "anonymous": false,
      "inputs": [
        {
          "indexed": true,
          "internalType": "bytes32",
          "name": "role",
          "type": "bytes32"
        },
        {
          "indexed": true,
          "internalType": "address",
          "name": "account",
          "type": "address"
        },
        {
          "indexed": true,
          "internalType": "address",
          "name": "sender",
          "type": "address"
        }
      ],
      "name": "RoleGranted",
      "type": "event"
    },
    {
      "anonymous": false,
      "inputs": [
        {
          "indexed": true,
          "internalType": "bytes32",
          "name": "role",
          "type": "bytes32"
        },
        {
          "indexed": true,
          "internalType": "address",
          "name": "account",
          "type": "address"
        },
        {
          "indexed": true,
          "internalType": "address",
          "name": "sender",
          "type": "address"
        }
      ],
      "name": "RoleRevoked",
      "type": "event"
    },
    {
      "anonymous": false,
      "inputs": [
        {
          "indexed": false,
          "internalType": "address",
          "name": "account",
          "type": "address"
        }
      ],
      "name": "Unpaused",
      "type": "event"
    },
    {
      "inputs": [],
      "name": "DEFAULT_ADMIN_ROLE",
      "outputs": [
        {
          "internalType": "bytes32",
          "name": "",
          "type": "bytes32"
        }
      ],
      "stateMutability": "view",
      "type": "function"
    },
    {
      "inputs": [],
      "name": "MINTER_ROLE",
      "outputs": [
        {
          "internalType": "bytes32",
          "name": "",
          "type": "bytes32"
        }
      ],
      "stateMutability": "view",
      "type": "function"
    },
    {
      "inputs": [],
      "name": "PAUSER_ROLE",
      "outputs": [
        {
          "internalType": "bytes32",
          "name": "",
          "type": "bytes32"
        }
      ],
      "stateMutability": "view",
      "type": "function"
    },
    {
      "inputs": [
        {
          "internalType": "bytes32",
          "name": "role",
          "type": "bytes32"
        }
      ],
      "name": "getRoleAdmin",
      "outputs": [
        {
          "internalType": "bytes32",
          "name": "",
          "type": "bytes32"
        }
      ],
      "stateMutability": "view",
      "type": "function"
    },
    {
      "inputs": [
        {
          "internalType": "bytes32",
          "name": "role",
          "type": "bytes32"
        },
        {
          "internalType": "uint256",
          "name": "index",
          "type": "uint256"
        }
      ],
      "name": "getRoleMember",
      "outputs": [
        {
          "internalType": "address",
          "name": "",
          "type": "address"
        }
      ],
      "stateMutability": "view",
      "type": "function"
    },
    {
      "inputs": [
        {
          "internalType": "bytes32",
          "name": "role",
          "type": "bytes32"
        }
      ],
      "name": "getRoleMemberCount",
      "outputs": [
        {
          "internalType": "uint256",
          "name": "",
          "type": "uint256"
        }
      ],
      "stateMutability": "view",
      "type": "function"
    },
    {
      "inputs": [
        {
          "internalType": "bytes32",
          "name": "role",
          "type": "bytes32"
        },
        {
          "internalType": "address",
          "name": "account",
          "type": "address"
        }
      ],
      "name": "grantRole",
      "outputs": [],
      "stateMutability": "nonpayable",
      "type": "function"
    },
    {
      "inputs": [
        {
          "internalType": "bytes32",
          "name": "role",
          "type": "bytes32"
        },
        {
          "internalType": "address",
          "name": "account",
          "type": "address"
        }
      ],
      "name": "hasRole",
      "outputs": [
        {
          "internalType": "bool",
          "name": "",
          "type": "bool"
        }
      ],
      "stateMutability": "view",
      "type": "function"
    },
    {
      "inputs": [],
      "name": "paused",
      "outputs": [
        {
          "internalType": "bool",
          "name": "",
          "type": "bool"
        }
      ],
      "stateMutability": "view",
      "type": "function"
    },
    {
      "inputs": [
        {
          "internalType": "bytes32",
          "name": "role",
          "type": "bytes32"
        },
        {
          "internalType": "address",
          "name": "account",
          "type": "address"
        }
      ],
      "name": "renounceRole",
      "outputs": [],
      "stateMutability": "nonpayable",
      "type": "function"
    },
    {
      "inputs": [
        {
          "internalType": "bytes32",
          "name": "role",
          "type": "bytes32"
        },
        {
          "internalType": "address",
          "name": "account",
          "type": "address"
        }
      ],
      "name": "revokeRole",
      "outputs": [],
      "stateMutability": "nonpayable",
      "type": "function"
    },
    {
      "inputs": [],
      "name": "pause",
      "outputs": [],
      "stateMutability": "nonpayable",
      "type": "function"
    },
    {
      "inputs": [],
      "name": "unpause",
      "outputs": [],
      "stateMutability": "nonpayable",
      "type": "function"
    },
    {
      "inputs": [
        {
          "internalType": "address",
          "name": "account",
          "type": "address"
        }
      ],
      "name": "grantMinter",
      "outputs": [],
      "stateMutability": "nonpayable",
      "type": "function"
    },
    {
      "inputs": [
        {
          "internalType": "address",
          "name": "account",
          "type": "address"
        }
      ],
      "name": "grantPauser",
      "outputs": [],
      "stateMutability": "nonpayable",
      "type": "function"
    },
    {
      "inputs": [
        {
          "internalType": "bytes4",
          "name": "interfaceId",
          "type": "bytes4"
        }
      ],
      "name": "supportsInterface",
      "outputs": [
        {
          "internalType": "bool",
          "name": "",
          "type": "bool"
        }
      ],
      "stateMutability": "view",
      "type": "function"
    }
  ],
  "bytecode": "0x60806040523480156200001157600080fd5b506000600260006101000a81548160ff0219169083151502179055506200003d6200004360201b60201c565b62000354565b620000586000801b33620000be60201b60201c565b6200008a7f65d7a28e3265b37a6474929f336521b332c1681b933f6cb9f3376673440d862a33620000be60201b60201c565b620000bc7f9f2df0fed2c77648de5860a4cc508cd0818c85b8b8a1ab4ceeef8d981c8956a633620000be60201b60201c565b565b620000d582826200010660201b620006471760201c565b6200010181600160008581526020019081526020016000206200011c60201b620006551790919060201c565b505050565b6200011882826200015460201b60201c565b5050565b60006200014c836000018373ffffffffffffffffffffffffffffffffffffffff1660001b6200024560201b60201c565b905092915050565b620001668282620002bf60201b60201c565b6200024157600160008084815260200190815260200160002060000160008373ffffffffffffffffffffffffffffffffffffffff1673ffffffffffffffffffffffffffffffffffffffff16815260200190815260200160002060006101000a81548160ff021916908315150217905550620001e66200032960201b60201c565b73ffffffffffffffffffffffffffffffffffffffff168173ffffffffffffffffffffffffffffffffffffffff16837f2f8788117e7eff1d82e926ec794901d17c78024a50270940304540a733656f0d60405160405180910390a45b5050565b60006200025983836200033160201b60201c565b620002b4578260000182908060018154018082558091505060019003906000526020600020016000909190919091505582600001805490508360010160008481526020019081526020016000208190555060019050620002b9565b600090505b92915050565b600080600084815260200190815260200160002060000160008373ffffffffffffffffffffffffffffffffffffffff1673ffffffffffffffffffffffffffffffffffffffff16815260200190815260200160002060009054906101000a900460ff16905092915050565b600033905090565b600080836001016000848152602001908152602001600020541415905092915050565b6119fe80620003646000396000f3fe608060405234801561001057600080fd5b50600436106101005760003560e01c80638456cb5911610097578063ca15c87311610066578063ca15c87314610285578063d5391393146102b5578063d547741f146102d3578063e63ab1e9146102ef57610100565b80638456cb59146101fd5780639010d07c1461020757806391d1485414610237578063a217fddf1461026757610100565b80632f2ff15d116100d35780632f2ff15d1461019d57806336568abe146101b95780633f4ba83a146101d55780635c975abb146101df57610100565b806301ffc9a71461010557806309c1d95f14610135578063248a9ca314610151578063261707fa14610181575b600080fd5b61011f600480360381019061011a9190611389565b61030d565b60405161012c9190611653565b60405180910390f35b61014f600480360381019061014a91906112bf565b61031f565b005b61016b600480360381019061016691906112e8565b610387565b604051610178919061166e565b60405180910390f35b61019b600480360381019061019691906112bf565b6103a6565b005b6101b760048036038101906101b29190611311565b61040e565b005b6101d360048036038101906101ce9190611311565b610442565b005b6101dd610476565b005b6101e76104b3565b6040516101f49190611653565b60405180910390f35b6102056104ca565b005b610221600480360381019061021c919061134d565b610507565b60405161022e9190611638565b60405180910390f35b610251600480360381019061024c9190611311565b610536565b60405161025e9190611653565b60405180910390f35b61026f6105a0565b60405161027c919061166e565b60405180910390f35b61029f600480360381019061029a91906112e8565b6105a7565b6040516102ac919061172b565b60405180910390f35b6102bd6105cb565b6040516102ca919061166e565b60405180910390f35b6102ed60048036038101906102e89190611311565b6105ef565b005b6102f7610623565b604051610304919061166e565b60405180910390f35b600061031882610685565b9050919050565b6103487f65d7a28e3265b37a6474929f336521b332c1681b933f6cb9f3376673440d862a610387565b610359816103546106ff565b610707565b6103837f65d7a28e3265b37a6474929f336521b332c1681b933f6cb9f3376673440d862a836107a4565b5050565b6000806000838152602001908152602001600020600101549050919050565b6103cf7f9f2df0fed2c77648de5860a4cc508cd0818c85b8b8a1ab4ceeef8d981c8956a6610387565b6103e0816103db6106ff565b610707565b61040a7f9f2df0fed2c77648de5860a4cc508cd0818c85b8b8a1ab4ceeef8d981c8956a6836107a4565b5050565b61041882826107d8565b61043d816001600085815260200190815260200160002061065590919063ffffffff16565b505050565b61044c8282610801565b610471816001600085815260200190815260200160002061088490919063ffffffff16565b505050565b6104a07f65d7a28e3265b37a6474929f336521b332c1681b933f6cb9f3376673440d862a33610536565b6104a957600080fd5b6104b16108b4565b565b6000600260009054906101000a900460ff16905090565b6104f47f65d7a28e3265b37a6474929f336521b332c1681b933f6cb9f3376673440d862a33610536565b6104fd57600080fd5b610505610956565b565b600061052e82600160008681526020019081526020016000206109f990919063ffffffff16565b905092915050565b600080600084815260200190815260200160002060000160008373ffffffffffffffffffffffffffffffffffffffff1673ffffffffffffffffffffffffffffffffffffffff16815260200190815260200160002060009054906101000a900460ff16905092915050565b6000801b81565b60006105c460016000848152602001908152602001600020610a13565b9050919050565b7f9f2df0fed2c77648de5860a4cc508cd0818c85b8b8a1ab4ceeef8d981c8956a681565b6105f98282610a28565b61061e816001600085815260200190815260200160002061088490919063ffffffff16565b505050565b7f65d7a28e3265b37a6474929f336521b332c1681b933f6cb9f3376673440d862a81565b6106518282610a51565b5050565b600061067d836000018373ffffffffffffffffffffffffffffffffffffffff1660001b610b31565b905092915050565b60007f5a05180f000000000000000000000000000000000000000000000000000000007bffffffffffffffffffffffffffffffffffffffffffffffffffffffff1916827bffffffffffffffffffffffffffffffffffffffffffffffffffffffff191614806106f857506106f782610ba1565b5b9050919050565b600033905090565b6107118282610536565b6107a0576107368173ffffffffffffffffffffffffffffffffffffffff166014610c1b565b6107448360001c6020610c1b565b6040516020016107559291906115fe565b6040516020818303038152906040526040517f08c379a00000000000000000000000000000000000000000000000000000000081526004016107979190611689565b60405180910390fd5b5050565b6107ae8282610647565b6107d3816001600085815260200190815260200160002061065590919063ffffffff16565b505050565b6107e182610387565b6107f2816107ed6106ff565b610707565b6107fc8383610a51565b505050565b6108096106ff565b73ffffffffffffffffffffffffffffffffffffffff168173ffffffffffffffffffffffffffffffffffffffff1614610876576040517f08c379a000000000000000000000000000000000000000000000000000000000815260040161086d9061170b565b60405180910390fd5b6108808282610f15565b5050565b60006108ac836000018373ffffffffffffffffffffffffffffffffffffffff1660001b610ff6565b905092915050565b6108bc6104b3565b6108fb576040517f08c379a00000000000000000000000000000000000000000000000000000000081526004016108f2906116cb565b60405180910390fd5b6000600260006101000a81548160ff0219169083151502179055507f5db9ee0a495bf2e6ff9c91a7834c1ba4fdd244a5e8aa4e537bd38aeae4b073aa61093f6106ff565b60405161094c9190611638565b60405180910390a1565b61095e6104b3565b1561099e576040517f08c379a0000000000000000000000000000000000000000000000000000000008152600401610995906116eb565b60405180910390fd5b6001600260006101000a81548160ff0219169083151502179055507f62e78cea01bee320cd4e420270b5ea74000d11b0c9f74754ebdbfc544b05a2586109e26106ff565b6040516109ef9190611638565b60405180910390a1565b6000610a08836000018361117c565b60001c905092915050565b6000610a21826000016111cd565b9050919050565b610a3182610387565b610a4281610a3d6106ff565b610707565b610a4c8383610f15565b505050565b610a5b8282610536565b610b2d57600160008084815260200190815260200160002060000160008373ffffffffffffffffffffffffffffffffffffffff1673ffffffffffffffffffffffffffffffffffffffff16815260200190815260200160002060006101000a81548160ff021916908315150217905550610ad26106ff565b73ffffffffffffffffffffffffffffffffffffffff168173ffffffffffffffffffffffffffffffffffffffff16837f2f8788117e7eff1d82e926ec794901d17c78024a50270940304540a733656f0d60405160405180910390a45b5050565b6000610b3d83836111de565b610b96578260000182908060018154018082558091505060019003906000526020600020016000909190919091505582600001805490508360010160008481526020019081526020016000208190555060019050610b9b565b600090505b92915050565b60007f7965db0b000000000000000000000000000000000000000000000000000000007bffffffffffffffffffffffffffffffffffffffffffffffffffffffff1916827bffffffffffffffffffffffffffffffffffffffffffffffffffffffff19161480610c145750610c1382611201565b5b9050919050565b606060006002836002610c2e91906117c3565b610c38919061176d565b67ffffffffffffffff811115610c77577f4e487b7100000000000000000000000000000000000000000000000000000000600052604160045260246000fd5b6040519080825280601f01601f191660200182016040528015610ca95781602001600182028036833780820191505090505b5090507f300000000000000000000000000000000000000000000000000000000000000081600081518110610d07577f4e487b7100000000000000000000000000000000000000000000000000000000600052603260045260246000fd5b60200101907effffffffffffffffffffffffffffffffffffffffffffffffffffffffffffff1916908160001a9053507f780000000000000000000000000000000000000000000000000000000000000081600181518110610d91577f4e487b7100000000000000000000000000000000000000000000000000000000600052603260045260246000fd5b60200101907effffffffffffffffffffffffffffffffffffffffffffffffffffffffffffff1916908160001a90535060006001846002610dd191906117c3565b610ddb919061176d565b90505b6001811115610ec7577f3031323334353637383961626364656600000000000000000000000000000000600f861660108110610e43577f4e487b7100000000000000000000000000000000000000000000000000000000600052603260045260246000fd5b1a60f81b828281518110610e80577f4e487b7100000000000000000000000000000000000000000000000000000000600052603260045260246000fd5b60200101907effffffffffffffffffffffffffffffffffffffffffffffffffffffffffffff1916908160001a905350600485901c945080610ec090611902565b9050610dde565b5060008414610f0b576040517f08c379a0000000000000000000000000000000000000000000000000000000008152600401610f02906116ab565b60405180910390fd5b8091505092915050565b610f1f8282610536565b15610ff257600080600084815260200190815260200160002060000160008373ffffffffffffffffffffffffffffffffffffffff1673ffffffffffffffffffffffffffffffffffffffff16815260200190815260200160002060006101000a81548160ff021916908315150217905550610f976106ff565b73ffffffffffffffffffffffffffffffffffffffff168173ffffffffffffffffffffffffffffffffffffffff16837ff6391f5c32d9c69d2a47ea670b442974b53935d1edc7fd64eb21e047a839171b60405160405180910390a45b5050565b60008083600101600084815260200190815260200160002054905060008114611170576000600182611028919061181d565b9050600060018660000180549050611040919061181d565b90508181146110fb576000866000018281548110611087577f4e487b7100000000000000000000000000000000000000000000000000000000600052603260045260246000fd5b90600052602060002001549050808760000184815481106110d1577f4e487b7100000000000000000000000000000000000000000000000000000000600052603260045260246000fd5b90600052602060002001819055508387600101600083815260200190815260200160002081905550505b85600001805480611135577f4e487b7100000000000000000000000000000000000000000000000000000000600052603160045260246000fd5b600190038181906000526020600020016000905590558560010160008681526020019081526020016000206000905560019350505050611176565b60009150505b92915050565b60008260000182815481106111ba577f4e487b7100000000000000000000000000000000000000000000000000000000600052603260045260246000fd5b9060005260206000200154905092915050565b600081600001805490509050919050565b600080836001016000848152602001908152602001600020541415905092915050565b60007f01ffc9a7000000000000000000000000000000000000000000000000000000007bffffffffffffffffffffffffffffffffffffffffffffffffffffffff1916827bffffffffffffffffffffffffffffffffffffffffffffffffffffffff1916149050919050565b60008135905061127a8161196c565b92915050565b60008135905061128f81611983565b92915050565b6000813590506112a48161199a565b92915050565b6000813590506112b9816119b1565b92915050565b6000602082840312156112d157600080fd5b60006112df8482850161126b565b91505092915050565b6000602082840312156112fa57600080fd5b600061130884828501611280565b91505092915050565b6000806040838503121561132457600080fd5b600061133285828601611280565b92505060206113438582860161126b565b9150509250929050565b6000806040838503121561136057600080fd5b600061136e85828601611280565b925050602061137f858286016112aa565b9150509250929050565b60006020828403121561139b57600080fd5b60006113a984828501611295565b91505092915050565b6113bb81611851565b82525050565b6113ca81611863565b82525050565b6113d98161186f565b82525050565b60006113ea82611746565b6113f48185611751565b93506114048185602086016118cf565b61140d8161195b565b840191505092915050565b600061142382611746565b61142d8185611762565b935061143d8185602086016118cf565b80840191505092915050565b6000611456602083611751565b91507f537472696e67733a20686578206c656e67746820696e73756666696369656e746000830152602082019050919050565b6000611496601483611751565b91507f5061757361626c653a206e6f74207061757365640000000000000000000000006000830152602082019050919050565b60006114d6601083611751565b91507f5061757361626c653a20706175736564000000000000000000000000000000006000830152602082019050919050565b6000611516601783611762565b91507f416363657373436f6e74726f6c3a206163636f756e74200000000000000000006000830152601782019050919050565b6000611556601183611762565b91507f206973206d697373696e6720726f6c65200000000000000000000000000000006000830152601182019050919050565b6000611596602f83611751565b91507f416363657373436f6e74726f6c3a2063616e206f6e6c792072656e6f756e636560008301527f20726f6c657320666f722073656c6600000000000000000000000000000000006020830152604082019050919050565b6115f8816118c5565b82525050565b600061160982611509565b91506116158285611418565b915061162082611549565b915061162c8284611418565b91508190509392505050565b600060208201905061164d60008301846113b2565b92915050565b600060208201905061166860008301846113c1565b92915050565b600060208201905061168360008301846113d0565b92915050565b600060208201905081810360008301526116a381846113df565b905092915050565b600060208201905081810360008301526116c481611449565b9050919050565b600060208201905081810360008301526116e481611489565b9050919050565b60006020820190508181036000830152611704816114c9565b9050919050565b6000602082019050818103600083015261172481611589565b9050919050565b600060208201905061174060008301846115ef565b92915050565b600081519050919050565b600082825260208201905092915050565b600081905092915050565b6000611778826118c5565b9150611783836118c5565b9250827fffffffffffffffffffffffffffffffffffffffffffffffffffffffffffffffff038211156117b8576117b761192c565b5b828201905092915050565b60006117ce826118c5565b91506117d9836118c5565b9250817fffffffffffffffffffffffffffffffffffffffffffffffffffffffffffffffff04831182151516156118125761181161192c565b5b828202905092915050565b6000611828826118c5565b9150611833836118c5565b9250828210156118465761184561192c565b5b828203905092915050565b600061185c826118a5565b9050919050565b60008115159050919050565b6000819050919050565b60007fffffffff0000000000000000000000000000000000000000000000000000000082169050919050565b600073ffffffffffffffffffffffffffffffffffffffff82169050919050565b6000819050919050565b60005b838110156118ed5780820151818401526020810190506118d2565b838111156118fc576000848401525b50505050565b600061190d826118c5565b915060008214156119215761192061192c565b5b600182039050919050565b7f4e487b7100000000000000000000000000000000000000000000000000000000600052601160045260246000fd5b6000601f19601f8301169050919050565b61197581611851565b811461198057600080fd5b50565b61198c8161186f565b811461199757600080fd5b50565b6119a381611879565b81146119ae57600080fd5b50565b6119ba816118c5565b81146119c557600080fd5b5056fea264697066735822122046c53f41a472dd2340a7ff05a862db0d26fa0fd1eef3da9144944797cc99e8e064736f6c63430008000033",
  "immutableReferences": {},
  "source": "// SPDX-License-Identifier: MIT\npragma solidity ^0.8.0;\n\nimport \"@openzeppelin/contracts/access/AccessControlEnumerable.sol\";\nimport \"@openzeppelin/contracts/security/Pausable.sol\";\n\ncontract SecurityBase is AccessControlEnumerable, Pausable {\n\n    bytes32 public constant PAUSER_ROLE = keccak256(\"PAUSER_ROLE\");\n    bytes32 public constant MINTER_ROLE = keccak256(\"MINTER_ROLE\");\n\n    modifier onlyMinter() {\n        _checkRole(MINTER_ROLE, msg.sender);\n        _;\n    }\n\n    modifier onlyAdmin() {\n        _checkRole(DEFAULT_ADMIN_ROLE, msg.sender);\n        _;\n    }\n\n    constructor() {\n        _init_admin_role();\n    }\n\n    // init creator as admin role\n    function _init_admin_role() internal virtual {\n        _setupRole(DEFAULT_ADMIN_ROLE, msg.sender);\n        _setupRole(PAUSER_ROLE, msg.sender);\n        _setupRole(MINTER_ROLE, msg.sender);\n    }\n\n    function pause() public virtual {\n        require(hasRole(PAUSER_ROLE, msg.sender));\n        _pause();\n    }\n\n    function unpause() public virtual {\n        require(hasRole(PAUSER_ROLE, msg.sender));\n        _unpause();\n    }\n\n    function grantMinter(address account) public virtual onlyRole(getRoleAdmin(MINTER_ROLE)) {\n        _setupRole(MINTER_ROLE, account);\n    }\n\n    function grantPauser(address account) public virtual onlyRole(getRoleAdmin(PAUSER_ROLE)) {\n        _setupRole(PAUSER_ROLE, account);\n    }\n\n    function supportsInterface(bytes4 interfaceId)\n        public\n        view\n        virtual\n        override(AccessControlEnumerable)\n        returns (bool)\n    {\n        return super.supportsInterface(interfaceId);\n    }\n\n}",
  "sourcePath": "/Users/fank/code/freedom/geng-contracts/contracts/base/SecurityBase.sol",
  "compiler": {
    "name": "solc",
    "version": "0.8.0+commit.c7dfd78e.Emscripten.clang"
  },
  "schemaVersion": "3.4.3",
  "updatedAt": "2021-09-04T15:12:12.249Z",
  "devdoc": {
    "kind": "dev",
    "methods": {
      "getRoleAdmin(bytes32)": {
        "details": "Returns the admin role that controls `role`. See {grantRole} and {revokeRole}. To change a role's admin, use {_setRoleAdmin}."
      },
      "getRoleMember(bytes32,uint256)": {
        "details": "Returns one of the accounts that have `role`. `index` must be a value between 0 and {getRoleMemberCount}, non-inclusive. Role bearers are not sorted in any particular way, and their ordering may change at any point. WARNING: When using {getRoleMember} and {getRoleMemberCount}, make sure you perform all queries on the same block. See the following https://forum.openzeppelin.com/t/iterating-over-elements-on-enumerableset-in-openzeppelin-contracts/2296[forum post] for more information."
      },
      "getRoleMemberCount(bytes32)": {
        "details": "Returns the number of accounts that have `role`. Can be used together with {getRoleMember} to enumerate all bearers of a role."
      },
      "grantRole(bytes32,address)": {
        "details": "Overload {grantRole} to track enumerable memberships"
      },
      "hasRole(bytes32,address)": {
        "details": "Returns `true` if `account` has been granted `role`."
      },
      "paused()": {
        "details": "Returns true if the contract is paused, and false otherwise."
      },
      "renounceRole(bytes32,address)": {
        "details": "Overload {renounceRole} to track enumerable memberships"
      },
      "revokeRole(bytes32,address)": {
        "details": "Overload {revokeRole} to track enumerable memberships"
      },
      "supportsInterface(bytes4)": {
        "details": "See {IERC165-supportsInterface}."
      }
    },
    "version": 1
  },
  "userdoc": {
    "kind": "user",
    "methods": {},
    "version": 1
  }
}